{
    "contractName": "Admin",
    "abi": [
        {
            "inputs": [],
            "stateMutability": "nonpayable",
            "type": "constructor"
        },
        {
            "inputs": [],
            "name": "API",
            "outputs": [
                {
                    "internalType": "address",
                    "name": "",
                    "type": "address"
                }
            ],
            "stateMutability": "view",
            "type": "function"
        },
        {
            "inputs": [
                {
                    "internalType": "address",
                    "name": "",
                    "type": "address"
                }
            ],
            "name": "admin",
            "outputs": [
                {
                    "internalType": "bool",
                    "name": "",
                    "type": "bool"
                }
            ],
            "stateMutability": "view",
            "type": "function"
        },
        {
            "inputs": [
                {
                    "internalType": "address",
                    "name": "",
                    "type": "address"
                }
            ],
            "name": "leader",
            "outputs": [
                {
                    "internalType": "bool",
                    "name": "",
                    "type": "bool"
                }
            ],
            "stateMutability": "view",
            "type": "function"
        },
        {
            "inputs": [
                {
                    "internalType": "address payable",
                    "name": "_newadmin",
                    "type": "address"
                }
            ],
            "name": "makeNewAdmin",
            "outputs": [],
            "stateMutability": "nonpayable",
            "type": "function"
        },
        {
            "inputs": [
                {
                    "internalType": "address payable",
                    "name": "_newapi",
                    "type": "address"
                }
            ],
            "name": "makeNewApi",
            "outputs": [],
            "stateMutability": "nonpayable",
            "type": "function"
        },
        {
            "inputs": [
                {
                    "internalType": "address payable",
                    "name": "_newadmin",
                    "type": "address"
                }
            ],
            "name": "makeNewLeader",
            "outputs": [],
            "stateMutability": "nonpayable",
            "type": "function"
        },
        {
            "inputs": [
                {
                    "internalType": "address payable",
                    "name": "_oldadmin",
                    "type": "address"
                }
            ],
            "name": "makeRemoveAdmin",
            "outputs": [],
            "stateMutability": "nonpayable",
            "type": "function"
        },
        {
            "inputs": [
                {
                    "internalType": "address payable",
                    "name": "_oldadmin",
                    "type": "address"
                }
            ],
            "name": "makeRemoveLeader",
            "outputs": [],
            "stateMutability": "nonpayable",
            "type": "function"
        },
        {
            "inputs": [],
            "name": "owner",
            "outputs": [
                {
                    "internalType": "address payable",
                    "name": "",
                    "type": "address"
                }
            ],
            "stateMutability": "view",
            "type": "function"
        },
        {
            "inputs": [
                {
                    "internalType": "address payable",
                    "name": "newOwner",
                    "type": "address"
                }
            ],
            "name": "transferOwnership",
            "outputs": [],
            "stateMutability": "nonpayable",
            "type": "function"
        }
    ],
    "bytecode": "608060405234801561001057600080fd5b50600080546001600160a01b0319163390811782558152600260209081526040808320805460ff199081166001908117909255600390935292208054909116909117905561041a806100636000396000f3fe608060405234801561001057600080fd5b506004361061009e5760003560e01c806370a0966b1161006657806370a0966b1461011a5780637d7b00991461012d5780638da5cb5b14610142578063ac713a0b1461014a578063f2fde38b1461015d5761009e565b806301288c71146100a3578063160e8d60146100cc5780631800df1b146100e157806363a846f8146100f457806369ed1e0a14610107575b600080fd5b6100b66100b136600461038a565b610170565b6040516100c391906103c1565b60405180910390f35b6100df6100da36600461038a565b610185565b005b6100df6100ef36600461038a565b6101d6565b6100b661010236600461038a565b610200565b6100df61011536600461038a565b610215565b6100df61012836600461038a565b610254565b610135610290565b6040516100c391906103ad565b61013561029f565b6100df61015836600461038a565b6102ae565b6100df61016b36600461038a565b610305565b60036020526000908152604090205460ff1681565b61018d610371565b6001600160a01b0381166101a057600080fd5b6001600160a01b03166000908152600360209081526040808320805460ff19908116909155600290925290912080549091169055565b6101de610371565b600180546001600160a01b0319166001600160a01b0392909216919091179055565b60026020526000908152604090205460ff1681565b61021d610371565b6001600160a01b03811661023057600080fd5b6001600160a01b03166000908152600260205260409020805460ff19166001179055565b61025c610371565b6001600160a01b03811661026f57600080fd5b6001600160a01b03166000908152600260205260409020805460ff19169055565b6001546001600160a01b031681565b6000546001600160a01b031681565b6102b6610371565b6001600160a01b0381166102c957600080fd5b6001600160a01b031660009081526003602090815260408083208054600160ff1991821681179092556002909352922080549091169091179055565b61030d610371565b6001600160a01b03811661032057600080fd5b600080546001600160a01b039092166001600160a01b031990921682178155908152600260209081526040808320805460ff1990811660019081179092556003909352922080549091169091179055565b6000546001600160a01b0316331461038857600080fd5b565b60006020828403121561039b578081fd5b81356103a6816103cc565b9392505050565b6001600160a01b0391909116815260200190565b901515815260200190565b6001600160a01b03811681146103e157600080fd5b5056fea2646970667358221220d2113f36499adc61e39927ee230487f751ad5c5a6e8665ca76075a4efb4dd3c164736f6c63430008000033",
    "sourcePath": "c:/Users/STC/Documents/GitHub/Mehdi1/contracts/BinariSystemV2.0.sol",
    "compiler": {
        "name": "solc",
        "version": "0.8.0+commit.c7dfd78e"
    },
    "functionHashes": {
        "API()": "7d7b0099",
        "admin(address)": "63a846f8",
        "leader(address)": "01288c71",
        "makeNewAdmin(address)": "69ed1e0a",
        "makeNewApi(address)": "1800df1b",
        "makeNewLeader(address)": "ac713a0b",
        "makeRemoveAdmin(address)": "70a0966b",
        "makeRemoveLeader(address)": "160e8d60",
        "owner()": "8da5cb5b",
        "transferOwnership(address)": "f2fde38b"
    },
    "gasEstimates": {
        "creation": {
            "codeDepositCost": "210000",
            "executionCost": "62881",
            "totalCost": "272881"
        },
        "external": {
            "API()": "1092",
            "admin(address)": "1325",
            "leader(address)": "1259",
            "makeNewAdmin(address)": "22192",
            "makeNewApi(address)": "22074",
            "makeNewLeader(address)": "43071",
            "makeRemoveAdmin(address)": "22097",
            "makeRemoveLeader(address)": "43013",
            "owner()": "1114",
            "transferOwnership(address)": "63941"
        },
        "internal": {
            "onlyAdmin()": "infinite",
            "onlyApi()": "infinite",
            "onlyLeader()": "infinite",
            "onlyOwner()": "849"
        }
    }
}