{
    "contractName": "BinarySystem",
    "abi": [
        {
            "inputs": [],
            "stateMutability": "nonpayable",
            "type": "constructor"
        },
        {
            "anonymous": false,
            "inputs": [
                {
                    "indexed": true,
                    "internalType": "address",
                    "name": "admin",
                    "type": "address"
                }
            ],
            "name": "AdminRemoved",
            "type": "event"
        },
        {
            "anonymous": false,
            "inputs": [
                {
                    "indexed": true,
                    "internalType": "address",
                    "name": "admin",
                    "type": "address"
                }
            ],
            "name": "NewAdmin",
            "type": "event"
        },
        {
            "anonymous": false,
            "inputs": [
                {
                    "indexed": true,
                    "internalType": "address",
                    "name": "previousOwner",
                    "type": "address"
                },
                {
                    "indexed": true,
                    "internalType": "address",
                    "name": "newOwner",
                    "type": "address"
                }
            ],
            "name": "OwnershipTransferred",
            "type": "event"
        },
        {
            "stateMutability": "payable",
            "type": "fallback"
        },
        {
            "inputs": [],
            "name": "API",
            "outputs": [
                {
                    "internalType": "address",
                    "name": "",
                    "type": "address"
                }
            ],
            "stateMutability": "view",
            "type": "function"
        },
        {
            "inputs": [],
            "name": "GanaMax",
            "outputs": [
                {
                    "internalType": "uint256",
                    "name": "",
                    "type": "uint256"
                }
            ],
            "stateMutability": "view",
            "type": "function"
        },
        {
            "inputs": [],
            "name": "MAX_RETIRO",
            "outputs": [
                {
                    "internalType": "uint256",
                    "name": "",
                    "type": "uint256"
                }
            ],
            "stateMutability": "view",
            "type": "function"
        },
        {
            "inputs": [],
            "name": "MIN_RETIRO",
            "outputs": [
                {
                    "internalType": "uint256",
                    "name": "",
                    "type": "uint256"
                }
            ],
            "stateMutability": "view",
            "type": "function"
        },
        {
            "inputs": [
                {
                    "internalType": "address",
                    "name": "_user",
                    "type": "address"
                },
                {
                    "internalType": "address",
                    "name": "_sponsor",
                    "type": "address"
                },
                {
                    "internalType": "uint8",
                    "name": "_hand",
                    "type": "uint8"
                }
            ],
            "name": "_registro",
            "outputs": [],
            "stateMutability": "nonpayable",
            "type": "function"
        },
        {
            "inputs": [],
            "name": "activerFee",
            "outputs": [
                {
                    "internalType": "uint256",
                    "name": "",
                    "type": "uint256"
                }
            ],
            "stateMutability": "view",
            "type": "function"
        },
        {
            "inputs": [
                {
                    "internalType": "bool[]",
                    "name": "old",
                    "type": "bool[]"
                }
            ],
            "name": "actualizarArrayBool",
            "outputs": [
                {
                    "internalType": "bool[]",
                    "name": "",
                    "type": "bool[]"
                }
            ],
            "stateMutability": "pure",
            "type": "function"
        },
        {
            "inputs": [
                {
                    "internalType": "uint256[]",
                    "name": "old",
                    "type": "uint256[]"
                }
            ],
            "name": "actualizarArrayUint256",
            "outputs": [
                {
                    "internalType": "uint256[]",
                    "name": "",
                    "type": "uint256[]"
                }
            ],
            "stateMutability": "pure",
            "type": "function"
        },
        {
            "inputs": [
                {
                    "internalType": "address[]",
                    "name": "oldNetwork",
                    "type": "address[]"
                }
            ],
            "name": "actualizarNetwork",
            "outputs": [
                {
                    "internalType": "address[]",
                    "name": "",
                    "type": "address[]"
                }
            ],
            "stateMutability": "pure",
            "type": "function"
        },
        {
            "inputs": [
                {
                    "internalType": "address",
                    "name": "",
                    "type": "address"
                }
            ],
            "name": "addressToId",
            "outputs": [
                {
                    "internalType": "uint256",
                    "name": "",
                    "type": "uint256"
                }
            ],
            "stateMutability": "view",
            "type": "function"
        },
        {
            "inputs": [
                {
                    "internalType": "address",
                    "name": "",
                    "type": "address"
                }
            ],
            "name": "admin",
            "outputs": [
                {
                    "internalType": "bool",
                    "name": "",
                    "type": "bool"
                }
            ],
            "stateMutability": "view",
            "type": "function"
        },
        {
            "inputs": [
                {
                    "internalType": "address[]",
                    "name": "network",
                    "type": "address[]"
                }
            ],
            "name": "allnetwork",
            "outputs": [
                {
                    "internalType": "address[]",
                    "name": "",
                    "type": "address[]"
                }
            ],
            "stateMutability": "view",
            "type": "function"
        },
        {
            "inputs": [
                {
                    "internalType": "address",
                    "name": "_user",
                    "type": "address"
                },
                {
                    "internalType": "address",
                    "name": "_sponsor",
                    "type": "address"
                },
                {
                    "internalType": "uint8",
                    "name": "_hand",
                    "type": "uint8"
                }
            ],
            "name": "asignFreeMembership",
            "outputs": [],
            "stateMutability": "nonpayable",
            "type": "function"
        },
        {
            "inputs": [
                {
                    "internalType": "address",
                    "name": "_user",
                    "type": "address"
                },
                {
                    "internalType": "uint256",
                    "name": "_plan",
                    "type": "uint256"
                },
                {
                    "internalType": "bool",
                    "name": "_depago",
                    "type": "bool"
                }
            ],
            "name": "asignarPlan",
            "outputs": [],
            "stateMutability": "nonpayable",
            "type": "function"
        },
        {
            "inputs": [
                {
                    "internalType": "address",
                    "name": "_user",
                    "type": "address"
                },
                {
                    "internalType": "uint256",
                    "name": "_puntosLeft",
                    "type": "uint256"
                },
                {
                    "internalType": "uint256",
                    "name": "_puntosRigth",
                    "type": "uint256"
                }
            ],
            "name": "asignarPuntosBinarios",
            "outputs": [],
            "stateMutability": "nonpayable",
            "type": "function"
        },
        {
            "inputs": [
                {
                    "internalType": "uint256",
                    "name": "_value",
                    "type": "uint256"
                }
            ],
            "name": "buyPlan",
            "outputs": [],
            "stateMutability": "nonpayable",
            "type": "function"
        },
        {
            "inputs": [
                {
                    "internalType": "address",
                    "name": "yo",
                    "type": "address"
                },
                {
                    "internalType": "uint256",
                    "name": "_largo",
                    "type": "uint256"
                }
            ],
            "name": "column",
            "outputs": [
                {
                    "internalType": "address[]",
                    "name": "",
                    "type": "address[]"
                }
            ],
            "stateMutability": "view",
            "type": "function"
        },
        {
            "inputs": [
                {
                    "internalType": "bool",
                    "name": "_true_false",
                    "type": "bool"
                }
            ],
            "name": "controlWitdrawl",
            "outputs": [],
            "stateMutability": "nonpayable",
            "type": "function"
        },
        {
            "inputs": [
                {
                    "internalType": "address",
                    "name": "",
                    "type": "address"
                }
            ],
            "name": "corteB",
            "outputs": [
                {
                    "internalType": "uint256",
                    "name": "",
                    "type": "uint256"
                }
            ],
            "stateMutability": "view",
            "type": "function"
        },
        {
            "inputs": [
                {
                    "internalType": "address",
                    "name": "any_user",
                    "type": "address"
                },
                {
                    "internalType": "uint256",
                    "name": "left",
                    "type": "uint256"
                },
                {
                    "internalType": "uint256",
                    "name": "rigth",
                    "type": "uint256"
                },
                {
                    "internalType": "uint256",
                    "name": "_retirableA",
                    "type": "uint256"
                },
                {
                    "internalType": "uint256",
                    "name": "_retirableB",
                    "type": "uint256"
                },
                {
                    "internalType": "uint256",
                    "name": "_corteB",
                    "type": "uint256"
                }
            ],
            "name": "corteBinarioDo",
            "outputs": [],
            "stateMutability": "nonpayable",
            "type": "function"
        },
        {
            "inputs": [
                {
                    "internalType": "address",
                    "name": "_user",
                    "type": "address"
                }
            ],
            "name": "depositos",
            "outputs": [
                {
                    "internalType": "uint256[]",
                    "name": "",
                    "type": "uint256[]"
                },
                {
                    "internalType": "uint256[]",
                    "name": "",
                    "type": "uint256[]"
                },
                {
                    "internalType": "bool[]",
                    "name": "",
                    "type": "bool[]"
                },
                {
                    "internalType": "bool[]",
                    "name": "",
                    "type": "bool[]"
                },
                {
                    "internalType": "uint256",
                    "name": "",
                    "type": "uint256"
                },
                {
                    "internalType": "uint256",
                    "name": "",
                    "type": "uint256"
                }
            ],
            "stateMutability": "view",
            "type": "function"
        },
        {
            "inputs": [],
            "name": "descuento",
            "outputs": [
                {
                    "internalType": "uint256",
                    "name": "",
                    "type": "uint256"
                }
            ],
            "stateMutability": "view",
            "type": "function"
        },
        {
            "inputs": [],
            "name": "dias",
            "outputs": [
                {
                    "internalType": "uint256",
                    "name": "",
                    "type": "uint256"
                }
            ],
            "stateMutability": "view",
            "type": "function"
        },
        {
            "inputs": [],
            "name": "directosBinario",
            "outputs": [
                {
                    "internalType": "uint256",
                    "name": "",
                    "type": "uint256"
                }
            ],
            "stateMutability": "view",
            "type": "function"
        },
        {
            "inputs": [
                {
                    "internalType": "uint256",
                    "name": "",
                    "type": "uint256"
                }
            ],
            "name": "espaciosRango",
            "outputs": [
                {
                    "internalType": "bool",
                    "name": "",
                    "type": "bool"
                }
            ],
            "stateMutability": "view",
            "type": "function"
        },
        {
            "inputs": [],
            "name": "factorPuntos",
            "outputs": [
                {
                    "internalType": "uint256",
                    "name": "",
                    "type": "uint256"
                }
            ],
            "stateMutability": "view",
            "type": "function"
        },
        {
            "inputs": [
                {
                    "internalType": "uint256",
                    "name": "",
                    "type": "uint256"
                }
            ],
            "name": "gananciasRango",
            "outputs": [
                {
                    "internalType": "uint256",
                    "name": "",
                    "type": "uint256"
                }
            ],
            "stateMutability": "view",
            "type": "function"
        },
        {
            "inputs": [
                {
                    "internalType": "uint256",
                    "name": "",
                    "type": "uint256"
                }
            ],
            "name": "idToAddress",
            "outputs": [
                {
                    "internalType": "address",
                    "name": "",
                    "type": "address"
                }
            ],
            "stateMutability": "view",
            "type": "function"
        },
        {
            "inputs": [
                {
                    "internalType": "address[]",
                    "name": "network",
                    "type": "address[]"
                },
                {
                    "internalType": "uint256",
                    "name": "_hand",
                    "type": "uint256"
                }
            ],
            "name": "insertion",
            "outputs": [
                {
                    "internalType": "address",
                    "name": "wallett",
                    "type": "address"
                }
            ],
            "stateMutability": "view",
            "type": "function"
        },
        {
            "inputs": [],
            "name": "inversiones",
            "outputs": [
                {
                    "internalType": "uint256",
                    "name": "",
                    "type": "uint256"
                }
            ],
            "stateMutability": "view",
            "type": "function"
        },
        {
            "inputs": [
                {
                    "internalType": "address",
                    "name": "",
                    "type": "address"
                }
            ],
            "name": "investors",
            "outputs": [
                {
                    "internalType": "bool",
                    "name": "registered",
                    "type": "bool"
                },
                {
                    "internalType": "uint256",
                    "name": "balanceRef",
                    "type": "uint256"
                },
                {
                    "internalType": "uint256",
                    "name": "balanceSal",
                    "type": "uint256"
                },
                {
                    "internalType": "uint256",
                    "name": "totalRef",
                    "type": "uint256"
                },
                {
                    "internalType": "uint256",
                    "name": "invested",
                    "type": "uint256"
                },
                {
                    "internalType": "uint256",
                    "name": "paidAt",
                    "type": "uint256"
                },
                {
                    "internalType": "uint256",
                    "name": "amount",
                    "type": "uint256"
                },
                {
                    "internalType": "uint256",
                    "name": "withdrawn",
                    "type": "uint256"
                },
                {
                    "components": [
                        {
                            "internalType": "uint256",
                            "name": "lReclamados",
                            "type": "uint256"
                        },
                        {
                            "internalType": "uint256",
                            "name": "lExtra",
                            "type": "uint256"
                        },
                        {
                            "internalType": "address",
                            "name": "lReferer",
                            "type": "address"
                        },
                        {
                            "internalType": "uint256",
                            "name": "rReclamados",
                            "type": "uint256"
                        },
                        {
                            "internalType": "uint256",
                            "name": "rExtra",
                            "type": "uint256"
                        },
                        {
                            "internalType": "address",
                            "name": "rReferer",
                            "type": "address"
                        }
                    ],
                    "internalType": "struct BinarySystem.Hand",
                    "name": "hands",
                    "type": "tuple"
                }
            ],
            "stateMutability": "view",
            "type": "function"
        },
        {
            "inputs": [],
            "name": "lastUserId",
            "outputs": [
                {
                    "internalType": "uint256",
                    "name": "",
                    "type": "uint256"
                }
            ],
            "stateMutability": "view",
            "type": "function"
        },
        {
            "inputs": [
                {
                    "internalType": "address",
                    "name": "",
                    "type": "address"
                }
            ],
            "name": "leader",
            "outputs": [
                {
                    "internalType": "bool",
                    "name": "",
                    "type": "bool"
                }
            ],
            "stateMutability": "view",
            "type": "function"
        },
        {
            "inputs": [
                {
                    "internalType": "address payable",
                    "name": "_newadmin",
                    "type": "address"
                }
            ],
            "name": "makeNewAdmin",
            "outputs": [],
            "stateMutability": "nonpayable",
            "type": "function"
        },
        {
            "inputs": [
                {
                    "internalType": "address payable",
                    "name": "_newapi",
                    "type": "address"
                }
            ],
            "name": "makeNewApi",
            "outputs": [],
            "stateMutability": "nonpayable",
            "type": "function"
        },
        {
            "inputs": [
                {
                    "internalType": "address payable",
                    "name": "_newadmin",
                    "type": "address"
                }
            ],
            "name": "makeNewLeader",
            "outputs": [],
            "stateMutability": "nonpayable",
            "type": "function"
        },
        {
            "inputs": [
                {
                    "internalType": "address payable",
                    "name": "_oldadmin",
                    "type": "address"
                }
            ],
            "name": "makeRemoveAdmin",
            "outputs": [],
            "stateMutability": "nonpayable",
            "type": "function"
        },
        {
            "inputs": [
                {
                    "internalType": "address payable",
                    "name": "_oldadmin",
                    "type": "address"
                }
            ],
            "name": "makeRemoveLeader",
            "outputs": [],
            "stateMutability": "nonpayable",
            "type": "function"
        },
        {
            "inputs": [
                {
                    "internalType": "address",
                    "name": "_user",
                    "type": "address"
                },
                {
                    "internalType": "uint256",
                    "name": "_hand",
                    "type": "uint256"
                }
            ],
            "name": "miHands",
            "outputs": [
                {
                    "internalType": "uint256",
                    "name": "equipo",
                    "type": "uint256"
                },
                {
                    "internalType": "uint256",
                    "name": "extra",
                    "type": "uint256"
                },
                {
                    "internalType": "uint256",
                    "name": "reclamados",
                    "type": "uint256"
                },
                {
                    "internalType": "uint256",
                    "name": "capital",
                    "type": "uint256"
                },
                {
                    "internalType": "uint256",
                    "name": "directos",
                    "type": "uint256"
                },
                {
                    "internalType": "address",
                    "name": "referer",
                    "type": "address"
                }
            ],
            "stateMutability": "view",
            "type": "function"
        },
        {
            "inputs": [
                {
                    "components": [
                        {
                            "internalType": "bool",
                            "name": "registered",
                            "type": "bool"
                        },
                        {
                            "internalType": "uint256",
                            "name": "balanceRef",
                            "type": "uint256"
                        },
                        {
                            "internalType": "uint256",
                            "name": "balanceSal",
                            "type": "uint256"
                        },
                        {
                            "internalType": "uint256",
                            "name": "totalRef",
                            "type": "uint256"
                        },
                        {
                            "internalType": "uint256",
                            "name": "invested",
                            "type": "uint256"
                        },
                        {
                            "internalType": "uint256",
                            "name": "paidAt",
                            "type": "uint256"
                        },
                        {
                            "internalType": "uint256",
                            "name": "amount",
                            "type": "uint256"
                        },
                        {
                            "internalType": "uint256",
                            "name": "withdrawn",
                            "type": "uint256"
                        },
                        {
                            "internalType": "address[]",
                            "name": "directosL",
                            "type": "address[]"
                        },
                        {
                            "internalType": "address[]",
                            "name": "directosR",
                            "type": "address[]"
                        },
                        {
                            "components": [
                                {
                                    "internalType": "uint256",
                                    "name": "inicio",
                                    "type": "uint256"
                                },
                                {
                                    "internalType": "uint256",
                                    "name": "amount",
                                    "type": "uint256"
                                },
                                {
                                    "internalType": "uint256",
                                    "name": "valor",
                                    "type": "uint256"
                                },
                                {
                                    "internalType": "bool",
                                    "name": "pasivo",
                                    "type": "bool"
                                }
                            ],
                            "internalType": "struct BinarySystem.Deposito[]",
                            "name": "depositos",
                            "type": "tuple[]"
                        },
                        {
                            "components": [
                                {
                                    "internalType": "uint256",
                                    "name": "lReclamados",
                                    "type": "uint256"
                                },
                                {
                                    "internalType": "uint256",
                                    "name": "lExtra",
                                    "type": "uint256"
                                },
                                {
                                    "internalType": "address",
                                    "name": "lReferer",
                                    "type": "address"
                                },
                                {
                                    "internalType": "uint256",
                                    "name": "rReclamados",
                                    "type": "uint256"
                                },
                                {
                                    "internalType": "uint256",
                                    "name": "rExtra",
                                    "type": "uint256"
                                },
                                {
                                    "internalType": "address",
                                    "name": "rReferer",
                                    "type": "address"
                                }
                            ],
                            "internalType": "struct BinarySystem.Hand",
                            "name": "hands",
                            "type": "tuple"
                        }
                    ],
                    "internalType": "struct BinarySystem.Investor",
                    "name": "_inTo",
                    "type": "tuple"
                },
                {
                    "internalType": "address",
                    "name": "_user",
                    "type": "address"
                },
                {
                    "internalType": "uint256",
                    "name": "_userId",
                    "type": "uint256"
                },
                {
                    "internalType": "bool[]",
                    "name": "_espaciosRango",
                    "type": "bool[]"
                },
                {
                    "internalType": "uint256",
                    "name": "_value",
                    "type": "uint256"
                }
            ],
            "name": "migrate",
            "outputs": [],
            "stateMutability": "nonpayable",
            "type": "function"
        },
        {
            "inputs": [
                {
                    "internalType": "address",
                    "name": "_user",
                    "type": "address"
                },
                {
                    "internalType": "uint256",
                    "name": "_hand",
                    "type": "uint256"
                }
            ],
            "name": "misDirectos",
            "outputs": [
                {
                    "internalType": "address[]",
                    "name": "",
                    "type": "address[]"
                }
            ],
            "stateMutability": "view",
            "type": "function"
        },
        {
            "inputs": [],
            "name": "multiPuntos",
            "outputs": [
                {
                    "internalType": "uint256",
                    "name": "",
                    "type": "uint256"
                }
            ],
            "stateMutability": "view",
            "type": "function"
        },
        {
            "inputs": [],
            "name": "newRecompensa",
            "outputs": [],
            "stateMutability": "nonpayable",
            "type": "function"
        },
        {
            "inputs": [],
            "name": "onOffWitdrawl",
            "outputs": [
                {
                    "internalType": "bool",
                    "name": "",
                    "type": "bool"
                }
            ],
            "stateMutability": "view",
            "type": "function"
        },
        {
            "inputs": [],
            "name": "owner",
            "outputs": [
                {
                    "internalType": "address payable",
                    "name": "",
                    "type": "address"
                }
            ],
            "stateMutability": "view",
            "type": "function"
        },
        {
            "inputs": [
                {
                    "internalType": "address",
                    "name": "",
                    "type": "address"
                }
            ],
            "name": "padre",
            "outputs": [
                {
                    "internalType": "address",
                    "name": "",
                    "type": "address"
                }
            ],
            "stateMutability": "view",
            "type": "function"
        },
        {
            "inputs": [
                {
                    "internalType": "address",
                    "name": "_user",
                    "type": "address"
                },
                {
                    "internalType": "uint256",
                    "name": "_hand",
                    "type": "uint256"
                }
            ],
            "name": "personasBinary",
            "outputs": [
                {
                    "internalType": "uint256",
                    "name": "miTeam",
                    "type": "uint256"
                }
            ],
            "stateMutability": "view",
            "type": "function"
        },
        {
            "inputs": [],
            "name": "plan",
            "outputs": [
                {
                    "internalType": "uint256",
                    "name": "",
                    "type": "uint256"
                }
            ],
            "stateMutability": "view",
            "type": "function"
        },
        {
            "inputs": [],
            "name": "porcent",
            "outputs": [
                {
                    "internalType": "uint256",
                    "name": "",
                    "type": "uint256"
                }
            ],
            "stateMutability": "view",
            "type": "function"
        },
        {
            "inputs": [],
            "name": "porcentPuntosBinario",
            "outputs": [
                {
                    "internalType": "uint256",
                    "name": "",
                    "type": "uint256"
                }
            ],
            "stateMutability": "view",
            "type": "function"
        },
        {
            "inputs": [
                {
                    "internalType": "uint256",
                    "name": "",
                    "type": "uint256"
                }
            ],
            "name": "porcientoRegistro",
            "outputs": [
                {
                    "internalType": "uint256",
                    "name": "",
                    "type": "uint256"
                }
            ],
            "stateMutability": "view",
            "type": "function"
        },
        {
            "inputs": [
                {
                    "internalType": "uint256",
                    "name": "",
                    "type": "uint256"
                }
            ],
            "name": "porcientos",
            "outputs": [
                {
                    "internalType": "uint256",
                    "name": "",
                    "type": "uint256"
                }
            ],
            "stateMutability": "view",
            "type": "function"
        },
        {
            "inputs": [
                {
                    "internalType": "uint256",
                    "name": "",
                    "type": "uint256"
                }
            ],
            "name": "porcientosSalida",
            "outputs": [
                {
                    "internalType": "uint256",
                    "name": "",
                    "type": "uint256"
                }
            ],
            "stateMutability": "view",
            "type": "function"
        },
        {
            "inputs": [],
            "name": "precioRegistro",
            "outputs": [
                {
                    "internalType": "uint256",
                    "name": "",
                    "type": "uint256"
                }
            ],
            "stateMutability": "view",
            "type": "function"
        },
        {
            "inputs": [
                {
                    "internalType": "uint256",
                    "name": "",
                    "type": "uint256"
                }
            ],
            "name": "primervez",
            "outputs": [
                {
                    "internalType": "uint256",
                    "name": "",
                    "type": "uint256"
                }
            ],
            "stateMutability": "view",
            "type": "function"
        },
        {
            "inputs": [
                {
                    "internalType": "uint256",
                    "name": "",
                    "type": "uint256"
                }
            ],
            "name": "puntosRango",
            "outputs": [
                {
                    "internalType": "uint256",
                    "name": "",
                    "type": "uint256"
                }
            ],
            "stateMutability": "view",
            "type": "function"
        },
        {
            "inputs": [
                {
                    "internalType": "address",
                    "name": "",
                    "type": "address"
                },
                {
                    "internalType": "uint256",
                    "name": "",
                    "type": "uint256"
                }
            ],
            "name": "rangoReclamado",
            "outputs": [
                {
                    "internalType": "bool",
                    "name": "",
                    "type": "bool"
                }
            ],
            "stateMutability": "view",
            "type": "function"
        },
        {
            "inputs": [],
            "name": "redimBNB",
            "outputs": [],
            "stateMutability": "nonpayable",
            "type": "function"
        },
        {
            "inputs": [],
            "name": "redimToken",
            "outputs": [],
            "stateMutability": "nonpayable",
            "type": "function"
        },
        {
            "inputs": [
                {
                    "internalType": "address",
                    "name": "_sponsor",
                    "type": "address"
                },
                {
                    "internalType": "uint8",
                    "name": "_hand",
                    "type": "uint8"
                }
            ],
            "name": "registro",
            "outputs": [],
            "stateMutability": "nonpayable",
            "type": "function"
        },
        {
            "inputs": [
                {
                    "internalType": "address",
                    "name": "",
                    "type": "address"
                }
            ],
            "name": "retirableA",
            "outputs": [
                {
                    "internalType": "uint256",
                    "name": "",
                    "type": "uint256"
                }
            ],
            "stateMutability": "view",
            "type": "function"
        },
        {
            "inputs": [
                {
                    "internalType": "address",
                    "name": "",
                    "type": "address"
                }
            ],
            "name": "retirableB",
            "outputs": [
                {
                    "internalType": "uint256",
                    "name": "",
                    "type": "uint256"
                }
            ],
            "stateMutability": "view",
            "type": "function"
        },
        {
            "inputs": [
                {
                    "internalType": "uint256",
                    "name": "_descuento",
                    "type": "uint256"
                }
            ],
            "name": "setDescuento",
            "outputs": [],
            "stateMutability": "nonpayable",
            "type": "function"
        },
        {
            "inputs": [
                {
                    "internalType": "uint256",
                    "name": "_min",
                    "type": "uint256"
                }
            ],
            "name": "setMIN_RETIRO",
            "outputs": [],
            "stateMutability": "nonpayable",
            "type": "function"
        },
        {
            "inputs": [
                {
                    "internalType": "uint256",
                    "name": "_value",
                    "type": "uint256"
                }
            ],
            "name": "setPlan",
            "outputs": [],
            "stateMutability": "nonpayable",
            "type": "function"
        },
        {
            "inputs": [
                {
                    "internalType": "uint256",
                    "name": "_nivel",
                    "type": "uint256"
                },
                {
                    "internalType": "uint256",
                    "name": "_value",
                    "type": "uint256"
                }
            ],
            "name": "setPorcientos",
            "outputs": [],
            "stateMutability": "nonpayable",
            "type": "function"
        },
        {
            "inputs": [
                {
                    "internalType": "uint256",
                    "name": "_nivel",
                    "type": "uint256"
                },
                {
                    "internalType": "uint256",
                    "name": "_value",
                    "type": "uint256"
                }
            ],
            "name": "setPorcientosSalida",
            "outputs": [],
            "stateMutability": "nonpayable",
            "type": "function"
        },
        {
            "inputs": [
                {
                    "internalType": "uint256",
                    "name": "_precio",
                    "type": "uint256"
                },
                {
                    "internalType": "uint256[]",
                    "name": "_porcentaje",
                    "type": "uint256[]"
                }
            ],
            "name": "setPrecioRegistro",
            "outputs": [],
            "stateMutability": "nonpayable",
            "type": "function"
        },
        {
            "inputs": [
                {
                    "internalType": "uint256",
                    "name": "_nivel",
                    "type": "uint256"
                },
                {
                    "internalType": "uint256",
                    "name": "_value",
                    "type": "uint256"
                }
            ],
            "name": "setPrimeravezPorcientos",
            "outputs": [],
            "stateMutability": "nonpayable",
            "type": "function"
        },
        {
            "inputs": [
                {
                    "internalType": "address",
                    "name": "_wallet",
                    "type": "address"
                },
                {
                    "internalType": "uint256",
                    "name": "_fee",
                    "type": "uint256"
                },
                {
                    "internalType": "uint256",
                    "name": "_activerFee",
                    "type": "uint256"
                }
            ],
            "name": "setWalletFee",
            "outputs": [],
            "stateMutability": "nonpayable",
            "type": "function"
        },
        {
            "inputs": [
                {
                    "internalType": "address[]",
                    "name": "_wallets",
                    "type": "address[]"
                },
                {
                    "internalType": "uint256[]",
                    "name": "_valores",
                    "type": "uint256[]"
                }
            ],
            "name": "setWalletstransfers",
            "outputs": [],
            "stateMutability": "nonpayable",
            "type": "function"
        },
        {
            "inputs": [],
            "name": "setstate",
            "outputs": [
                {
                    "internalType": "uint256",
                    "name": "Investors",
                    "type": "uint256"
                },
                {
                    "internalType": "uint256",
                    "name": "Invested",
                    "type": "uint256"
                },
                {
                    "internalType": "uint256",
                    "name": "RefRewards",
                    "type": "uint256"
                }
            ],
            "stateMutability": "view",
            "type": "function"
        },
        {
            "inputs": [],
            "name": "tiempo",
            "outputs": [
                {
                    "internalType": "uint256",
                    "name": "",
                    "type": "uint256"
                }
            ],
            "stateMutability": "view",
            "type": "function"
        },
        {
            "inputs": [],
            "name": "timerOut",
            "outputs": [
                {
                    "internalType": "uint256",
                    "name": "",
                    "type": "uint256"
                }
            ],
            "stateMutability": "view",
            "type": "function"
        },
        {
            "inputs": [],
            "name": "tokenPricipal",
            "outputs": [
                {
                    "internalType": "address",
                    "name": "",
                    "type": "address"
                }
            ],
            "stateMutability": "view",
            "type": "function"
        },
        {
            "inputs": [],
            "name": "totalInvested",
            "outputs": [
                {
                    "internalType": "uint256",
                    "name": "",
                    "type": "uint256"
                }
            ],
            "stateMutability": "view",
            "type": "function"
        },
        {
            "inputs": [],
            "name": "totalInvestors",
            "outputs": [
                {
                    "internalType": "uint256",
                    "name": "",
                    "type": "uint256"
                }
            ],
            "stateMutability": "view",
            "type": "function"
        },
        {
            "inputs": [],
            "name": "totalRefRewards",
            "outputs": [
                {
                    "internalType": "uint256",
                    "name": "",
                    "type": "uint256"
                }
            ],
            "stateMutability": "view",
            "type": "function"
        },
        {
            "inputs": [],
            "name": "totalRefWitdrawl",
            "outputs": [
                {
                    "internalType": "uint256",
                    "name": "",
                    "type": "uint256"
                }
            ],
            "stateMutability": "view",
            "type": "function"
        },
        {
            "inputs": [
                {
                    "internalType": "address payable",
                    "name": "newOwner",
                    "type": "address"
                }
            ],
            "name": "transferOwnership",
            "outputs": [],
            "stateMutability": "nonpayable",
            "type": "function"
        },
        {
            "inputs": [],
            "name": "unidades",
            "outputs": [
                {
                    "internalType": "uint256",
                    "name": "",
                    "type": "uint256"
                }
            ],
            "stateMutability": "view",
            "type": "function"
        },
        {
            "inputs": [
                {
                    "internalType": "uint256",
                    "name": "",
                    "type": "uint256"
                }
            ],
            "name": "valor",
            "outputs": [
                {
                    "internalType": "uint256",
                    "name": "",
                    "type": "uint256"
                }
            ],
            "stateMutability": "view",
            "type": "function"
        },
        {
            "inputs": [],
            "name": "valorFee",
            "outputs": [
                {
                    "internalType": "uint256",
                    "name": "",
                    "type": "uint256"
                }
            ],
            "stateMutability": "view",
            "type": "function"
        },
        {
            "inputs": [
                {
                    "internalType": "uint256",
                    "name": "",
                    "type": "uint256"
                }
            ],
            "name": "wallet",
            "outputs": [
                {
                    "internalType": "address",
                    "name": "",
                    "type": "address"
                }
            ],
            "stateMutability": "view",
            "type": "function"
        },
        {
            "inputs": [],
            "name": "walletFee",
            "outputs": [
                {
                    "internalType": "address",
                    "name": "",
                    "type": "address"
                }
            ],
            "stateMutability": "view",
            "type": "function"
        },
        {
            "inputs": [
                {
                    "internalType": "uint256",
                    "name": "",
                    "type": "uint256"
                }
            ],
            "name": "walletRegistro",
            "outputs": [
                {
                    "internalType": "address",
                    "name": "",
                    "type": "address"
                }
            ],
            "stateMutability": "view",
            "type": "function"
        },
        {
            "inputs": [],
            "name": "withdraw",
            "outputs": [],
            "stateMutability": "nonpayable",
            "type": "function"
        },
        {
            "inputs": [
                {
                    "internalType": "address",
                    "name": "any_user",
                    "type": "address"
                }
            ],
            "name": "withdrawable",
            "outputs": [
                {
                    "internalType": "uint256",
                    "name": "",
                    "type": "uint256"
                }
            ],
            "stateMutability": "view",
            "type": "function"
        },
        {
            "inputs": [
                {
                    "internalType": "address",
                    "name": "any_user",
                    "type": "address"
                }
            ],
            "name": "withdrawableBinary",
            "outputs": [
                {
                    "internalType": "uint256",
                    "name": "left",
                    "type": "uint256"
                },
                {
                    "internalType": "uint256",
                    "name": "rigth",
                    "type": "uint256"
                },
                {
                    "internalType": "uint256",
                    "name": "amount",
                    "type": "uint256"
                }
            ],
            "stateMutability": "view",
            "type": "function"
        },
        {
            "inputs": [
                {
                    "internalType": "address",
                    "name": "any_user",
                    "type": "address"
                }
            ],
            "name": "withdrawableRange",
            "outputs": [
                {
                    "internalType": "uint256",
                    "name": "amount",
                    "type": "uint256"
                }
            ],
            "stateMutability": "view",
            "type": "function"
        },
        {
            "stateMutability": "payable",
            "type": "receive"
        }
    ],
    "bytecode": "600480547355d398326f99059ff775485246999027b31979556001600160a01b03199182161791829055600580546001600160a01b0390931692821683179055678ac7230489e8000060095568a2a15d09519be00000600a5568015af1d78b58c40000600c55600d805490911690911790556001600e81905560a0604052605060809081526200009391600f919062000638565b50604080516020810190915260288152620000b390601090600162000638565b506040805160a081018252601481526005602082018190529181018290526060810182905260808101829052620000ee916011919062000638565b506040805161018081018252600080825260208201819052918101829052606081018290526080810182905260a0810182905260c0810182905260e081018290526101008101829052610120810182905261014081018290526101608101919091526200016090601290600c6200068d565b50604080516101a081018252678ac7230489e8000081526801158e460913d00000602082015268022b1c8c1227a000009181019190915268056bc75e2d631000006060820152680ad78ebc5ac620000060808201526815af1d78b58c40000060a0820152683635c9adc5dea0000060c0820152686c6b935b8bbd40000060e082015268d8d726b7177a80000061010082015269010f0cf064dd5920000061012082015269021e19e0c9bab240000061014082015269043c33c1937564800000610160820152690a968163f0a57b4000006101808201526200024690601390600d62000734565b50604080516101a0810182526806c6b935b8bbd400008152680d8d726b7177a800006020820152681b1ae4d6e2ef500000918101919091526843c33c193756480000606082015268878678326eac900000608082015269010f0cf064dd5920000060a08201526902a5a058fc295ed0000060c082015269054b40b1f852bda0000060e0820152690a968163f0a57b400000610100820152691a784379d99db42000006101208201526934f086f3b33b684000006101408201526969e10de76676d08000006101608201526a0108b2a2c28029094000006101808201526200033290601490600d6200077d565b506015805460ff191660019081179091556103e860165562015180601781905560185560c8601955601a8190556002601b819055600a601c55601d819055605c601e55601f8290556028919091556004602955602a80546001600160a01b03191673df835cb0935fdbc51bbf730599b57b21815441dd908117909155604080518082019091529081527352f77b3283c5627fdd827ef62a32d9e90910a6b56020820152620003e491602b9190620007c6565b50678ac7230489e80000602c5560408051808201909152603280825260208201526200041590602d90600262000638565b506002602e556040805160608101825273df835cb0935fdbc51bbf730599b57b21815441dd81527352f77b3283c5627fdd827ef62a32d9e90910a6b56020820152736bd8c114dde23c9d543e1974822646ee840b7d33918101919091526200048290602f906003620007c6565b506040805160608101825260058082526020820152604191810191909152620004b090603090600362000638565b50348015620004be57600080fd5b50620004c962000634565b600080546001600160a01b0319166001600160a01b0392909216919091178155600190600290620004f962000634565b6001600160a01b0316815260208101919091526040016000908120805460ff1916921515929092179091556001906003906200053462000634565b6001600160a01b03908116825260208083019390935260409182016000908120805495151560ff199687161790558054909116815260239092528120805490921660011782556012906027906200058a62000634565b6001600160a01b0316815260208101919091526040016000208154620005b192906200081e565b50620005bc62000634565b600080805260256020527fa54b3e90672405a607381bd4d34034a12c5aad31607067a7ad26573f504ad6e280546001600160a01b0319166001600160a01b0393909316929092179091556026816200061362000634565b6001600160a01b031681526020810191909152604001600020555062000886565b3390565b8280548282559060005260206000209081019282156200067b579160200282015b828111156200067b578251829060ff1690559160200191906001019062000659565b50620006899291506200086f565b5090565b82805482825590600052602060002090601f016020900481019282156200067b5791602002820160005b83821115620006f657835183826101000a81548160ff0219169083151502179055509260200192600101602081600001049283019260010302620006b7565b8015620007255782816101000a81549060ff0219169055600101602081600001049283019260010302620006f6565b5050620006899291506200086f565b8280548282559060005260206000209081019282156200067b579160200282015b828111156200067b57825182906001600160501b031690559160200191906001019062000755565b8280548282559060005260206000209081019282156200067b579160200282015b828111156200067b57825182906001600160581b03169055916020019190600101906200079e565b8280548282559060005260206000209081019282156200067b579160200282015b828111156200067b57825182546001600160a01b0319166001600160a01b03909116178255602090920191600190910190620007e7565b82805482825590600052602060002090601f016020900481019282156200067b57600052602060002091601f016020900482015b828111156200067b57825482559160010191906001019062000852565b5b8082111562000689576000815560010162000870565b615eda80620008966000396000f3fe6080604052600436106104e55760003560e01c80637b0412ed11610281578063aaf880521161015a578063bfe0e020116100cc578063d877186911610085578063d877186914610ece578063e7348e8c14610ee3578063e760e99c14610ef8578063ee1934bc14610f18578063f2fde38b14610f2d578063fd14d59814610f4d576104ec565b8063bfe0e02014610e24578063c14b836114610e39578063c2307ee614610e59578063c7c1dd8114610e6e578063cb0e0d7d14610e8e578063ce513b6f14610eae576104ec565b8063aec688941161011e578063aec6889414610d85578063b139042614610d9a578063b17b6e4414610daf578063b35f0a8f14610dcf578063b3d9fa0914610def578063bd9bee1914610e0f576104ec565b8063aaf8805214610cfb578063ab4cc14714610d1b578063ab6db19914610d3b578063ac557f6614610d50578063ac713a0b14610d65576104ec565b80638da5cb5b116101f3578063a2781335116101b7578063a278133514610c46578063a2add0aa14610c66578063a77d211914610c86578063a80b223b14610c9b578063a8beb71714610cbb578063a95b4df914610cdb576104ec565b80638da5cb5b14610bd257806396600ed214610be757806398c07d0a14610bfc5780639b8ff50314610c1c5780639e414b7c14610c31576104ec565b806381032892116102455780638103289214610b0e5780638239e8df14610b2e5780638321a1b214610b4e578063833a2a4514610b6e57806385338e2014610b8e578063877f9b9114610bb2576104ec565b80637b0412ed14610a825780637d7b009914610a975780637db9e9c614610aac5780637faee04714610ac15780637fcc1e3614610ae1576104ec565b806346e512a7116103be5780635d216c60116103305780636c529279116102e95780636c529279146109ab5780636f7bc9be146109c057806370a0966b146109f5578063725fc27014610a155780637367b08014610a3557806376d1158d14610a62576104ec565b80635d216c60146108e4578063625509161461090457806363a846f814610924578063664e62b91461094457806369ed1e0a1461097657806369f4a84b14610996576104ec565b80635216aeec116103825780635216aeec1461083a57806353e065711461084f5780635482252214610864578063555452c114610884578063586e04e1146108a45780635a090c2d146108c4576104ec565b806346e512a7146107bb5780634728f718146107db5780634b9b8203146107f05780634de1be621461080557806350188c0814610825576104ec565b806322c0a574116104575780632acc82101161041b5780632acc82101461070a578063313e70ee1461072a57806331f139e81461073f578063348d44871461075f5780633ccfd60b1461077457806345be691e14610789576104ec565b806322c0a5741461066857806322fc77cb1461068857806328cca719146106a857806329b8caff146106c85780632a2d0c47146106dd576104ec565b806317b11e78116104a957806317b11e78146105b35780631800df1b146105c85780631ce7f99b146105e85780631e403c351461060857806321309f21146106285780632183e2a014610648576104ec565b806301288c71146104ee5780630a33879e1461052457806312730daf1461054657806315e8392b14610566578063160e8d6014610593576104ec565b366104ec57005b005b3480156104fa57600080fd5b5061050e6105093660046152b8565b610f62565b60405161051b919061586e565b60405180910390f35b34801561053057600080fd5b50610539610f77565b60405161051b9190615920565b34801561055257600080fd5b506104ec610561366004615386565b610f7d565b34801561057257600080fd5b5061058661058136600461531a565b610fae565b60405161051b9190615798565b34801561059f57600080fd5b506104ec6105ae3660046152b8565b611053565b3480156105bf57600080fd5b506105396110d8565b3480156105d457600080fd5b506104ec6105e33660046152b8565b6110de565b3480156105f457600080fd5b50610586610603366004615439565b611108565b34801561061457600080fd5b506104ec6106233660046156a1565b6111f2565b34801561063457600080fd5b50610539610643366004615637565b61122c565b34801561065457600080fd5b506104ec6106633660046153ba565b61124d565b34801561067457600080fd5b50610539610683366004615637565b61136f565b34801561069457600080fd5b506105396106a33660046152b8565b61137f565b3480156106b457600080fd5b506105396106c3366004615637565b611391565b3480156106d457600080fd5b506105396113a1565b3480156106e957600080fd5b506106fd6106f8366004615637565b6113a7565b60405161051b919061572d565b34801561071657600080fd5b5061050e61072536600461531a565b6113c2565b34801561073657600080fd5b50610539611405565b34801561074b57600080fd5b5061053961075a3660046152b8565b61140b565b34801561076b57600080fd5b5061053961141d565b34801561078057600080fd5b506104ec611423565b34801561079557600080fd5b506107a96107a436600461531a565b61186f565b60405161051b9695949392919061593f565b3480156107c757600080fd5b506105396107d6366004615637565b611933565b3480156107e757600080fd5b50610539611943565b3480156107fc57600080fd5b50610539611949565b34801561081157600080fd5b506104ec610820366004615637565b61194f565b34801561083157600080fd5b5061053961195c565b34801561084657600080fd5b5061053961197a565b34801561085b57600080fd5b50610539611980565b34801561087057600080fd5b506104ec61087f3660046156a1565b611986565b34801561089057600080fd5b5061058661089f36600461531a565b6119b0565b3480156108b057600080fd5b506104ec6108bf366004615667565b611aa3565b3480156108d057600080fd5b506104ec6108df366004615386565b611ac8565b3480156108f057600080fd5b506104ec6108ff3660046156a1565b611b5e565b34801561091057600080fd5b5061053961091f366004615637565b611b88565b34801561093057600080fd5b5061050e61093f3660046152b8565b611b98565b34801561095057600080fd5b5061096461095f3660046152b8565b611bad565b60405161051b9695949392919061580b565b34801561098257600080fd5b506104ec6109913660046152b8565b611df7565b3480156109a257600080fd5b506104ec611e6a565b3480156109b757600080fd5b5061053961207f565b3480156109cc57600080fd5b506109e06109db3660046152b8565b612085565b60405161051b99989796959493929190615879565b348015610a0157600080fd5b506104ec610a103660046152b8565b612126565b348015610a2157600080fd5b50610539610a30366004615637565b612196565b348015610a4157600080fd5b50610a55610a5036600461553f565b6121a6565b60405161051b91906157f8565b348015610a6e57600080fd5b506104ec610a7d3660046152d4565b61227a565b348015610a8e57600080fd5b506105396125db565b348015610aa357600080fd5b506106fd6125e1565b348015610ab857600080fd5b506105396125f0565b348015610acd57600080fd5b50610586610adc366004615439565b6125f6565b348015610aed57600080fd5b50610b01610afc36600461550d565b6127fb565b60405161051b91906157e5565b348015610b1a57600080fd5b50610539610b29366004615637565b6128d4565b348015610b3a57600080fd5b506104ec610b493660046155a9565b6128e4565b348015610b5a57600080fd5b506104ec610b693660046152d4565b612978565b348015610b7a57600080fd5b5061050e610b89366004615637565b61298b565b348015610b9a57600080fd5b50610ba36129bf565b60405161051b93929190615929565b348015610bbe57600080fd5b506104ec610bcd366004615345565b6129cd565b348015610bde57600080fd5b506106fd6129f0565b348015610bf357600080fd5b506105396129ff565b348015610c0857600080fd5b50610539610c173660046152b8565b612a05565b348015610c2857600080fd5b50610539612c74565b348015610c3d57600080fd5b506104ec612c7a565b348015610c5257600080fd5b506106fd610c61366004615637565b612d81565b348015610c7257600080fd5b506104ec610c81366004615637565b612dab565b348015610c9257600080fd5b50610539612db8565b348015610ca757600080fd5b506104ec610cb6366004615637565b612dbe565b348015610cc757600080fd5b506104ec610cd636600461546b565b613049565b348015610ce757600080fd5b50610ba3610cf63660046152b8565b613078565b348015610d0757600080fd5b50610539610d1636600461531a565b613414565b348015610d2757600080fd5b50610539610d363660046152b8565b613c23565b348015610d4757600080fd5b50610539613c35565b348015610d5c57600080fd5b506106fd613c3b565b348015610d7157600080fd5b506104ec610d803660046152b8565b613c4a565b348015610d9157600080fd5b50610539613cd5565b348015610da657600080fd5b506106fd613cdb565b348015610dbb57600080fd5b506104ec610dca366004615571565b613cea565b348015610ddb57600080fd5b506106fd610dea3660046152b8565b613d05565b348015610dfb57600080fd5b506104ec610e0a366004615637565b613d20565b348015610e1b57600080fd5b50610539613d2d565b348015610e3057600080fd5b50610539613d33565b348015610e4557600080fd5b506104ec610e54366004615405565b613d39565b348015610e6557600080fd5b50610539613f1f565b348015610e7a57600080fd5b506106fd610e89366004615637565b613f25565b348015610e9a57600080fd5b50610539610ea93660046152b8565b613f35565b348015610eba57600080fd5b50610539610ec93660046152b8565b613f47565b348015610eda57600080fd5b506105396141e4565b348015610eef57600080fd5b5061050e6141ea565b348015610f0457600080fd5b506106fd610f133660046154cb565b6141f3565b348015610f2457600080fd5b50610539614812565b348015610f3957600080fd5b506104ec610f483660046152b8565b614818565b348015610f5957600080fd5b506104ec6148bd565b60036020526000908152604090205460ff1681565b600b5481565b610f856148ff565b602a80546001600160a01b0319166001600160a01b039490941693909317909255602955602e55565b60608060005b8381101561104957610fc582611108565b6001600160a01b038087166000908152602460205260409020548251929450169083908390811061100657634e487b7160e01b600052603260045260246000fd5b6001600160a01b0392831660209182029290920181019190915295811660009081526024909652604090952054909416938061104181615c42565b915050610fb4565b5090505b92915050565b61105b6148ff565b6001600160a01b03811661106e57600080fd5b6040516001600160a01b038216907fa3b62bc36326052d97ea62d63c3d60308ed4c3ea8ac079dd8499f1e9c4f80c0f90600090a26001600160a01b03166000908152600360209081526040808320805460ff19908116909155600290925290912080549091169055565b601b5481565b6110e66148ff565b600180546001600160a01b0319166001600160a01b0392909216919091179055565b606060008251600161111a9190615a5b565b6001600160401b0381111561113f57634e487b7160e01b600052604160045260246000fd5b604051908082528060200260200182016040528015611168578160200160208202803683370190505b50905060005b83518110156111e95783818151811061119757634e487b7160e01b600052603260045260246000fd5b60200260200101518282815181106111bf57634e487b7160e01b600052603260045260246000fd5b6001600160a01b0390921660209283029190910190910152806111e181615c42565b91505061116e565b5090505b919050565b6111fa6148ff565b806010838154811061121c57634e487b7160e01b600052603260045260246000fd5b6000918252602090912001555050565b6014818154811061123c57600080fd5b600091825260209091200154905081565b611255614928565b841580159061126357508315155b15611301576001600160a01b0386166000908152602360205260409020848610156112c6578581600b01600001600082825461129f9190615a5b565b9091555050600e810180548791906000906112bb908490615a5b565b909155506112ff9050565b8481600b0160000160008282546112dd9190615a5b565b9091555050600e810180548691906000906112f9908490615a5b565b90915550505b505b8215611323576001600160a01b03861660009081526006602052604090208390555b8115611345576001600160a01b03861660009081526007602052604090208290555b8015611367576001600160a01b03861660009081526008602052604090208190555b505050505050565b6011818154811061123c57600080fd5b60076020526000908152604090205481565b6010818154811061123c57600080fd5b601f5481565b6025602052600090815260409020546001600160a01b031681565b602760205281600052604060002081815481106113de57600080fd5b9060005260206000209060209182820401919006915091509054906101000a900460ff1681565b600a5481565b60086020526000908152604090205481565b60285481565b60155460ff1661143257600080fd5b60006006600061144061494a565b6001600160a01b039081168252602082019290925260409081016000205460055491516370a0823160e01b8152909350839291909116906370a082319061148b90309060040161572d565b60206040518083038186803b1580156114a357600080fd5b505afa1580156114b7573d6000803e3d6000fd5b505050506040513d601f19601f820116820180604052508101906114db919061564f565b10156114e657600080fd5b6009548110156114f557600080fd5b60006023600061150361494a565b6001600160a01b03166001600160a01b0316815260200190815260200160002090504260185482600501546115389190615a5b565b111561154357600080fd5b818160070160008282546115579190615a5b565b9091555050600a5482111561158f57600a546115739083615ab2565b600b60008282546115849190615a5b565b9091555050600a5491505b6001602e541061163f57600554602a546029546001600160a01b039283169263a9059cbb9216906115ce906064906115c890889061494e565b90614987565b6040518363ffffffff1660e01b81526004016115eb929190615741565b602060405180830381600087803b15801561160557600080fd5b505af1158015611619573d6000803e3d6000fd5b505050506040513d601f19601f8201168201806040525081019061163d919061558d565b505b6005546001600160a01b031663a9059cbb61165861494a565b61167260646115c8601e548861494e90919063ffffffff16565b6040518363ffffffff1660e01b815260040161168f929190615741565b602060405180830381600087803b1580156116a957600080fd5b505af11580156116bd573d6000803e3d6000fd5b505050506040513d601f19601f820116820180604052508101906116e1919061558d565b506117466116ed61494a565b83601180548060200260200160405190810160405280929190818152602001828054801561173a57602002820191906000526020600020905b815481526020019060010190808311611726575b505050505060016149a9565b61178361175161494a565b6007600061175d61494a565b6001600160a01b03166001600160a01b0316815260200190815260200160002054614c6e565b8060060154821061179a57600060068201556117af565b60068101546117a99083614d27565b60068201555b426005820155600060018201819055600282018190556006906117d061494a565b6001600160a01b03166001600160a01b03168152602001908152602001600020600090556007600061180061494a565b6001600160a01b03166001600160a01b03168152602001908152602001600020600090556008600061183061494a565b6001600160a01b03166001600160a01b031681526020019081526020016000206000905581602260008282546118669190615a5b565b90915550505050565b6001600160a01b038216600090815260236020526040812081908190819081908190600b8101886118e0576118a48a8a613414565b6001820154825460048501546118ba8e8e6119b0565b51600290950154939b50919950975095509093506001600160a01b031691506119299050565b6118ea8a8a613414565b8160040154826003015484600401546119038e8e6119b0565b51600590950154939b50919950975095509093506001600160a01b031691506119299050565b9295509295509295565b602d818154811061123c57600080fd5b60195481565b60175481565b6119576148ff565b600955565b600061197560175460165461494e90919063ffffffff16565b905090565b60205481565b600c5481565b61198e6148ff565b80600f838154811061121c57634e487b7160e01b600052603260045260246000fd5b606081611a2e576001600160a01b03831660009081526023602090815260409182902060080180548351818402810184019094528084529091830182828015611a2257602002820191906000526020600020905b81546001600160a01b03168152600190910190602001808311611a04575b5050505050905061104d565b6001600160a01b03831660009081526023602090815260409182902060090180548351818402810184019094528084529091830182828015611a22576020028201919060005260206000209081546001600160a01b03168152600190910190602001808311611a04575050505050905061104d565b611aab6148ff565b602c8290558051611ac390602d906020840190614f22565b505050565b611ad0614d42565b6001600160a01b0383166000908152602360205260409020805460ff16611b125760405162461bcd60e51b8152600401611b0990615903565b60405180910390fd5b8215611b35578281600b016001016000828254611b2f9190615a5b565b90915550505b8115611b58578181600b016004016000828254611b529190615a5b565b90915550505b50505050565b611b666148ff565b806011838154811061121c57634e487b7160e01b600052603260045260246000fd5b6030818154811061123c57600080fd5b60026020526000908152604090205460ff1681565b6001600160a01b03811660009081526023602052604081206060918291829182918190838080808580805b600a880154811015611de157611bed876121a6565b9650611bf8866121a6565b9550611c03856127fb565b9450611c0e846127fb565b9350600088600a018281548110611c3557634e487b7160e01b600052603260045260246000fd5b906000526020600020906004020190508060000154878381518110611c6a57634e487b7160e01b600052603260045260246000fd5b6020026020010181815250506000611c8061195c565b8254611c8c9190615a5b565b9050600082600001548b6005015411611ca6578254611cac565b8a600501545b90506000824211611cbd5742611cbf565b825b90508115801590611ccf57508082105b15611d4c57600384015460ff1615611d1957611ce961195c565b611cf38383615ab2565b8560010154611d029190615a93565b611d0c9190615a73565b611d169088615a5b565b96505b6001888681518110611d3b57634e487b7160e01b600052603260045260246000fd5b911515602092830291909101909101525b83600101548b8681518110611d7157634e487b7160e01b600052603260045260246000fd5b60209081029190910101526003840154895160ff909116908a9087908110611da957634e487b7160e01b600052603260045260246000fd5b911515602092830291909101909101526002840154611dc89087615a5b565b9550505050508080611dd990615c42565b915050611bd8565b50949d939c50919a509850965090945092505050565b611dff6148ff565b6001600160a01b038116611e1257600080fd5b6040516001600160a01b038216907f71614071b88dee5e0b2ae578a9dd7b2ebbe9ae832ba419dc0242cd065a290b6c90600090a26001600160a01b03166000908152600260205260409020805460ff19166001179055565b60155460ff16611e7957600080fd5b6000611e86610c1761494a565b905060005b60135481101561207b5760148181548110611eb657634e487b7160e01b600052603260045260246000fd5b90600052602060002001548210158015611f38575060276000611ed761494a565b6001600160a01b03166001600160a01b031681526020019081526020016000208181548110611f1657634e487b7160e01b600052603260045260246000fd5b90600052602060002090602091828204019190069054906101000a900460ff16155b15612069576005546001600160a01b031663a9059cbb611f5661494a565b60138481548110611f7757634e487b7160e01b600052603260045260246000fd5b90600052602060002001546040518363ffffffff1660e01b8152600401611f9f929190615741565b602060405180830381600087803b158015611fb957600080fd5b505af1158015611fcd573d6000803e3d6000fd5b505050506040513d601f19601f82011682018060405250810190611ff1919061558d565b5060016027600061200061494a565b6001600160a01b03166001600160a01b03168152602001908152602001600020828154811061203f57634e487b7160e01b600052603260045260246000fd5b90600052602060002090602091828204019190066101000a81548160ff0219169083151502179055505b8061207381615c42565b915050611e8b565b5050565b60095481565b602360209081526000918252604091829020805460018201546002830154600384015460048501546005860154600687015460078801548a5160c081018c52600b8a01548152600c8a01549a81019a909a52600d8901546001600160a01b039081169b8b019b909b52600e89015460608b0152600f89015460808b015260109098015490991660a089015260ff909516979396929591949093909290919089565b61212e6148ff565b6001600160a01b03811661214157600080fd5b6040516001600160a01b038216907fa3b62bc36326052d97ea62d63c3d60308ed4c3ea8ac079dd8499f1e9c4f80c0f90600090a26001600160a01b03166000908152600260205260409020805460ff19169055565b600f818154811061123c57600080fd5b60606000825160016121b89190615a5b565b6001600160401b038111156121dd57634e487b7160e01b600052604160045260246000fd5b604051908082528060200260200182016040528015612206578160200160208202803683370190505b50905060005b83518110156111e95783818151811061223557634e487b7160e01b600052603260045260246000fd5b602002602001015182828151811061225d57634e487b7160e01b600052603260045260246000fd5b60209081029190910101528061227281615c42565b91505061220c565b60018160ff16111561228b57600080fd5b6001600160a01b03831660009081526023602052604090206007810154156122b257600080fd5b805460ff191660011781556001600160a01b03808516600090815260246020526040902080549185166001600160a01b03199092168217905515612529576001600160a01b038316600090815260236020526040902060ff831661241e57600881018054600181018255600091825260209091200180546001600160a01b0319166001600160a01b0387811691909117909155600d8201541661237157600d810180546001600160a01b0319166001600160a01b038716179055612419565b606061237c81611108565b600d83015481519192506001600160a01b03169082906000906123af57634e487b7160e01b600052603260045260246000fd5b60200260200101906001600160a01b031690816001600160a01b031681525050602360006123e0838760ff166141f3565b6001600160a01b0390811682526020820192909252604001600020600d810180546001600160a01b031916928916929092179091559150505b612527565b600981018054600181018255600091825260209091200180546001600160a01b0319166001600160a01b038781169190911790915560108201541661247f576010810180546001600160a01b0319166001600160a01b038716179055612527565b606061248a81611108565b601083015481519192506001600160a01b03169082906000906124bd57634e487b7160e01b600052603260045260246000fd5b60200260200101906001600160a01b031690816001600160a01b031681525050602360006124ee838760ff166141f3565b6001600160a01b03908116825260208201929092526040016000206010810180546001600160a01b031916928916929092179091559150505b505b601f805490600061253983615c42565b90915550506028546000908152602560205260409020546001600160a01b0316611b58576001600160a01b038416600090815260276020526040902060128054612584929190614f6d565b5060288054600090815260256020908152604080832080546001600160a01b0319166001600160a01b038a1690811790915584549084526026909252822081905591906125d083615c42565b919050555050505050565b601e5481565b6001546001600160a01b031681565b602c5481565b60606000805b83518110156127f3576023600085838151811061262957634e487b7160e01b600052603260045260246000fd5b6020908102919091018101516001600160a01b039081168352908201929092526040016000908120600d810154601082015491955083169216905b865181101561270b5786818151811061268d57634e487b7160e01b600052603260045260246000fd5b60200260200101516001600160a01b0316836001600160a01b031614156126b357600092505b8681815181106126d357634e487b7160e01b600052603260045260246000fd5b60200260200101516001600160a01b0316826001600160a01b031614156126f957600091505b8061270381615c42565b915050612664565b506001600160a01b038216156127755761272486611108565b95508186600188516127369190615ab2565b8151811061275457634e487b7160e01b600052603260045260246000fd5b60200260200101906001600160a01b031690816001600160a01b0316815250505b6001600160a01b038116156127de5761278d86611108565b955080866001885161279f9190615ab2565b815181106127bd57634e487b7160e01b600052603260045260246000fd5b60200260200101906001600160a01b031690816001600160a01b0316815250505b505080806127eb90615c42565b9150506125fc565b509192915050565b606060008251600161280d9190615a5b565b6001600160401b0381111561283257634e487b7160e01b600052604160045260246000fd5b60405190808252806020026020018201604052801561285b578160200160208202803683370190505b50905060005b83518110156111e95783818151811061288a57634e487b7160e01b600052603260045260246000fd5b60200260200101518282815181106128b257634e487b7160e01b600052603260045260246000fd5b91151560209283029190910190910152806128cc81615c42565b915050612861565b6013818154811061123c57600080fd5b6128ec614928565b6001600160a01b0384166000908152602760209081526040909120835161291592850190614fbb565b50600083815260256020908152604080832080546001600160a01b0319166001600160a01b0389169081179091558352602682528083208690556023909152902085906129628282615d45565b90505061297184826001614d74565b5050505050565b612980614f16565b611ac383838361227a565b6012818154811061299b57600080fd5b9060005260206000209060209182820401919006915054906101000a900460ff1681565b601f54602054602154909192565b6129d5614f16565b81600c546129e39190615a93565b9150611ac3838383614d74565b6000546001600160a01b031681565b60295481565b6001600160a01b0381166000908152602360209081526040808320815161018081018352815460ff16151581526001820154818501526002820154818401526003820154606082015260048201546080820152600582015460a0820152600682015460c0820152600782015460e08201526008820180548451818702810187019095528085528695929461010086019390929190830182828015612ad257602002820191906000526020600020905b81546001600160a01b03168152600190910190602001808311612ab4575b5050505050815260200160098201805480602002602001604051908101604052809291908181526020018280548015612b3457602002820191906000526020600020905b81546001600160a01b03168152600190910190602001808311612b16575b50505050508152602001600a8201805480602002602001604051908101604052809291908181526020016000905b82821015612bbb576000848152602090819020604080516080810182526004860290920180548352600180820154848601526002820154928401929092526003015460ff16151560608301529083529092019101612b62565b505050908252506040805160c081018252600b8401548152600c840154602082810191909152600d8501546001600160a01b0390811693830193909352600e8501546060830152600f850154608083015260109094015490911660a082015290820152610160820151805191015191925090612c379082615a5b565b610160830151606081015160809091015191925090612c569082615a5b565b905080821015612c6857819350612c6c565b8093505b505050919050565b60225481565b612c826148ff565b6005546000546040516370a0823160e01b81526001600160a01b039283169263a9059cbb92169083906370a0823190612cbf90309060040161572d565b60206040518083038186803b158015612cd757600080fd5b505afa158015612ceb573d6000803e3d6000fd5b505050506040513d601f19601f82011682018060405250810190612d0f919061564f565b6040518363ffffffff1660e01b8152600401612d2c929190615741565b602060405180830381600087803b158015612d4657600080fd5b505af1158015612d5a573d6000803e3d6000fd5b505050506040513d601f19601f82011682018060405250810190612d7e919061558d565b50565b602f8181548110612d9157600080fd5b6000918252602090912001546001600160a01b0316905081565b612db36148ff565b600c55565b600e5481565b80600c54612dcc9190615a93565b90508060206000828254612de09190615a5b565b909155505060055481906001600160a01b031663dd62ed3e612e0061494a565b306040518363ffffffff1660e01b8152600401612e1e92919061575a565b60206040518083038186803b158015612e3657600080fd5b505afa158015612e4a573d6000803e3d6000fd5b505050506040513d601f19601f82011682018060405250810190612e6e919061564f565b1015612e7957600080fd5b6005546001600160a01b03166323b872dd612e9261494a565b30846040518463ffffffff1660e01b8152600401612eb293929190615774565b602060405180830381600087803b158015612ecc57600080fd5b505af1158015612ee0573d6000803e3d6000fd5b505050506040513d601f19601f82011682018060405250810190612f04919061558d565b612f0d57600080fd5b60005b602f5481101561303557600554602f80546001600160a01b039092169163a9059cbb919084908110612f5257634e487b7160e01b600052603260045260246000fd5b9060005260206000200160009054906101000a90046001600160a01b0316612fb360646115c860308781548110612f9957634e487b7160e01b600052603260045260246000fd5b90600052602060002001548861494e90919063ffffffff16565b6040518363ffffffff1660e01b8152600401612fd0929190615741565b602060405180830381600087803b158015612fea57600080fd5b505af1158015612ffe573d6000803e3d6000fd5b505050506040513d601f19601f82011682018060405250810190613022919061558d565b508061302d81615c42565b915050612f10565b50612d7e61304161494a565b826001614d74565b6130516148ff565b815161306490602f90602085019061505b565b508051611ac3906030906020840190614f22565b6001600160a01b038082166000908152602360205260408120600d8101549192839283929116156131a05760606130ae81611108565b600d83015481519192506001600160a01b03169082906000906130e157634e487b7160e01b600052603260045260246000fd5b60200260200101906001600160a01b031690816001600160a01b03168152505061310a816125f6565b905060005b815181101561319d576023600083838151811061313c57634e487b7160e01b600052603260045260246000fd5b60200260200101516001600160a01b03166001600160a01b03168152602001908152602001600020925061317f601b54846004015461498790919063ffffffff16565b6131899087615a5b565b95508061319581615c42565b91505061310f565b50505b506001600160a01b0384166000908152602360205260409020600c8101546131c89085615a5b565b600b8201549094506131da9085615ab2565b60108201549094506001600160a01b0316156132f35760606131fb81611108565b601083015481519192506001600160a01b031690829060009061322e57634e487b7160e01b600052603260045260246000fd5b60200260200101906001600160a01b031690816001600160a01b031681525050613257816125f6565b905060005b81518110156132f0576023600083838151811061328957634e487b7160e01b600052603260045260246000fd5b60200260200101516001600160a01b03166001600160a01b0316815260200190815260200160002092506132d2601b546115c8601a54866004015461494e90919063ffffffff16565b6132dc9086615a5b565b9450806132e881615c42565b91505061325c565b50505b506001600160a01b0384166000908152602360205260409020600f81015461331b9084615a5b565b600e82015490935061332d9084615ab2565b9250601d5461333d8660016119b0565b516133498760006119b0565b516133549190615a5b565b1061340c57828410156133bf57806006015461338060646115c8601c548861494e90919063ffffffff16565b116133b2576133ab60646115c8601a546133a5601c548961494e90919063ffffffff16565b9061494e565b91506133ba565b806006015491505b61340c565b80600601546133de60646115c8601c548761494e90919063ffffffff16565b11613404576133fd60646115c8601c548661494e90919063ffffffff16565b915061340c565b806006015491505b509193909250565b6001600160a01b0382166000908152602360209081526040808320815161018081018352815460ff16151581526001820154818501526002820154818401526003820154606082015260048201546080820152600582015460a0820152600682015460c0820152600782015460e082015260088201805484518187028101870190955280855286959294610100860193909291908301828280156134e157602002820191906000526020600020905b81546001600160a01b031681526001909101906020018083116134c3575b505050505081526020016009820180548060200260200160405190810160405280929190818152602001828054801561354357602002820191906000526020600020905b81546001600160a01b03168152600190910190602001808311613525575b50505050508152602001600a8201805480602002602001604051908101604052809291908181526020016000905b828210156135ca576000848152602090819020604080516080810182526004860290920180548352600180820154848601526002820154928401929092526003015460ff16151560608301529083529092019101613571565b505050908252506040805160c081018252600b8401548152600c840154602082810191909152600d8501546001600160a01b0390811693830193909352600e8501546060830152600f850154608083015260109094015490911660a082015291015290508261392a57610160810151604001516001600160a01b03161561392557606061365681611108565b9050816101600151604001518160008151811061368357634e487b7160e01b600052603260045260246000fd5b60200260200101906001600160a01b031690816001600160a01b0316815250506136ac816125f6565b905060005b815181101561392257602360008383815181106136de57634e487b7160e01b600052603260045260246000fd5b6020908102919091018101516001600160a01b03168252818101929092526040908101600020815161018081018352815460ff16151581526001820154818501526002820154818401526003820154606082015260048201546080820152600582015460a0820152600682015460c0820152600782015460e0820152600882018054845181870281018701909552808552919492936101008601939092908301828280156137b557602002820191906000526020600020905b81546001600160a01b03168152600190910190602001808311613797575b505050505081526020016009820180548060200260200160405190810160405280929190818152602001828054801561381757602002820191906000526020600020905b81546001600160a01b031681526001909101906020018083116137f9575b50505050508152602001600a8201805480602002602001604051908101604052809291908181526020016000905b8282101561389e576000848152602090819020604080516080810182526004860290920180548352600180820154848601526002820154928401929092526003015460ff16151560608301529083529092019101613845565b505050908252506040805160c081018252600b8401548152600c840154602082810191909152600d8501546001600160a01b0390811693830193909352600e8501546060830152600f850154608083015260109094015490911660a082015291015292508361390c81615c42565b945050808061391a90615c42565b9150506136b1565b50505b613c1c565b61016081015160a001516001600160a01b031615613c1c57606061394d81611108565b905081610160015160a001518160008151811061397a57634e487b7160e01b600052603260045260246000fd5b60200260200101906001600160a01b031690816001600160a01b0316815250506139a3816125f6565b905060005b8151811015613c1957602360008383815181106139d557634e487b7160e01b600052603260045260246000fd5b6020908102919091018101516001600160a01b03168252818101929092526040908101600020815161018081018352815460ff16151581526001820154818501526002820154818401526003820154606082015260048201546080820152600582015460a0820152600682015460c0820152600782015460e082015260088201805484518187028101870190955280855291949293610100860193909290830182828015613aac57602002820191906000526020600020905b81546001600160a01b03168152600190910190602001808311613a8e575b5050505050815260200160098201805480602002602001604051908101604052809291908181526020018280548015613b0e57602002820191906000526020600020905b81546001600160a01b03168152600190910190602001808311613af0575b50505050508152602001600a8201805480602002602001604051908101604052809291908181526020016000905b82821015613b95576000848152602090819020604080516080810182526004860290920180548352600180820154848601526002820154928401929092526003015460ff16151560608301529083529092019101613b3c565b505050908252506040805160c081018252600b8401548152600c840154602082810191909152600d8501546001600160a01b0390811693830193909352600e8501546060830152600f850154608083015260109094015490911660a0820152910152925083613c0381615c42565b9450508080613c1190615c42565b9150506139a8565b50505b5092915050565b60066020526000908152604090205481565b60165481565b602a546001600160a01b031681565b613c526148ff565b6001600160a01b038116613c6557600080fd5b6040516001600160a01b038216907f71614071b88dee5e0b2ae578a9dd7b2ebbe9ae832ba419dc0242cd065a290b6c90600090a26001600160a01b031660009081526003602090815260408083208054600160ff1991821681179092556002909352922080549091169091179055565b60185481565b600d546001600160a01b031681565b613cf26148ff565b6015805460ff1916911515919091179055565b6024602052600090815260409020546001600160a01b031681565b613d286148ff565b601e55565b602e5481565b60215481565b602c5415613f0d576005546001600160a01b03166323b872dd613d5a61494a565b30602c546040518463ffffffff1660e01b8152600401613d7c93929190615774565b602060405180830381600087803b158015613d9657600080fd5b505af1158015613daa573d6000803e3d6000fd5b505050506040513d601f19601f82011682018060405250810190613dce919061558d565b613dd757600080fd5b6002602e5410613f0d5760005b602b54811015613f0b57600554602b80546001600160a01b039092169163a9059cbb919084908110613e2657634e487b7160e01b600052603260045260246000fd5b9060005260206000200160009054906101000a90046001600160a01b0316613e8960646115c8602d8781548110613e6d57634e487b7160e01b600052603260045260246000fd5b9060005260206000200154602c5461494e90919063ffffffff16565b6040518363ffffffff1660e01b8152600401613ea6929190615741565b602060405180830381600087803b158015613ec057600080fd5b505af1158015613ed4573d6000803e3d6000fd5b505050506040513d601f19601f82011682018060405250810190613ef8919061558d565b5080613f0381615c42565b915050613de4565b505b61207b613f1861494a565b838361227a565b601c5481565b602b8181548110612d9157600080fd5b60266020526000908152604090205481565b6001600160a01b0381166000908152602360209081526040808320815161018081018352815460ff16151581526001820154818501526002820154818401526003820154606082015260048201546080820152600582015460a0820152600682015460c0820152600782015460e0820152600882018054845181870281018701909552808552869592946101008601939092919083018282801561401457602002820191906000526020600020905b81546001600160a01b03168152600190910190602001808311613ff6575b505050505081526020016009820180548060200260200160405190810160405280929190818152602001828054801561407657602002820191906000526020600020905b81546001600160a01b03168152600190910190602001808311614058575b50505050508152602001600a8201805480602002602001604051908101604052809291908181526020016000905b828210156140fd576000848152602090819020604080516080810182526004860290920180548352600180820154848601526002820154928401929092526003015460ff161515606083015290835290920191016140a4565b505050908252506040805160c081018252600b8401548152600c840154602082810191909152600d8501546001600160a01b0390811693830193909352600e850154606080840191909152600f860154608084015260109095015490921660a0820152910152909150600090819081908080808461417a8b613078565b9950909750955061418a8b611bad565b5060408e015160208f0151959a5093985091965094509250906141ad908a615a5b565b6141b79190615a5b565b6141c19082615a5b565b90508860c001518111156141d6575060c08801515b9a9950505050505050505050565b601d5481565b60155460ff1681565b60006141fd6150b0565b8261450d5760005b84518110156144fb576023600086838151811061423257634e487b7160e01b600052603260045260246000fd5b6020908102919091018101516001600160a01b03168252818101929092526040908101600020815161018081018352815460ff16151581526001820154818501526002820154818401526003820154606082015260048201546080820152600582015460a0820152600682015460c0820152600782015460e08201526008820180548451818702810187019095528085529194929361010086019390929083018282801561430957602002820191906000526020600020905b81546001600160a01b031681526001909101906020018083116142eb575b505050505081526020016009820180548060200260200160405190810160405280929190818152602001828054801561436b57602002820191906000526020600020905b81546001600160a01b0316815260019091019060200180831161434d575b50505050508152602001600a8201805480602002602001604051908101604052809291908181526020016000905b828210156143f2576000848152602090819020604080516080810182526004860290920180548352600180820154848601526002820154928401929092526003015460ff16151560608301529083529092019101614399565b505050908252506040805160c081018252600b8401548152600c840154602082810191909152600d8501546001600160a01b0390811683850152600e8601546060840152600f8601546080840152601090950154851660a083015290920191909152610160830151015191935081166144975785828151811061448557634e487b7160e01b600052603260045260246000fd5b6020026020010151935050505061104d565b6144a086611108565b95508086600188516144b29190615ab2565b815181106144d057634e487b7160e01b600052603260045260246000fd5b6001600160a01b039092166020928302919091019091015250806144f381615c42565b915050614205565b506145078460006141f3565b50613c1c565b60005b84518110156147fe576023600086838151811061453d57634e487b7160e01b600052603260045260246000fd5b6020908102919091018101516001600160a01b03168252818101929092526040908101600020815161018081018352815460ff16151581526001820154818501526002820154818401526003820154606082015260048201546080820152600582015460a0820152600682015460c0820152600782015460e08201526008820180548451818702810187019095528085529194929361010086019390929083018282801561461457602002820191906000526020600020905b81546001600160a01b031681526001909101906020018083116145f6575b505050505081526020016009820180548060200260200160405190810160405280929190818152602001828054801561467657602002820191906000526020600020905b81546001600160a01b03168152600190910190602001808311614658575b50505050508152602001600a8201805480602002602001604051908101604052809291908181526020016000905b828210156146fd576000848152602090819020604080516080810182526004860290920180548352600180820154848601526002820154928401929092526003015460ff161515606083015290835290920191016146a4565b505050908252506040805160c081018252600b8401548152600c840154602082810191909152600d8501546001600160a01b0390811693830193909352600e8501546060830152600f8501546080830152601090940154821660a080830191909152939092019190915261016083015190910151919350811661479a5785828151811061448557634e487b7160e01b600052603260045260246000fd5b6147a386611108565b95508086600188516147b59190615ab2565b815181106147d357634e487b7160e01b600052603260045260246000fd5b6001600160a01b039092166020928302919091019091015250806147f681615c42565b915050614510565b5061480a8460016141f3565b505092915050565b601a5481565b6148206148ff565b6001600160a01b03811661483357600080fd5b600080546040516001600160a01b03808516939216917f8be0079c531659141344cd1fd0a4f28419497f9722a3daafe3b4186f6b6457e091a3600080546001600160a01b039092166001600160a01b031990921682178155908152600260209081526040808320805460ff1990811660019081179092556003909352922080549091169091179055565b6148c56148ff565b600080546040516001600160a01b03909116914780156108fc02929091818181858888f19350505050158015612d7e573d6000803e3d6000fd5b6000546001600160a01b031661491361494a565b6001600160a01b03161461492657600080fd5b565b61493061494a565b6001546001600160a01b0390811691161461492657600080fd5b3390565b60008261495d5750600061104d565b60006149698385615a93565b9050826149768583615a73565b1461498057600080fd5b9392505050565b600080821161499557600080fd5b60006149a18385615a73565b949350505050565b60606149b6858451610fae565b905060008060005b8551811015614c64578581815181106149e757634e487b7160e01b600052603260045260246000fd5b6020026020010151600014614c4d5760236000858381518110614a1a57634e487b7160e01b600052603260045260246000fd5b6020908102919091018101516001600160a01b03168252810191909152604001600020805490925060ff168015614a55575060008260060154115b15614c525760006001600160a01b0316848281518110614a8557634e487b7160e01b600052603260045260246000fd5b60200260200101516001600160a01b031614614c4d57614adb6103e86115c8888481518110614ac457634e487b7160e01b600052603260045260246000fd5b60200260200101518a61494e90919063ffffffff16565b92508282600601541115614b9157614b1a848281518110614b0c57634e487b7160e01b600052603260045260246000fd5b602002602001015184614c6e565b8415614b3f5782826002016000828254614b349190615a5b565b90915550614b749050565b82826001016000828254614b539190615a5b565b9250508190555082826003016000828254614b6e9190615a5b565b90915550505b8260216000828254614b869190615a5b565b90915550614c489050565b8415614bba578160060154826002016000828254614baf9190615a5b565b90915550614bf69050565b8160060154826001016000828254614bd29190615a5b565b90915550506006820154600383018054600090614bf0908490615a5b565b90915550505b816006015460216000828254614c0c9190615a5b565b92505081905550614c48848281518110614c3657634e487b7160e01b600052603260045260246000fd5b60200260200101518360060154614c6e565b614c52565b614c64565b80614c5c81615c42565b9150506149be565b5050505050505050565b6001600160a01b038216600090815260236020526040812090805b600a8301548110156129715783614c9f57612971565b82600a018181548110614cc257634e487b7160e01b600052603260045260246000fd5b906000526020600020906004020191508160010154841115614cfb576001820154614ced9085615ab2565b600060018401559350614d15565b838260010154614d0b9190615ab2565b6001830155600093505b80614d1f81615c42565b915050614c89565b600082821115614d3657600080fd5b60006149a18385615ab2565b60036000614d4e61494a565b6001600160a01b0316815260208101919091526040016000205460ff1661492657600080fd5b6001600160a01b0383166000908152602360205260409020805460ff16614d9a57600080fd5b80600a016040518060800160405280428152602001614dcf614dc8606460195461498790919063ffffffff16565b879061494e565b8152602080820187905285151560409283015283546001808201865560009586528286208551600493840290910190815592850151908301559183015160028201556060909201516003909201805460ff19169215159290921790915582018054859290614e3e908490615a5b565b9091555050601954614e5c90614e55906064614987565b849061494e565b816006016000828254614e6f9190615a5b565b90915550506001600160a01b03841660009081526008602052604090205415614ef9576001600160a01b038416600090815260086020526040812054600b8301805491929091614ec0908490615a5b565b90915550506001600160a01b038416600090815260086020526040812054600e8301805491929091614ef3908490615a5b565b90915550505b5050506001600160a01b0316600090815260086020526040812055565b60026000614d4e61494a565b828054828255906000526020600020908101928215614f5d579160200282015b82811115614f5d578251825591602001919060010190614f42565b50614f69929150615118565b5090565b82805482825590600052602060002090601f01602090048101928215614f5d57600052602060002091601f016020900482015b82811115614f5d578254825591600101919060010190614fa0565b82805482825590600052602060002090601f01602090048101928215614f5d5791602002820160005b8382111561502157835183826101000a81548160ff0219169083151502179055509260200192600101602081600001049283019260010302614fe4565b801561504e5782816101000a81549060ff0219169055600101602081600001049283019260010302615021565b5050614f69929150615118565b828054828255906000526020600020908101928215614f5d579160200282015b82811115614f5d57825182546001600160a01b0319166001600160a01b0390911617825560209092019160019091019061507b565b6040518061018001604052806000151581526020016000815260200160008152602001600081526020016000815260200160008152602001600081526020016000815260200160608152602001606081526020016060815260200161511361512d565b905290565b5b80821115614f695760008155600101615119565b6040518060c00160405280600081526020016000815260200160006001600160a01b03168152602001600081526020016000815260200160006001600160a01b031681525090565b600082601f830112615185578081fd5b8135602061519a61519583615a2c565b615a03565b82815281810190858301838502870184018810156151b6578586fd5b855b858110156151dd5781356151cb81615e81565b845292840192908401906001016151b8565b5090979650505050505050565b600082601f8301126151fa578081fd5b8135602061520a61519583615a2c565b8281528181019085830183850287018401881015615226578586fd5b855b858110156151dd57813561523b81615e96565b84529284019290840190600101615228565b600082601f83011261525d578081fd5b8135602061526d61519583615a2c565b8281528181019085830183850287018401881015615289578586fd5b855b858110156151dd5781358452928401929084019060010161528b565b803560ff811681146111ed57600080fd5b6000602082840312156152c9578081fd5b813561498081615e81565b6000806000606084860312156152e8578182fd5b83356152f381615e81565b9250602084013561530381615e81565b9150615311604085016152a7565b90509250925092565b6000806040838503121561532c578182fd5b823561533781615e81565b946020939093013593505050565b600080600060608486031215615359578283fd5b833561536481615e81565b925060208401359150604084013561537b81615e96565b809150509250925092565b60008060006060848603121561539a578283fd5b83356153a581615e81565b95602085013595506040909401359392505050565b60008060008060008060c087890312156153d2578182fd5b86356153dd81615e81565b9860208801359850604088013597606081013597506080810135965060a00135945092505050565b60008060408385031215615417578182fd5b823561542281615e81565b9150615430602084016152a7565b90509250929050565b60006020828403121561544a578081fd5b81356001600160401b0381111561545f578182fd5b6149a184828501615175565b6000806040838503121561547d578182fd5b82356001600160401b0380821115615493578384fd5b61549f86838701615175565b935060208501359150808211156154b4578283fd5b506154c18582860161524d565b9150509250929050565b600080604083850312156154dd578182fd5b82356001600160401b038111156154f2578283fd5b6154fe85828601615175565b95602094909401359450505050565b60006020828403121561551e578081fd5b81356001600160401b03811115615533578182fd5b6149a1848285016151ea565b600060208284031215615550578081fd5b81356001600160401b03811115615565578182fd5b6149a18482850161524d565b600060208284031215615582578081fd5b813561498081615e96565b60006020828403121561559e578081fd5b815161498081615e96565b600080600080600060a086880312156155c0578283fd5b85356001600160401b03808211156155d6578485fd5b90870190610220828a0312156155ea578485fd5b9095506020870135906155fc82615e81565b9094506040870135935060608701359080821115615618578283fd5b50615625888289016151ea565b95989497509295608001359392505050565b600060208284031215615648578081fd5b5035919050565b600060208284031215615660578081fd5b5051919050565b60008060408385031215615679578182fd5b8235915060208301356001600160401b03811115615695578182fd5b6154c18582860161524d565b600080604083850312156156b3578182fd5b50508035926020909101359150565b6000815180845260208085019450808401835b838110156156f35781511515875295820195908201906001016156d5565b509495945050505050565b6000815180845260208085019450808401835b838110156156f357815187529582019590820190600101615711565b6001600160a01b0391909116815260200190565b6001600160a01b03929092168252602082015260400190565b6001600160a01b0392831681529116602082015260400190565b6001600160a01b039384168152919092166020820152604081019190915260600190565b6020808252825182820181905260009190848201906040850190845b818110156157d95783516001600160a01b0316835292840192918401916001016157b4565b50909695505050505050565b60006020825261498060208301846156c2565b60006020825261498060208301846156fe565b600060c0825261581e60c08301896156fe565b828103602084015261583081896156fe565b9050828103604084015261584481886156c2565b9050828103606084015261585881876156c2565b6080840195909552505060a00152949350505050565b901515815260200190565b98151589526020808a01989098526040808a01979097526060808a01969096526080808a019590955260a0808a019490945260c089019290925260e0880152805161010088015294850151610120870152928401516001600160a01b0390811661014087015291840151610160860152830151610180850152910151166101a08201526101c00190565b6020808252600390820152622aa72960e91b604082015260600190565b90815260200190565b9283526020830191909152604082015260600190565b95865260208601949094526040850192909252606084015260808301526001600160a01b031660a082015260c00190565b6000808335601e19843603018112615986578283fd5b8301803591506001600160401b0382111561599f578283fd5b60209081019250810236038213156159b657600080fd5b9250929050565b6000808335601e198436030181126159d3578182fd5b8301803591506001600160401b038211156159ec578283fd5b60200191506080810236038213156159b657600080fd5b6040518181016001600160401b0381118282101715615a2457615a24615c73565b604052919050565b60006001600160401b03821115615a4557615a45615c73565b5060209081020190565b60009081526020902090565b60008219821115615a6e57615a6e615c5d565b500190565b600082615a8e57634e487b7160e01b81526012600452602481fd5b500490565b6000816000190483118215151615615aad57615aad615c5d565b500290565b600082821015615ac457615ac4615c5d565b500390565b600160401b831115615add57615add615c73565b805483825580841015615b1b576000828152602081208581019083015b80821015615b1757615b0c8383615ca3565b600182019150615afa565b5050505b5081615b2682615a4f565b6000805b86811015615b5857615b45615b3e85615c89565b8385615e08565b6020939093019260019283019201615b2a565b50505050505050565b600160401b831115615b7557615b75615c73565b805483825580841015615c0a576001600160fe1b036001818311811615615b9e57615b9e615c5d565b6004828711821615615bb257615bb2615c5d565b600085815260208120909350878202810190828602015b80821015615c0457615bdb8583615ca3565b615be785858401615ca3565b615bf48560028401615ca3565b8460038301558282019150615bc9565b50505050505b5081615c1582615a4f565b6000805b86811015615b5857615c2c848385615e32565b6080939093019260049290920191600101615c19565b6000600019821415615c5657615c56615c5d565b5060010190565b634e487b7160e01b600052601160045260246000fd5b634e487b7160e01b600052604160045260246000fd5b6000813561104d81615e81565b6000813561104d81615e96565b8054600019600884021b1981168255505050565b80546001600160a01b0319166001600160a01b0392909216919091179055565b60ff1981541660ff8315151681178255505050565b81358155602082013560018201556040820135615d0881615e81565b615d158160028401615cb7565b50606082013560038201556080820135600482015560a0820135615d3881615e81565b611ac38160058401615cb7565b615d57615d5183615c96565b82615cd7565b6020820135600182015560408201356002820155606082013560038201556080820135600482015560a0820135600582015560c0820135600682015560e08201356007820155615dab610100830183615970565b615db9818360088601615ac9565b5050615dc9610120830183615970565b615dd7818360098601615ac9565b5050615de76101408301836159bd565b615df58183600a8601615b61565b505061207b6101608301600b8301615cec565b80546001600160a01b0360089390930283811b80199092169490931690921b909116919091179055565b8115615e4e57634e487b7160e01b600052600060045260246000fd5b8235815560208301356001820155604083013560028201556060830135615e7481615e96565b611b588160038401615cd7565b6001600160a01b0381168114612d7e57600080fd5b8015158114612d7e57600080fdfea26469706673582212200ed336311f4e8d3c07f4ec42e5e1402d5c575cc5c22cf245955099ccf92e009764736f6c63430008000033",
    "sourcePath": "c:/Users/STC/Documents/GitHub/Mehdi1/contracts/BinariSystemV2.sol",
    "compiler": {
        "name": "solc",
        "version": "0.8.0+commit.c7dfd78e"
    },
    "functionHashes": {
        "API()": "7d7b0099",
        "GanaMax()": "0a33879e",
        "MAX_RETIRO()": "313e70ee",
        "MIN_RETIRO()": "6c529279",
        "_registro(address,address,uint8)": "76d1158d",
        "activerFee()": "bd9bee19",
        "actualizarArrayBool(bool[])": "7fcc1e36",
        "actualizarArrayUint256(uint256[])": "7367b080",
        "actualizarNetwork(address[])": "1ce7f99b",
        "addressToId(address)": "cb0e0d7d",
        "admin(address)": "63a846f8",
        "allnetwork(address[])": "7faee047",
        "asignFreeMembership(address,address,uint8)": "8321a1b2",
        "asignarPlan(address,uint256,bool)": "877f9b91",
        "asignarPuntosBinarios(address,uint256,uint256)": "5a090c2d",
        "buyPlan(uint256)": "a80b223b",
        "column(address,uint256)": "15e8392b",
        "controlWitdrawl(bool)": "b17b6e44",
        "corteB(address)": "31f139e8",
        "corteBinarioDo(address,uint256,uint256,uint256,uint256,uint256)": "2183e2a0",
        "depositos(address)": "664e62b9",
        "descuento()": "7b0412ed",
        "dias()": "ab6db199",
        "directosBinario()": "d8771869",
        "espaciosRango(uint256)": "833a2a45",
        "factorPuntos()": "17b11e78",
        "gananciasRango(uint256)": "81032892",
        "idToAddress(uint256)": "2a2d0c47",
        "insertion(address[],uint256)": "e760e99c",
        "inversiones()": "a77d2119",
        "investors(address)": "6f7bc9be",
        "lastUserId()": "348d4487",
        "leader(address)": "01288c71",
        "makeNewAdmin(address)": "69ed1e0a",
        "makeNewApi(address)": "1800df1b",
        "makeNewLeader(address)": "ac713a0b",
        "makeRemoveAdmin(address)": "70a0966b",
        "makeRemoveLeader(address)": "160e8d60",
        "miHands(address,uint256)": "45be691e",
        "migrate((bool,uint256,uint256,uint256,uint256,uint256,uint256,uint256,address[],address[],(uint256,uint256,uint256,bool)[],(uint256,uint256,address,uint256,uint256,address)),address,uint256,bool[],uint256)": "8239e8df",
        "misDirectos(address,uint256)": "555452c1",
        "multiPuntos()": "ee1934bc",
        "newRecompensa()": "69f4a84b",
        "onOffWitdrawl()": "e7348e8c",
        "owner()": "8da5cb5b",
        "padre(address)": "b35f0a8f",
        "personasBinary(address,uint256)": "aaf88052",
        "plan()": "53e06571",
        "porcent()": "4728f718",
        "porcentPuntosBinario()": "c2307ee6",
        "porcientoRegistro(uint256)": "46e512a7",
        "porcientos(uint256)": "28cca719",
        "porcientosSalida(uint256)": "22c0a574",
        "precioRegistro()": "7db9e9c6",
        "primervez(uint256)": "725fc270",
        "puntosRango(uint256)": "21309f21",
        "rangoReclamado(address,uint256)": "2acc8210",
        "redimBNB()": "fd14d598",
        "redimToken()": "9e414b7c",
        "registro(address,uint8)": "c14b8361",
        "retirableA(address)": "ab4cc147",
        "retirableB(address)": "22fc77cb",
        "setDescuento(uint256)": "b3d9fa09",
        "setMIN_RETIRO(uint256)": "4de1be62",
        "setPlan(uint256)": "a2add0aa",
        "setPorcientos(uint256,uint256)": "1e403c35",
        "setPorcientosSalida(uint256,uint256)": "5d216c60",
        "setPrecioRegistro(uint256,uint256[])": "586e04e1",
        "setPrimeravezPorcientos(uint256,uint256)": "54822522",
        "setWalletFee(address,uint256,uint256)": "12730daf",
        "setWalletstransfers(address[],uint256[])": "a8beb717",
        "setstate()": "85338e20",
        "tiempo()": "50188c08",
        "timerOut()": "aec68894",
        "tokenPricipal()": "b1390426",
        "totalInvested()": "5216aeec",
        "totalInvestors()": "29b8caff",
        "totalRefRewards()": "bfe0e020",
        "totalRefWitdrawl()": "9b8ff503",
        "transferOwnership(address)": "f2fde38b",
        "unidades()": "4b9b8203",
        "valor(uint256)": "62550916",
        "valorFee()": "96600ed2",
        "wallet(uint256)": "a2781335",
        "walletFee()": "ac557f66",
        "walletRegistro(uint256)": "c7c1dd81",
        "withdraw()": "3ccfd60b",
        "withdrawable(address)": "ce513b6f",
        "withdrawableBinary(address)": "a95b4df9",
        "withdrawableRange(address)": "98c07d0a"
    },
    "gasEstimates": {
        "creation": {
            "codeDepositCost": "4856400",
            "executionCost": "infinite",
            "totalCost": "infinite"
        },
        "external": {
            "": "265",
            "API()": "1161",
            "GanaMax()": "1120",
            "MAX_RETIRO()": "1118",
            "MIN_RETIRO()": "1095",
            "_registro(address,address,uint8)": "infinite",
            "activerFee()": "1205",
            "actualizarArrayBool(bool[])": "infinite",
            "actualizarArrayUint256(uint256[])": "infinite",
            "actualizarNetwork(address[])": "infinite",
            "addressToId(address)": "1401",
            "admin(address)": "1370",
            "allnetwork(address[])": "infinite",
            "asignFreeMembership(address,address,uint8)": "infinite",
            "asignarPlan(address,uint256,bool)": "infinite",
            "asignarPuntosBinarios(address,uint256,uint256)": "infinite",
            "buyPlan(uint256)": "infinite",
            "column(address,uint256)": "infinite",
            "controlWitdrawl(bool)": "22143",
            "corteB(address)": "1358",
            "corteBinarioDo(address,uint256,uint256,uint256,uint256,uint256)": "infinite",
            "depositos(address)": "infinite",
            "descuento()": "1097",
            "dias()": "1140",
            "directosBinario()": "1094",
            "espaciosRango(uint256)": "3791",
            "factorPuntos()": "1097",
            "gananciasRango(uint256)": "2064",
            "idToAddress(uint256)": "1370",
            "insertion(address[],uint256)": "infinite",
            "inversiones()": "1139",
            "investors(address)": "12462",
            "lastUserId()": "1162",
            "leader(address)": "1328",
            "makeNewAdmin(address)": "23471",
            "makeNewApi(address)": "22165",
            "makeNewLeader(address)": "44373",
            "makeRemoveAdmin(address)": "23420",
            "makeRemoveLeader(address)": "44360",
            "miHands(address,uint256)": "infinite",
            "migrate((bool,uint256,uint256,uint256,uint256,uint256,uint256,uint256,address[],address[],(uint256,uint256,uint256,bool)[],(uint256,uint256,address,uint256,uint256,address)),address,uint256,bool[],uint256)": "infinite",
            "misDirectos(address,uint256)": "infinite",
            "multiPuntos()": "1160",
            "newRecompensa()": "infinite",
            "onOffWitdrawl()": "1128",
            "owner()": "1138",
            "padre(address)": "1421",
            "personasBinary(address,uint256)": "infinite",
            "plan()": "1118",
            "porcent()": "1119",
            "porcentPuntosBinario()": "1139",
            "porcientoRegistro(uint256)": "2065",
            "porcientos(uint256)": "2109",
            "porcientosSalida(uint256)": "2065",
            "precioRegistro()": "1141",
            "primervez(uint256)": "2129",
            "puntosRango(uint256)": "2153",
            "rangoReclamado(address,uint256)": "3892",
            "redimBNB()": "infinite",
            "redimToken()": "infinite",
            "registro(address,uint8)": "infinite",
            "retirableA(address)": "1336",
            "retirableB(address)": "1337",
            "setDescuento(uint256)": "21288",
            "setMIN_RETIRO(uint256)": "21268",
            "setPlan(uint256)": "21222",
            "setPorcientos(uint256,uint256)": "22184",
            "setPorcientosSalida(uint256,uint256)": "22117",
            "setPrecioRegistro(uint256,uint256[])": "infinite",
            "setPrimeravezPorcientos(uint256,uint256)": "22161",
            "setWalletFee(address,uint256,uint256)": "62238",
            "setWalletstransfers(address[],uint256[])": "infinite",
            "setstate()": "2841",
            "tiempo()": "infinite",
            "timerOut()": "1095",
            "tokenPricipal()": "1159",
            "totalInvested()": "1096",
            "totalInvestors()": "1163",
            "totalRefRewards()": "1095",
            "totalRefWitdrawl()": "1162",
            "transferOwnership(address)": "66406",
            "unidades()": "1141",
            "valor(uint256)": "2086",
            "valorFee()": "1118",
            "wallet(uint256)": "2105",
            "walletFee()": "1204",
            "walletRegistro(uint256)": "2171",
            "withdraw()": "infinite",
            "withdrawable(address)": "infinite",
            "withdrawableBinary(address)": "infinite",
            "withdrawableRange(address)": "infinite"
        },
        "internal": {
            "_buyPlan(address,uint256,bool)": "infinite",
            "discountDeposits(address,uint256)": "infinite",
            "rewardReferers(address,uint256,uint256[] memory,bool)": "infinite"
        }
    }
}