{
    "contractName": "BinarySystemProxy",
    "abi": [
        {
            "inputs": [],
            "stateMutability": "nonpayable",
            "type": "constructor"
        },
        {
            "stateMutability": "payable",
            "type": "fallback"
        },
        {
            "inputs": [],
            "name": "API",
            "outputs": [
                {
                    "internalType": "address",
                    "name": "",
                    "type": "address"
                }
            ],
            "stateMutability": "view",
            "type": "function"
        },
        {
            "inputs": [],
            "name": "GanaMax",
            "outputs": [
                {
                    "internalType": "uint256",
                    "name": "",
                    "type": "uint256"
                }
            ],
            "stateMutability": "view",
            "type": "function"
        },
        {
            "inputs": [],
            "name": "MAX_RETIRO",
            "outputs": [
                {
                    "internalType": "uint256",
                    "name": "",
                    "type": "uint256"
                }
            ],
            "stateMutability": "view",
            "type": "function"
        },
        {
            "inputs": [],
            "name": "MIN_RETIRO",
            "outputs": [
                {
                    "internalType": "uint256",
                    "name": "",
                    "type": "uint256"
                }
            ],
            "stateMutability": "view",
            "type": "function"
        },
        {
            "inputs": [
                {
                    "internalType": "address",
                    "name": "_user",
                    "type": "address"
                },
                {
                    "internalType": "address",
                    "name": "_sponsor",
                    "type": "address"
                },
                {
                    "internalType": "uint8",
                    "name": "_hand",
                    "type": "uint8"
                }
            ],
            "name": "_registro",
            "outputs": [],
            "stateMutability": "nonpayable",
            "type": "function"
        },
        {
            "inputs": [],
            "name": "activerFee",
            "outputs": [
                {
                    "internalType": "uint256",
                    "name": "",
                    "type": "uint256"
                }
            ],
            "stateMutability": "view",
            "type": "function"
        },
        {
            "inputs": [
                {
                    "internalType": "address",
                    "name": "",
                    "type": "address"
                }
            ],
            "name": "addressToId",
            "outputs": [
                {
                    "internalType": "uint256",
                    "name": "",
                    "type": "uint256"
                }
            ],
            "stateMutability": "view",
            "type": "function"
        },
        {
            "inputs": [
                {
                    "internalType": "address",
                    "name": "",
                    "type": "address"
                }
            ],
            "name": "admin",
            "outputs": [
                {
                    "internalType": "bool",
                    "name": "",
                    "type": "bool"
                }
            ],
            "stateMutability": "view",
            "type": "function"
        },
        {
            "inputs": [
                {
                    "internalType": "address[]",
                    "name": "network",
                    "type": "address[]"
                }
            ],
            "name": "allnetwork",
            "outputs": [
                {
                    "internalType": "address[]",
                    "name": "",
                    "type": "address[]"
                }
            ],
            "stateMutability": "view",
            "type": "function"
        },
        {
            "inputs": [
                {
                    "internalType": "address",
                    "name": "_user",
                    "type": "address"
                },
                {
                    "internalType": "address",
                    "name": "_sponsor",
                    "type": "address"
                },
                {
                    "internalType": "uint8",
                    "name": "_hand",
                    "type": "uint8"
                }
            ],
            "name": "asignFreeMembership",
            "outputs": [],
            "stateMutability": "nonpayable",
            "type": "function"
        },
        {
            "inputs": [
                {
                    "internalType": "address",
                    "name": "_user",
                    "type": "address"
                },
                {
                    "internalType": "uint256",
                    "name": "_plan",
                    "type": "uint256"
                },
                {
                    "internalType": "bool",
                    "name": "_depago",
                    "type": "bool"
                }
            ],
            "name": "asignarPlan",
            "outputs": [],
            "stateMutability": "nonpayable",
            "type": "function"
        },
        {
            "inputs": [
                {
                    "internalType": "address",
                    "name": "_user",
                    "type": "address"
                },
                {
                    "internalType": "uint256",
                    "name": "_puntosLeft",
                    "type": "uint256"
                },
                {
                    "internalType": "uint256",
                    "name": "_puntosRigth",
                    "type": "uint256"
                }
            ],
            "name": "asignarPuntosBinarios",
            "outputs": [],
            "stateMutability": "nonpayable",
            "type": "function"
        },
        {
            "inputs": [
                {
                    "internalType": "uint256",
                    "name": "_value",
                    "type": "uint256"
                }
            ],
            "name": "buyPlan",
            "outputs": [],
            "stateMutability": "nonpayable",
            "type": "function"
        },
        {
            "inputs": [
                {
                    "internalType": "address",
                    "name": "yo",
                    "type": "address"
                },
                {
                    "internalType": "uint256",
                    "name": "_largo",
                    "type": "uint256"
                }
            ],
            "name": "column",
            "outputs": [
                {
                    "internalType": "address[]",
                    "name": "res",
                    "type": "address[]"
                }
            ],
            "stateMutability": "view",
            "type": "function"
        },
        {
            "inputs": [
                {
                    "internalType": "bool",
                    "name": "_true_false",
                    "type": "bool"
                }
            ],
            "name": "controlWitdrawl",
            "outputs": [],
            "stateMutability": "nonpayable",
            "type": "function"
        },
        {
            "inputs": [
                {
                    "internalType": "address",
                    "name": "any_user",
                    "type": "address"
                },
                {
                    "internalType": "uint256",
                    "name": "left",
                    "type": "uint256"
                },
                {
                    "internalType": "uint256",
                    "name": "rigth",
                    "type": "uint256"
                },
                {
                    "internalType": "uint256",
                    "name": "_retirableA",
                    "type": "uint256"
                },
                {
                    "internalType": "uint256",
                    "name": "_retirableB",
                    "type": "uint256"
                }
            ],
            "name": "corteBinarioDo",
            "outputs": [],
            "stateMutability": "nonpayable",
            "type": "function"
        },
        {
            "inputs": [
                {
                    "internalType": "address",
                    "name": "_user",
                    "type": "address"
                }
            ],
            "name": "depositos",
            "outputs": [
                {
                    "internalType": "uint256[]",
                    "name": "amount",
                    "type": "uint256[]"
                },
                {
                    "internalType": "uint256[]",
                    "name": "time",
                    "type": "uint256[]"
                },
                {
                    "internalType": "bool[]",
                    "name": "pasive",
                    "type": "bool[]"
                },
                {
                    "internalType": "bool[]",
                    "name": "activo",
                    "type": "bool[]"
                },
                {
                    "internalType": "uint256",
                    "name": "total",
                    "type": "uint256"
                },
                {
                    "internalType": "uint256",
                    "name": "totalValue",
                    "type": "uint256"
                }
            ],
            "stateMutability": "view",
            "type": "function"
        },
        {
            "inputs": [],
            "name": "descuento",
            "outputs": [
                {
                    "internalType": "uint256",
                    "name": "",
                    "type": "uint256"
                }
            ],
            "stateMutability": "view",
            "type": "function"
        },
        {
            "inputs": [],
            "name": "dias",
            "outputs": [
                {
                    "internalType": "uint256",
                    "name": "",
                    "type": "uint256"
                }
            ],
            "stateMutability": "view",
            "type": "function"
        },
        {
            "inputs": [],
            "name": "directosBinario",
            "outputs": [
                {
                    "internalType": "uint256",
                    "name": "",
                    "type": "uint256"
                }
            ],
            "stateMutability": "view",
            "type": "function"
        },
        {
            "inputs": [
                {
                    "internalType": "uint256",
                    "name": "",
                    "type": "uint256"
                }
            ],
            "name": "espaciosRango",
            "outputs": [
                {
                    "internalType": "bool",
                    "name": "",
                    "type": "bool"
                }
            ],
            "stateMutability": "view",
            "type": "function"
        },
        {
            "inputs": [],
            "name": "factorPuntos",
            "outputs": [
                {
                    "internalType": "uint256",
                    "name": "",
                    "type": "uint256"
                }
            ],
            "stateMutability": "view",
            "type": "function"
        },
        {
            "inputs": [
                {
                    "internalType": "uint256",
                    "name": "",
                    "type": "uint256"
                }
            ],
            "name": "gananciasRango",
            "outputs": [
                {
                    "internalType": "uint256",
                    "name": "",
                    "type": "uint256"
                }
            ],
            "stateMutability": "view",
            "type": "function"
        },
        {
            "inputs": [
                {
                    "internalType": "uint256",
                    "name": "",
                    "type": "uint256"
                }
            ],
            "name": "idToAddress",
            "outputs": [
                {
                    "internalType": "address",
                    "name": "",
                    "type": "address"
                }
            ],
            "stateMutability": "view",
            "type": "function"
        },
        {
            "inputs": [],
            "name": "iniciado",
            "outputs": [
                {
                    "internalType": "bool",
                    "name": "",
                    "type": "bool"
                }
            ],
            "stateMutability": "view",
            "type": "function"
        },
        {
            "inputs": [],
            "name": "inicializar",
            "outputs": [],
            "stateMutability": "nonpayable",
            "type": "function"
        },
        {
            "inputs": [
                {
                    "internalType": "address[]",
                    "name": "network",
                    "type": "address[]"
                },
                {
                    "internalType": "uint256",
                    "name": "_hand",
                    "type": "uint256"
                }
            ],
            "name": "insertion",
            "outputs": [
                {
                    "internalType": "address",
                    "name": "wallett",
                    "type": "address"
                }
            ],
            "stateMutability": "view",
            "type": "function"
        },
        {
            "inputs": [],
            "name": "inversiones",
            "outputs": [
                {
                    "internalType": "uint256",
                    "name": "",
                    "type": "uint256"
                }
            ],
            "stateMutability": "view",
            "type": "function"
        },
        {
            "inputs": [
                {
                    "internalType": "address",
                    "name": "",
                    "type": "address"
                }
            ],
            "name": "investors",
            "outputs": [
                {
                    "internalType": "bool",
                    "name": "registered",
                    "type": "bool"
                },
                {
                    "internalType": "uint256",
                    "name": "balanceRef",
                    "type": "uint256"
                },
                {
                    "internalType": "uint256",
                    "name": "balanceSal",
                    "type": "uint256"
                },
                {
                    "internalType": "uint256",
                    "name": "totalRef",
                    "type": "uint256"
                },
                {
                    "internalType": "uint256",
                    "name": "invested",
                    "type": "uint256"
                },
                {
                    "internalType": "uint256",
                    "name": "paidAt",
                    "type": "uint256"
                },
                {
                    "internalType": "uint256",
                    "name": "amount",
                    "type": "uint256"
                },
                {
                    "internalType": "uint256",
                    "name": "withdrawn",
                    "type": "uint256"
                },
                {
                    "components": [
                        {
                            "internalType": "uint256",
                            "name": "lReclamados",
                            "type": "uint256"
                        },
                        {
                            "internalType": "uint256",
                            "name": "lExtra",
                            "type": "uint256"
                        },
                        {
                            "internalType": "address",
                            "name": "lReferer",
                            "type": "address"
                        },
                        {
                            "internalType": "uint256",
                            "name": "rReclamados",
                            "type": "uint256"
                        },
                        {
                            "internalType": "uint256",
                            "name": "rExtra",
                            "type": "uint256"
                        },
                        {
                            "internalType": "address",
                            "name": "rReferer",
                            "type": "address"
                        }
                    ],
                    "internalType": "struct BinarySystemProxy.Hand",
                    "name": "hands",
                    "type": "tuple"
                }
            ],
            "stateMutability": "view",
            "type": "function"
        },
        {
            "inputs": [],
            "name": "lastUserId",
            "outputs": [
                {
                    "internalType": "uint256",
                    "name": "",
                    "type": "uint256"
                }
            ],
            "stateMutability": "view",
            "type": "function"
        },
        {
            "inputs": [
                {
                    "internalType": "address",
                    "name": "",
                    "type": "address"
                }
            ],
            "name": "leader",
            "outputs": [
                {
                    "internalType": "bool",
                    "name": "",
                    "type": "bool"
                }
            ],
            "stateMutability": "view",
            "type": "function"
        },
        {
            "inputs": [
                {
                    "internalType": "address payable",
                    "name": "_newadmin",
                    "type": "address"
                }
            ],
            "name": "makeNewAdmin",
            "outputs": [],
            "stateMutability": "nonpayable",
            "type": "function"
        },
        {
            "inputs": [
                {
                    "internalType": "address payable",
                    "name": "_newapi",
                    "type": "address"
                }
            ],
            "name": "makeNewApi",
            "outputs": [],
            "stateMutability": "nonpayable",
            "type": "function"
        },
        {
            "inputs": [
                {
                    "internalType": "address payable",
                    "name": "_newadmin",
                    "type": "address"
                }
            ],
            "name": "makeNewLeader",
            "outputs": [],
            "stateMutability": "nonpayable",
            "type": "function"
        },
        {
            "inputs": [
                {
                    "internalType": "address payable",
                    "name": "_oldadmin",
                    "type": "address"
                }
            ],
            "name": "makeRemoveAdmin",
            "outputs": [],
            "stateMutability": "nonpayable",
            "type": "function"
        },
        {
            "inputs": [
                {
                    "internalType": "address payable",
                    "name": "_oldadmin",
                    "type": "address"
                }
            ],
            "name": "makeRemoveLeader",
            "outputs": [],
            "stateMutability": "nonpayable",
            "type": "function"
        },
        {
            "inputs": [
                {
                    "internalType": "address",
                    "name": "_user",
                    "type": "address"
                },
                {
                    "internalType": "uint256",
                    "name": "_hand",
                    "type": "uint256"
                }
            ],
            "name": "miHands",
            "outputs": [
                {
                    "internalType": "uint256",
                    "name": "equipo",
                    "type": "uint256"
                },
                {
                    "internalType": "uint256",
                    "name": "extra",
                    "type": "uint256"
                },
                {
                    "internalType": "uint256",
                    "name": "reclamados",
                    "type": "uint256"
                },
                {
                    "internalType": "uint256",
                    "name": "capital",
                    "type": "uint256"
                },
                {
                    "internalType": "uint256",
                    "name": "directos",
                    "type": "uint256"
                },
                {
                    "internalType": "address",
                    "name": "referer",
                    "type": "address"
                }
            ],
            "stateMutability": "view",
            "type": "function"
        },
        {
            "inputs": [
                {
                    "internalType": "address",
                    "name": "_user",
                    "type": "address"
                },
                {
                    "internalType": "uint256",
                    "name": "_hand",
                    "type": "uint256"
                }
            ],
            "name": "misDirectos",
            "outputs": [
                {
                    "internalType": "address[]",
                    "name": "",
                    "type": "address[]"
                }
            ],
            "stateMutability": "view",
            "type": "function"
        },
        {
            "inputs": [],
            "name": "multiPuntos",
            "outputs": [
                {
                    "internalType": "uint256",
                    "name": "",
                    "type": "uint256"
                }
            ],
            "stateMutability": "view",
            "type": "function"
        },
        {
            "inputs": [],
            "name": "newRecompensa",
            "outputs": [],
            "stateMutability": "nonpayable",
            "type": "function"
        },
        {
            "inputs": [],
            "name": "onOffWitdrawl",
            "outputs": [
                {
                    "internalType": "bool",
                    "name": "",
                    "type": "bool"
                }
            ],
            "stateMutability": "view",
            "type": "function"
        },
        {
            "inputs": [],
            "name": "owner",
            "outputs": [
                {
                    "internalType": "address",
                    "name": "",
                    "type": "address"
                }
            ],
            "stateMutability": "view",
            "type": "function"
        },
        {
            "inputs": [
                {
                    "internalType": "address",
                    "name": "",
                    "type": "address"
                }
            ],
            "name": "padre",
            "outputs": [
                {
                    "internalType": "address",
                    "name": "",
                    "type": "address"
                }
            ],
            "stateMutability": "view",
            "type": "function"
        },
        {
            "inputs": [
                {
                    "internalType": "address",
                    "name": "_user",
                    "type": "address"
                },
                {
                    "internalType": "uint256",
                    "name": "_hand",
                    "type": "uint256"
                }
            ],
            "name": "personasBinary",
            "outputs": [
                {
                    "internalType": "uint256",
                    "name": "miTeam",
                    "type": "uint256"
                }
            ],
            "stateMutability": "view",
            "type": "function"
        },
        {
            "inputs": [],
            "name": "plan",
            "outputs": [
                {
                    "internalType": "uint256",
                    "name": "",
                    "type": "uint256"
                }
            ],
            "stateMutability": "view",
            "type": "function"
        },
        {
            "inputs": [],
            "name": "porcent",
            "outputs": [
                {
                    "internalType": "uint256",
                    "name": "",
                    "type": "uint256"
                }
            ],
            "stateMutability": "view",
            "type": "function"
        },
        {
            "inputs": [],
            "name": "porcentPuntosBinario",
            "outputs": [
                {
                    "internalType": "uint256",
                    "name": "",
                    "type": "uint256"
                }
            ],
            "stateMutability": "view",
            "type": "function"
        },
        {
            "inputs": [
                {
                    "internalType": "uint256",
                    "name": "",
                    "type": "uint256"
                }
            ],
            "name": "porcientoFee",
            "outputs": [
                {
                    "internalType": "uint256",
                    "name": "",
                    "type": "uint256"
                }
            ],
            "stateMutability": "view",
            "type": "function"
        },
        {
            "inputs": [
                {
                    "internalType": "uint256",
                    "name": "",
                    "type": "uint256"
                }
            ],
            "name": "porcientoRegistro",
            "outputs": [
                {
                    "internalType": "uint256",
                    "name": "",
                    "type": "uint256"
                }
            ],
            "stateMutability": "view",
            "type": "function"
        },
        {
            "inputs": [
                {
                    "internalType": "uint256",
                    "name": "",
                    "type": "uint256"
                }
            ],
            "name": "porcientos",
            "outputs": [
                {
                    "internalType": "uint256",
                    "name": "",
                    "type": "uint256"
                }
            ],
            "stateMutability": "view",
            "type": "function"
        },
        {
            "inputs": [
                {
                    "internalType": "uint256",
                    "name": "",
                    "type": "uint256"
                }
            ],
            "name": "porcientosSalida",
            "outputs": [
                {
                    "internalType": "uint256",
                    "name": "",
                    "type": "uint256"
                }
            ],
            "stateMutability": "view",
            "type": "function"
        },
        {
            "inputs": [],
            "name": "precioRegistro",
            "outputs": [
                {
                    "internalType": "uint256",
                    "name": "",
                    "type": "uint256"
                }
            ],
            "stateMutability": "view",
            "type": "function"
        },
        {
            "inputs": [
                {
                    "internalType": "uint256",
                    "name": "",
                    "type": "uint256"
                }
            ],
            "name": "puntosRango",
            "outputs": [
                {
                    "internalType": "uint256",
                    "name": "",
                    "type": "uint256"
                }
            ],
            "stateMutability": "view",
            "type": "function"
        },
        {
            "inputs": [
                {
                    "internalType": "address",
                    "name": "",
                    "type": "address"
                },
                {
                    "internalType": "uint256",
                    "name": "",
                    "type": "uint256"
                }
            ],
            "name": "rangoReclamado",
            "outputs": [
                {
                    "internalType": "bool",
                    "name": "",
                    "type": "bool"
                }
            ],
            "stateMutability": "view",
            "type": "function"
        },
        {
            "inputs": [],
            "name": "redimBNB",
            "outputs": [],
            "stateMutability": "nonpayable",
            "type": "function"
        },
        {
            "inputs": [],
            "name": "redimToken",
            "outputs": [],
            "stateMutability": "nonpayable",
            "type": "function"
        },
        {
            "inputs": [
                {
                    "internalType": "address",
                    "name": "_sponsor",
                    "type": "address"
                },
                {
                    "internalType": "uint8",
                    "name": "_hand",
                    "type": "uint8"
                }
            ],
            "name": "registro",
            "outputs": [],
            "stateMutability": "nonpayable",
            "type": "function"
        },
        {
            "inputs": [
                {
                    "internalType": "address",
                    "name": "",
                    "type": "address"
                }
            ],
            "name": "retirableA",
            "outputs": [
                {
                    "internalType": "uint256",
                    "name": "",
                    "type": "uint256"
                }
            ],
            "stateMutability": "view",
            "type": "function"
        },
        {
            "inputs": [
                {
                    "internalType": "uint256",
                    "name": "_descuento",
                    "type": "uint256"
                }
            ],
            "name": "setDescuento",
            "outputs": [],
            "stateMutability": "nonpayable",
            "type": "function"
        },
        {
            "inputs": [
                {
                    "internalType": "uint256",
                    "name": "_min",
                    "type": "uint256"
                }
            ],
            "name": "setMIN_RETIRO",
            "outputs": [],
            "stateMutability": "nonpayable",
            "type": "function"
        },
        {
            "inputs": [
                {
                    "internalType": "uint256",
                    "name": "_value",
                    "type": "uint256"
                }
            ],
            "name": "setPlan",
            "outputs": [],
            "stateMutability": "nonpayable",
            "type": "function"
        },
        {
            "inputs": [
                {
                    "internalType": "uint256",
                    "name": "_nivel",
                    "type": "uint256"
                },
                {
                    "internalType": "uint256",
                    "name": "_value",
                    "type": "uint256"
                }
            ],
            "name": "setPorcientos",
            "outputs": [],
            "stateMutability": "nonpayable",
            "type": "function"
        },
        {
            "inputs": [
                {
                    "internalType": "uint256",
                    "name": "_nivel",
                    "type": "uint256"
                },
                {
                    "internalType": "uint256",
                    "name": "_value",
                    "type": "uint256"
                }
            ],
            "name": "setPorcientosSalida",
            "outputs": [],
            "stateMutability": "nonpayable",
            "type": "function"
        },
        {
            "inputs": [
                {
                    "internalType": "uint256",
                    "name": "_precio",
                    "type": "uint256"
                },
                {
                    "internalType": "uint256[]",
                    "name": "_porcentaje",
                    "type": "uint256[]"
                }
            ],
            "name": "setPrecioRegistro",
            "outputs": [],
            "stateMutability": "nonpayable",
            "type": "function"
        },
        {
            "inputs": [
                {
                    "internalType": "address[]",
                    "name": "_wallet",
                    "type": "address[]"
                },
                {
                    "internalType": "uint256[]",
                    "name": "_fee",
                    "type": "uint256[]"
                },
                {
                    "internalType": "uint256",
                    "name": "_activerFee",
                    "type": "uint256"
                }
            ],
            "name": "setWalletFee",
            "outputs": [],
            "stateMutability": "nonpayable",
            "type": "function"
        },
        {
            "inputs": [
                {
                    "internalType": "address[]",
                    "name": "_wallets",
                    "type": "address[]"
                },
                {
                    "internalType": "uint256[]",
                    "name": "_valores",
                    "type": "uint256[]"
                }
            ],
            "name": "setWalletstransfers",
            "outputs": [],
            "stateMutability": "nonpayable",
            "type": "function"
        },
        {
            "inputs": [],
            "name": "setstate",
            "outputs": [
                {
                    "internalType": "uint256",
                    "name": "Investors",
                    "type": "uint256"
                },
                {
                    "internalType": "uint256",
                    "name": "Invested",
                    "type": "uint256"
                },
                {
                    "internalType": "uint256",
                    "name": "RefRewards",
                    "type": "uint256"
                }
            ],
            "stateMutability": "view",
            "type": "function"
        },
        {
            "inputs": [],
            "name": "tiempo",
            "outputs": [
                {
                    "internalType": "uint256",
                    "name": "",
                    "type": "uint256"
                }
            ],
            "stateMutability": "view",
            "type": "function"
        },
        {
            "inputs": [],
            "name": "timerOut",
            "outputs": [
                {
                    "internalType": "uint256",
                    "name": "",
                    "type": "uint256"
                }
            ],
            "stateMutability": "view",
            "type": "function"
        },
        {
            "inputs": [],
            "name": "totalInvested",
            "outputs": [
                {
                    "internalType": "uint256",
                    "name": "",
                    "type": "uint256"
                }
            ],
            "stateMutability": "view",
            "type": "function"
        },
        {
            "inputs": [],
            "name": "totalInvestors",
            "outputs": [
                {
                    "internalType": "uint256",
                    "name": "",
                    "type": "uint256"
                }
            ],
            "stateMutability": "view",
            "type": "function"
        },
        {
            "inputs": [],
            "name": "totalRefRewards",
            "outputs": [
                {
                    "internalType": "uint256",
                    "name": "",
                    "type": "uint256"
                }
            ],
            "stateMutability": "view",
            "type": "function"
        },
        {
            "inputs": [],
            "name": "totalRefWitdrawl",
            "outputs": [
                {
                    "internalType": "uint256",
                    "name": "",
                    "type": "uint256"
                }
            ],
            "stateMutability": "view",
            "type": "function"
        },
        {
            "inputs": [],
            "name": "unidades",
            "outputs": [
                {
                    "internalType": "uint256",
                    "name": "",
                    "type": "uint256"
                }
            ],
            "stateMutability": "view",
            "type": "function"
        },
        {
            "inputs": [
                {
                    "internalType": "uint256",
                    "name": "_index",
                    "type": "uint256"
                }
            ],
            "name": "updateTotalInvestors",
            "outputs": [],
            "stateMutability": "nonpayable",
            "type": "function"
        },
        {
            "inputs": [
                {
                    "internalType": "uint256",
                    "name": "",
                    "type": "uint256"
                }
            ],
            "name": "valorBuy",
            "outputs": [
                {
                    "internalType": "uint256",
                    "name": "",
                    "type": "uint256"
                }
            ],
            "stateMutability": "view",
            "type": "function"
        },
        {
            "inputs": [
                {
                    "internalType": "uint256",
                    "name": "",
                    "type": "uint256"
                }
            ],
            "name": "walletBuy",
            "outputs": [
                {
                    "internalType": "address",
                    "name": "",
                    "type": "address"
                }
            ],
            "stateMutability": "view",
            "type": "function"
        },
        {
            "inputs": [
                {
                    "internalType": "uint256",
                    "name": "",
                    "type": "uint256"
                }
            ],
            "name": "walletFee",
            "outputs": [
                {
                    "internalType": "address",
                    "name": "",
                    "type": "address"
                }
            ],
            "stateMutability": "view",
            "type": "function"
        },
        {
            "inputs": [
                {
                    "internalType": "uint256",
                    "name": "",
                    "type": "uint256"
                }
            ],
            "name": "walletRegistro",
            "outputs": [
                {
                    "internalType": "address",
                    "name": "",
                    "type": "address"
                }
            ],
            "stateMutability": "view",
            "type": "function"
        },
        {
            "inputs": [],
            "name": "withdraw",
            "outputs": [],
            "stateMutability": "nonpayable",
            "type": "function"
        },
        {
            "inputs": [
                {
                    "internalType": "address",
                    "name": "any_user",
                    "type": "address"
                }
            ],
            "name": "withdrawable",
            "outputs": [
                {
                    "internalType": "uint256",
                    "name": "",
                    "type": "uint256"
                }
            ],
            "stateMutability": "view",
            "type": "function"
        },
        {
            "inputs": [
                {
                    "internalType": "address",
                    "name": "any_user",
                    "type": "address"
                }
            ],
            "name": "withdrawableBinary",
            "outputs": [
                {
                    "internalType": "uint256",
                    "name": "left",
                    "type": "uint256"
                },
                {
                    "internalType": "uint256",
                    "name": "rigth",
                    "type": "uint256"
                },
                {
                    "internalType": "uint256",
                    "name": "amount",
                    "type": "uint256"
                }
            ],
            "stateMutability": "view",
            "type": "function"
        },
        {
            "inputs": [
                {
                    "internalType": "address",
                    "name": "any_user",
                    "type": "address"
                }
            ],
            "name": "withdrawableRange",
            "outputs": [
                {
                    "internalType": "uint256",
                    "name": "amount",
                    "type": "uint256"
                }
            ],
            "stateMutability": "view",
            "type": "function"
        },
        {
            "stateMutability": "payable",
            "type": "receive"
        }
    ],
    "bytecode": "6080604052600080546001600160a01b0319167355d398326f99059ff775485246999027b3197955179055602b805460ff1916600117905534801561004357600080fd5b50615da180620000546000396000f3fe6080604052600436106104985760003560e01c80637faee04711610260578063aec6889411610144578063cb0e0d7d116100c1578063dcbe327e11610085578063dcbe327e14610d92578063e7348e8c14610da7578063e760e99c14610dbc578063ebd5d44914610ddc578063ee1934bc14610dfc578063fd14d59814610e115761049f565b8063cb0e0d7d14610cfd578063ce4336c314610d1d578063ce513b6f14610d3d578063d877186914610d5d578063db3be1a214610d725761049f565b8063bfe0e02011610108578063bfe0e02014610c73578063c14b836114610c88578063c2307ee614610ca8578063c70b1ab314610cbd578063c7c1dd8114610cdd5761049f565b8063aec6889414610be9578063b17b6e4414610bfe578063b35f0a8f14610c1e578063b3d9fa0914610c3e578063bd9bee1914610c5e5761049f565b80639d1604b4116101dd578063a8beb717116101a1578063a8beb71714610b34578063a95b4df914610b54578063aaf8805214610b74578063ab4cc14714610b94578063ab6db19914610bb4578063ac713a0b14610bc95761049f565b80639d1604b414610aaa5780639e414b7c14610aca578063a2add0aa14610adf578063a77d211914610aff578063a80b223b14610b145761049f565b806385338e201161022457806385338e2014610a1c578063877f9b9114610a405780638da5cb5b14610a6057806398c07d0a14610a755780639b8ff50314610a955761049f565b80637faee0471461098757806381032892146109a75780638321a1b2146109c7578063833a2a45146109e757806383bd852814610a075761049f565b80634b9b820311610387578063664e62b91161030457806370a0966b116102c857806370a0966b146108e85780637251b9ac1461090857806376d1158d146109285780637b0412ed146109485780637d7b00991461095d5780637db9e9c6146109725761049f565b8063664e62b91461083757806369ed1e0a1461086957806369f4a84b146108895780636c5292791461089e5780636f7bc9be146108b35761049f565b8063555452c11161034b578063555452c114610797578063586e04e1146107b75780635a090c2d146107d75780635d216c60146107f757806363a846f8146108175761049f565b80634b9b8203146107235780634de1be621461073857806350188c08146107585780635216aeec1461076d57806353e06571146107825761049f565b806328cca71911610415578063348d4487116103d9578063348d4487146106925780633ccfd60b146106a757806345be691e146106bc57806346e512a7146106ee5780634728f7181461070e5761049f565b806328cca719146105fb57806329b8caff1461061b5780632a2d0c47146106305780632acc82101461065d578063313e70ee1461067d5761049f565b806317b11e781161045c57806317b11e78146105665780631800df1b1461057b5780631e403c351461059b57806321309f21146105bb57806322c0a574146105db5761049f565b806301288c71146104a157806307cb263f146104d75780630a33879e146104f757806315e8392b14610519578063160e8d60146105465761049f565b3661049f57005b005b3480156104ad57600080fd5b506104c16104bc366004615640565b610e26565b6040516104ce9190615b60565b60405180910390f35b3480156104e357600080fd5b5061049f6104f236600461575e565b610e3b565b34801561050357600080fd5b5061050c610f81565b6040516104ce9190615bf5565b34801561052557600080fd5b506105396105343660046156be565b610f87565b6040516104ce9190615ab0565b34801561055257600080fd5b5061049f610561366004615640565b610ff3565b34801561057257600080fd5b5061050c611044565b34801561058757600080fd5b5061049f610596366004615640565b61104a565b3480156105a757600080fd5b5061049f6105b63660046159b9565b611074565b3480156105c757600080fd5b5061050c6105d636600461594e565b6110ae565b3480156105e757600080fd5b5061050c6105f636600461594e565b6110cf565b34801561060757600080fd5b5061050c61061636600461594e565b6110df565b34801561062757600080fd5b5061050c6110ef565b34801561063c57600080fd5b5061065061064b36600461594e565b6110f5565b6040516104ce9190615a45565b34801561066957600080fd5b506104c16106783660046156be565b611110565b34801561068957600080fd5b5061050c611153565b34801561069e57600080fd5b5061050c611159565b3480156106b357600080fd5b5061049f61115f565b3480156106c857600080fd5b506106dc6106d73660046156be565b61157e565b6040516104ce96959493929190615c14565b3480156106fa57600080fd5b5061050c61070936600461594e565b611826565b34801561071a57600080fd5b5061050c611836565b34801561072f57600080fd5b5061050c61183c565b34801561074457600080fd5b5061049f61075336600461594e565b611842565b34801561076457600080fd5b5061050c61184f565b34801561077957600080fd5b5061050c61186d565b34801561078e57600080fd5b5061050c611873565b3480156107a357600080fd5b506105396107b23660046156be565b611879565b3480156107c357600080fd5b5061049f6107d236600461597e565b61196e565b3480156107e357600080fd5b5061049f6107f236600461572a565b611993565b34801561080357600080fd5b5061049f6108123660046159b9565b611a0d565b34801561082357600080fd5b506104c1610832366004615640565b611a37565b34801561084357600080fd5b50610857610852366004615640565b611a4c565b6040516104ce96959493929190615afd565b34801561087557600080fd5b5061049f610884366004615640565b611ded565b34801561089557600080fd5b5061049f611e2f565b3480156108aa57600080fd5b5061050c61200b565b3480156108bf57600080fd5b506108d36108ce366004615640565b612011565b6040516104ce99989796959493929190615b6b565b3480156108f457600080fd5b5061049f610903366004615640565b6120ae565b34801561091457600080fd5b5061065061092336600461594e565b6120ea565b34801561093457600080fd5b5061049f610943366004615678565b612114565b34801561095457600080fd5b5061050c61240d565b34801561096957600080fd5b50610650612413565b34801561097e57600080fd5b5061050c612422565b34801561099357600080fd5b506105396109a23660046157d5565b612428565b3480156109b357600080fd5b5061050c6109c236600461594e565b61279e565b3480156109d357600080fd5b5061049f6109e2366004615678565b6127ae565b3480156109f357600080fd5b506104c1610a0236600461594e565b6127c1565b348015610a1357600080fd5b506104c16127f5565b348015610a2857600080fd5b50610a316127fe565b6040516104ce93929190615bfe565b348015610a4c57600080fd5b5061049f610a5b3660046156e9565b61280c565b348015610a6c57600080fd5b5061065061282f565b348015610a8157600080fd5b5061050c610a90366004615640565b6128ac565b348015610aa157600080fd5b5061050c612911565b348015610ab657600080fd5b5061050c610ac536600461594e565b612917565b348015610ad657600080fd5b5061049f612927565b348015610aeb57600080fd5b5061049f610afa36600461594e565b612a3a565b348015610b0b57600080fd5b5061050c612a47565b348015610b2057600080fd5b5061049f610b2f36600461594e565b612a4d565b348015610b4057600080fd5b5061049f610b4f366004615808565b612d22565b348015610b6057600080fd5b50610a31610b6f366004615640565b612d51565b348015610b8057600080fd5b5061050c610b8f3660046156be565b6130e0565b348015610ba057600080fd5b5061050c610baf366004615640565b613894565b348015610bc057600080fd5b5061050c6138a6565b348015610bd557600080fd5b5061049f610be4366004615640565b6138ac565b348015610bf557600080fd5b5061050c613902565b348015610c0a57600080fd5b5061049f610c19366004615916565b613908565b348015610c2a57600080fd5b50610650610c39366004615640565b613923565b348015610c4a57600080fd5b5061049f610c5936600461594e565b61393e565b348015610c6a57600080fd5b5061050c61394b565b348015610c7f57600080fd5b5061050c613951565b348015610c9457600080fd5b5061049f610ca33660046157a1565b613957565b348015610cb457600080fd5b5061050c613b30565b348015610cc957600080fd5b50610650610cd836600461594e565b613b36565b348015610ce957600080fd5b50610650610cf836600461594e565b613b46565b348015610d0957600080fd5b5061050c610d18366004615640565b613b56565b348015610d2957600080fd5b5061049f610d3836600461594e565b613b68565b348015610d4957600080fd5b5061050c610d58366004615640565b613b75565b348015610d6957600080fd5b5061050c613df3565b348015610d7e57600080fd5b5061049f610d8d366004615869565b613df9565b348015610d9e57600080fd5b5061049f613e30565b348015610db357600080fd5b506104c1614338565b348015610dc857600080fd5b50610650610dd73660046158d3565b614341565b348015610de857600080fd5b5061050c610df736600461594e565b6148d8565b348015610e0857600080fd5b5061050c6148e8565b348015610e1d57600080fd5b5061049f6148ee565b60026020526000908152604090205460ff1681565b610e43614936565b6017546001600160a01b0386166000908152600460205260409020600501544291610e6d91615c93565b11610f7a578315801590610e8057508215155b15610f1e576001600160a01b038516600090815260046020526040902083851015610ee3578481600b016000016000828254610ebc9190615c93565b9091555050600e81018054869190600090610ed8908490615c93565b90915550610f1c9050565b8381600b016000016000828254610efa9190615c93565b9091555050600e81018054859190600090610f16908490615c93565b90915550505b505b8115610f40576001600160a01b03851660009081526003602052604090208290555b8015610f5057610f50858261494f565b6001600160a01b038516600090815260046020526040812042600582015560018101829055600201555b5050505050565b600c5481565b606060005b82811015610fec576001600160a01b03808516600090815260056020526040902054610fba91849116614a08565b6001600160a01b0394851660009081526005602052604090205490941693915080610fe481615d01565b915050610f8c565b5092915050565b610ffb614b31565b6001600160a01b03811661100e57600080fd5b6001600160a01b03166000908152600260209081526040808320805460ff19908116909155600190925290912080549091169055565b601a5481565b611052614b31565b600980546001600160a01b0319166001600160a01b0392909216919091179055565b61107c614b31565b80600f838154811061109e57634e487b7160e01b600052603260045260246000fd5b6000918252602090912001555050565b601381815481106110be57600080fd5b600091825260209091200154905081565b601081815481106110be57600080fd5b600f81815481106110be57600080fd5b601e5481565b6006602052600090815260409020546001600160a01b031681565b6008602052816000526040600020818154811061112c57600080fd5b9060005260206000209060209182820401919006915091509054906101000a900460ff1681565b600b5481565b60225481565b60145460ff1661116e57600080fd5b3360009081526003602052604080822054915490516370a0823160e01b815282916001600160a01b0316906370a08231906111ad903090600401615a45565b60206040518083038186803b1580156111c557600080fd5b505afa1580156111d9573d6000803e3d6000fd5b505050506040513d601f19601f820116820180604052508101906111fd9190615966565b101561120857600080fd5b600a5481101561121757600080fd5b3360009081526004602052604081206007810180549192849261123b908490615c93565b9091555050600b5482111561127357600b546112579083615cea565b600c60008282546112689190615c93565b9091555050600b5491505b6028546064906001116114365760005b60235481101561143457306001600160a01b0316602382815481106112b857634e487b7160e01b600052603260045260246000fd5b6000918252602090912001546001600160a01b0316146113e257600054602380546001600160a01b039092169163a9059cbb91908490811061130a57634e487b7160e01b600052603260045260246000fd5b9060005260206000200160009054906101000a90046001600160a01b0316611371606461136b6024878154811061135157634e487b7160e01b600052603260045260246000fd5b90600052602060002001548a614b5690919063ffffffff16565b90614b8f565b6040518363ffffffff1660e01b815260040161138e929190615a97565b602060405180830381600087803b1580156113a857600080fd5b505af11580156113bc573d6000803e3d6000fd5b505050506040513d601f19601f820116820180604052508101906113e09190615932565b505b6114206024828154811061140657634e487b7160e01b600052603260045260246000fd5b906000526020600020015483614bb190919063ffffffff16565b91508061142c81615d01565b915050611283565b505b6000546001600160a01b031663a9059cbb33611457606461136b8887614b56565b6040518363ffffffff1660e01b8152600401611474929190615a97565b602060405180830381600087803b15801561148e57600080fd5b505af11580156114a2573d6000803e3d6000fd5b505050506040513d601f19601f820116820180604052508101906114c69190615932565b506115243384601080548060200260200160405190810160405280929190818152602001828054801561151857602002820191906000526020600020905b815481526020019060010190808311611504575b50505050506001614bcc565b8160060154831061153b5760006006830155611550565b600682015461154a9084614bb1565b60068301555b33600090815260036020526040812081905560218054859290611574908490615c93565b9091555050505050565b6001600160a01b0382166000908152600460208181526040808420815161018081018352815460ff161515815260018201548185015260028201548184015260038201546060820152938101546080850152600581015460a0850152600681015460c0850152600781015460e08501526008810180548351818602810186019094528084528695869586958695869586959193610100860193929083018282801561165257602002820191906000526020600020905b81546001600160a01b03168152600190910190602001808311611634575b50505050508152602001600982018054806020026020016040519081016040528092919081815260200182805480156116b457602002820191906000526020600020905b81546001600160a01b03168152600190910190602001808311611696575b50505050508152602001600a8201805480602002602001604051908101604052809291908181526020016000905b8282101561173b576000848152602090819020604080516080810182526004860290920180548352600180820154848601526002820154928401929092526003015460ff161515606083015290835290920191016116e2565b505050908252506040805160c081018252600b8401548152600c840154602082810191909152600d8501546001600160a01b0390811693830193909352600e8501546060830152600f850154608083015260109094015490911660a0820152910152610160810151909150886117e4576117b58a8a6130e0565b6020820151825160808501516117cb8e8e611879565b518560400151975097509750975097509750505061181c565b6117ee8a8a6130e0565b8160800151826060015184608001516118078e8e611879565b518560a0015197509750975097509750975050505b9295509295509295565b602781815481106110be57600080fd5b60185481565b60165481565b61184a614b31565b600a55565b6000611868601654601554614b5690919063ffffffff16565b905090565b601f5481565b600d5481565b6060816118f7576001600160a01b038316600090815260046020908152604091829020600801805483518184028101840190945280845290918301828280156118eb57602002820191906000526020600020905b81546001600160a01b031681526001909101906020018083116118cd575b50505050509050611968565b6001600160a01b038316600090815260046020908152604091829020600901805483518184028101840190945280845290918301828280156118eb576020028201919060005260206000209081546001600160a01b031681526001909101906020018083116118cd57505050505090505b92915050565b611976614b31565b6026829055805161198e9060279060208401906151f9565b505050565b61199b614e91565b6001600160a01b0383166000908152600460205260409020805460ff166119c157600080fd5b82156119e4578281600b0160010160008282546119de9190615c93565b90915550505b8115611a07578181600b016004016000828254611a019190615c93565b90915550505b50505050565b611a15614b31565b806010838154811061109e57634e487b7160e01b600052603260045260246000fd5b60016020526000908152604090205460ff1681565b6001600160a01b0381166000908152600460208181526040808420815161018081018352815460ff16151581526001820154818501526002820154818401526003820154606082810191909152948201546080820152600582015460a0820152600682015460c0820152600782015460e0820152600882018054845181870281018701909552808552959687968796879692958695869590949193610100860193830182828015611b2657602002820191906000526020600020905b81546001600160a01b03168152600190910190602001808311611b08575b5050505050815260200160098201805480602002602001604051908101604052809291908181526020018280548015611b8857602002820191906000526020600020905b81546001600160a01b03168152600190910190602001808311611b6a575b50505050508152602001600a8201805480602002602001604051908101604052809291908181526020016000905b82821015611c0f576000848152602090819020604080516080810182526004860290920180548352600180820154848601526002820154928401929092526003015460ff16151560608301529083529092019101611bb6565b505050908252506040805160c081018252600b8401548152600c840154602082810191909152600d8501546001600160a01b0390811693830193909352600e8501546060830152600f850154608083015260109094015490911660a0820152910152905060005b81610140015151811015611de25760008261014001518281518110611cab57634e487b7160e01b600052603260045260246000fd5b60200260200101519050611ccc816000015189614ead90919063ffffffff16565b97506000611cd861184f565b8251611ce49190615c93565b9050600082600001518560a0015111611cfe578251611d04565b8460a001515b90506000824211611d155742611d17565b825b90508115801590611d2757508082105b15611d8057836060015115611d6e57611d3e61184f565b611d488383615cea565b8560200151611d579190615ccb565b611d619190615cab565b611d6b9089615c93565b97505b611d79896001614fb5565b9850611d8e565b611d8b896000614fb5565b98505b6020840151611d9e908d90614ead565b9b50611db784606001518b614fb590919063ffffffff16565b9950836040015187611dc99190615c93565b9650505050508080611dda90615d01565b915050611c76565b505091939550919395565b611df5614b31565b6001600160a01b038116611e0857600080fd5b6001600160a01b03166000908152600160208190526040909120805460ff19169091179055565b60145460ff16611e3e57600080fd5b6000611e49336128ac565b905060005b6012548110156120075760138181548110611e7957634e487b7160e01b600052603260045260246000fd5b90600052602060002001548210158015611edf5750336000908152600860205260409020805482908110611ebd57634e487b7160e01b600052603260045260246000fd5b90600052602060002090602091828204019190069054906101000a900460ff16155b15611ff557600054601280546001600160a01b039092169163a9059cbb91339185908110611f1d57634e487b7160e01b600052603260045260246000fd5b90600052602060002001546040518363ffffffff1660e01b8152600401611f45929190615a97565b602060405180830381600087803b158015611f5f57600080fd5b505af1158015611f73573d6000803e3d6000fd5b505050506040513d601f19601f82011682018060405250810190611f979190615932565b5033600090815260086020526040902080546001919083908110611fcb57634e487b7160e01b600052603260045260246000fd5b90600052602060002090602091828204019190066101000a81548160ff0219169083151502179055505b80611fff81615d01565b915050611e4e565b5050565b600a5481565b6004602081815260009283526040928390208054600182015460028301546003840154958401546005850154600686015460078701548a5160c081018c52600b8901548152600c89015499810199909952600d8801546001600160a01b039081169b8a019b909b52600e88015460608a0152600f88015460808a015260109097015490991660a088015260ff909416979296919591949093929189565b6120b6614b31565b6001600160a01b0381166120c957600080fd5b6001600160a01b03166000908152600160205260409020805460ff19169055565b602381815481106120fa57600080fd5b6000918252602090912001546001600160a01b0316905081565b60018160ff16111561212557600080fd5b6001600160a01b038316600090815260046020526040902060078101541561214c57600080fd5b805460ff191660011781556001600160a01b03808516600090815260056020526040902080549185166001600160a01b0319909216821790551561233a576001600160a01b038316600090815260046020526040902060ff831661227857600881018054600181018255600091825260209091200180546001600160a01b0319166001600160a01b0387811691909117909155600d8201541661220b57600d810180546001600160a01b0319166001600160a01b038716179055612273565b600d81015460609060049060009061223a906122319085906001600160a01b0316614a08565b8760ff16614341565b6001600160a01b0390811682526020820192909252604001600020600d810180546001600160a01b031916928916929092179091559150505b612338565b600981018054600181018255600091825260209091200180546001600160a01b0319166001600160a01b03878116919091179091556010820154166122d9576010810180546001600160a01b0319166001600160a01b038716179055612338565b60108101546060906004906000906122ff906122319085906001600160a01b0316614a08565b6001600160a01b03908116825260208201929092526040016000206010810180546001600160a01b031916928916929092179091559150505b505b61234261282f565b6001600160a01b0316846001600160a01b03161461237057601e805490600061236a83615d01565b91905055505b6022546000908152600660205260409020546001600160a01b0316611a07576001600160a01b0384166000908152600860205260409020601180546123b6929190615244565b5060228054600090815260066020908152604080832080546001600160a01b0319166001600160a01b038a16908117909155845490845260079092528220819055919061240283615d01565b919050555050505050565b601d5481565b6009546001600160a01b031681565b60265481565b6060612432615292565b60005b8351811015612793576004600085838151811061246257634e487b7160e01b600052603260045260246000fd5b6020908102919091018101516001600160a01b03168252818101929092526040908101600020815161018081018352815460ff16151581526001820154818501526002820154818401526003820154606082015260048201546080820152600582015460a0820152600682015460c0820152600782015460e08201526008820180548451818702810187019095528085529194929361010086019390929083018282801561253957602002820191906000526020600020905b81546001600160a01b0316815260019091019060200180831161251b575b505050505081526020016009820180548060200260200160405190810160405280929190818152602001828054801561259b57602002820191906000526020600020905b81546001600160a01b0316815260019091019060200180831161257d575b50505050508152602001600a8201805480602002602001604051908101604052809291908181526020016000905b82821015612622576000848152602090819020604080516080810182526004860290920180548352600180820154848601526002820154928401929092526003015460ff161515606083015290835290920191016125c9565b505050908252506040805160c081018252600b8401548152600c840154602082810191909152600d8501546001600160a01b0390811683850152600e8601546060840152600f860154608084015260109095015490941660a0808301919091529390920191909152610160830151908101519101519193509060005b8651811015612745578681815181106126c757634e487b7160e01b600052603260045260246000fd5b60200260200101516001600160a01b0316836001600160a01b031614156126ed57600092505b86818151811061270d57634e487b7160e01b600052603260045260246000fd5b60200260200101516001600160a01b0316826001600160a01b0316141561273357600091505b8061273d81615d01565b91505061269e565b506001600160a01b038216156127625761275f8683614a08565b95505b6001600160a01b0381161561277e5761277b8682614a08565b95505b5050808061278b90615d01565b915050612435565b50829150505b919050565b601281815481106110be57600080fd5b6127b66150c6565b61198e838383612114565b601181815481106127d157600080fd5b9060005260206000209060209182820401919006915054906101000a900460ff1681565b602b5460ff1681565b601e54601f54602054909192565b6128146150c6565b81600d546128229190615ccb565b915061198e8383836150e2565b600080309050806001600160a01b031663f851a4406040518163ffffffff1660e01b815260040160206040518083038186803b15801561286e57600080fd5b505afa158015612882573d6000803e3d6000fd5b505050506040513d601f19601f820116820180604052508101906128a6919061565c565b91505090565b6001600160a01b0381166000908152600460205260408120600c810154600b82015483916128da91906151dd565b600f830154600e8401549192506000916128f3916151dd565b90508082101561290557819350612909565b8093505b505050919050565b60215481565b602481815481106110be57600080fd5b61292f614b31565b6000546001600160a01b031663a9059cbb61294861282f565b6000546040516370a0823160e01b81526001600160a01b03909116906370a0823190612978903090600401615a45565b60206040518083038186803b15801561299057600080fd5b505afa1580156129a4573d6000803e3d6000fd5b505050506040513d601f19601f820116820180604052508101906129c89190615966565b6040518363ffffffff1660e01b81526004016129e5929190615a97565b602060405180830381600087803b1580156129ff57600080fd5b505af1158015612a13573d6000803e3d6000fd5b505050506040513d601f19601f82011682018060405250810190612a379190615932565b50565b612a42614b31565b600d55565b600e5481565b80600d54612a5b9190615ccb565b905080601f6000828254612a6f9190615c93565b9091555050600054604051636eb1769f60e11b815282916001600160a01b03169063dd62ed3e90612aa69033903090600401615a59565b60206040518083038186803b158015612abe57600080fd5b505afa158015612ad2573d6000803e3d6000fd5b505050506040513d601f19601f82011682018060405250810190612af69190615966565b1015612b0157600080fd5b6000546040516323b872dd60e01b81526001600160a01b03909116906323b872dd90612b3590339030908690600401615a73565b602060405180830381600087803b158015612b4f57600080fd5b505af1158015612b63573d6000803e3d6000fd5b505050506040513d601f19601f82011682018060405250810190612b879190615932565b612b9057600080fd5b60005b602954811015612cb857600054602980546001600160a01b039092169163a9059cbb919084908110612bd557634e487b7160e01b600052603260045260246000fd5b9060005260206000200160009054906101000a90046001600160a01b0316612c36606461136b602a8781548110612c1c57634e487b7160e01b600052603260045260246000fd5b906000526020600020015488614b5690919063ffffffff16565b6040518363ffffffff1660e01b8152600401612c53929190615a97565b602060405180830381600087803b158015612c6d57600080fd5b505af1158015612c81573d6000803e3d6000fd5b505050506040513d601f19601f82011682018060405250810190612ca59190615932565b5080612cb081615d01565b915050612b93565b50612cc5338260006150e2565b612a373382600f805480602002602001604051908101604052809291908181526020018280548015612d1657602002820191906000526020600020905b815481526020019060010190808311612d02575b50505050506000614bcc565b612d2a614b31565b8151612d3d9060299060208501906152fa565b50805161198e90602a9060208401906151f9565b6001600160a01b038082166000908152600460205260408120600d810154919283928392916060911615801590612da45750600d8201546001600160a01b031660009081526004602052604090205460ff165b15612eb057600d820154612dc6906109a29083906001600160a01b0316614a08565b905060005b8151811015612e595760046000838381518110612df857634e487b7160e01b600052603260045260246000fd5b60200260200101516001600160a01b03166001600160a01b031681526020019081526020016000209250612e3b601a548460040154614b8f90919063ffffffff16565b612e459087615c93565b955080612e5181615d01565b915050612dcb565b506001600160a01b0386166000908152600460205260409020600c810154909250612e849086615c93565b94508482600b01600001541115612e9e5760009450612eb0565b600b820154612ead9086615cea565b94505b60108201546001600160a01b031615801590612ee8575060108201546001600160a01b031660009081526004602052604090205460ff165b15612ffa576010820154612f0a906109a29083906001600160a01b0316614a08565b905060005b8151811015612fa35760046000838381518110612f3c57634e487b7160e01b600052603260045260246000fd5b60200260200101516001600160a01b03166001600160a01b031681526020019081526020016000209250612f85601a5461136b6019548660040154614b5690919063ffffffff16565b612f8f9086615c93565b945080612f9b81615d01565b915050612f0f565b506001600160a01b0386166000908152600460205260409020600f810154909250612fce9085615c93565b93508482600b01600301541115612fe85760009450612ffa565b600e820154612ff79085615cea565b93505b601c54613008876001611879565b51613014886000611879565b5161301f9190615c93565b106130d7578385101561308a57816006015461304b606461136b601b5489614b5690919063ffffffff16565b1161307d57613076606461136b601954613070601b548a614b5690919063ffffffff16565b90614b56565b9250613085565b816006015492505b6130d7565b81600601546130a9606461136b601b5488614b5690919063ffffffff16565b116130cf576130c8606461136b601b5487614b5690919063ffffffff16565b92506130d7565b816006015492505b50509193909250565b6001600160a01b0382166000908152600460208181526040808420815161018081018352815460ff161515815260018201548185015260028201548184015260038201546060820152938101546080850152600581015460a0850152600681015460c0850152600781015460e08501526008810180548351818602810186019094528084528695949293610100860193909291908301828280156131ad57602002820191906000526020600020905b81546001600160a01b0316815260019091019060200180831161318f575b505050505081526020016009820180548060200260200160405190810160405280929190818152602001828054801561320f57602002820191906000526020600020905b81546001600160a01b031681526001909101906020018083116131f1575b50505050508152602001600a8201805480602002602001604051908101604052809291908181526020016000905b82821015613296576000848152602090819020604080516080810182526004860290920180548352600180820154848601526002820154928401929092526003015460ff1615156060830152908352909201910161323d565b505050908252506040805160c081018252600b8401548152600c840154602082810191909152600d8501546001600160a01b0390811693830193909352600e8501546060830152600f850154608083015260109094015490911660a08201529101529050826135c957610160810151604001516001600160a01b03161580159061331e575080515b156135c45760606133446109a28361016001516040015183614a0890919063ffffffff16565b905060005b81518110156135c157825115613367578361336381615d01565b9450505b6004600083838151811061338b57634e487b7160e01b600052603260045260246000fd5b6020908102919091018101516001600160a01b03168252818101929092526040908101600020815161018081018352815460ff16151581526001820154818501526002820154818401526003820154606082015260048201546080820152600582015460a0820152600682015460c0820152600782015460e08201526008820180548451818702810187019095528085529194929361010086019390929083018282801561346257602002820191906000526020600020905b81546001600160a01b03168152600190910190602001808311613444575b50505050508152602001600982018054806020026020016040519081016040528092919081815260200182805480156134c457602002820191906000526020600020905b81546001600160a01b031681526001909101906020018083116134a6575b50505050508152602001600a8201805480602002602001604051908101604052809291908181526020016000905b8282101561354b576000848152602090819020604080516080810182526004860290920180548352600180820154848601526002820154928401929092526003015460ff161515606083015290835290920191016134f2565b505050908252506040805160c081018252600b8401548152600c840154602082810191909152600d8501546001600160a01b0390811693830193909352600e8501546060830152600f850154608083015260109094015490911660a08201529101529250806135b981615d01565b915050613349565b50505b610fec565b61016081015160a001516001600160a01b0316158015906135e8575080515b15610fec57606061360e6109a283610160015160a0015183614a0890919063ffffffff16565b905060005b815181101561388b57825115613631578361362d81615d01565b9450505b6004600083838151811061365557634e487b7160e01b600052603260045260246000fd5b6020908102919091018101516001600160a01b03168252818101929092526040908101600020815161018081018352815460ff16151581526001820154818501526002820154818401526003820154606082015260048201546080820152600582015460a0820152600682015460c0820152600782015460e08201526008820180548451818702810187019095528085529194929361010086019390929083018282801561372c57602002820191906000526020600020905b81546001600160a01b0316815260019091019060200180831161370e575b505050505081526020016009820180548060200260200160405190810160405280929190818152602001828054801561378e57602002820191906000526020600020905b81546001600160a01b03168152600190910190602001808311613770575b50505050508152602001600a8201805480602002602001604051908101604052809291908181526020016000905b82821015613815576000848152602090819020604080516080810182526004860290920180548352600180820154848601526002820154928401929092526003015460ff161515606083015290835290920191016137bc565b505050908252506040805160c081018252600b8401548152600c840154602082810191909152600d8501546001600160a01b0390811693830193909352600e8501546060830152600f850154608083015260109094015490911660a082015291015292508061388381615d01565b915050613613565b50505092915050565b60036020526000908152604090205481565b60155481565b6138b4614b31565b6001600160a01b0381166138c757600080fd5b6001600160a01b031660009081526002602090815260408083208054600160ff19918216811790925592819052922080549091169091179055565b60175481565b613910614b31565b6014805460ff1916911515919091179055565b6005602052600090815260409020546001600160a01b031681565b613946614b31565b601d55565b60285481565b60205481565b60265415613b25576000546026546040516323b872dd60e01b81526001600160a01b03909216916323b872dd916139949133913091600401615a73565b602060405180830381600087803b1580156139ae57600080fd5b505af11580156139c2573d6000803e3d6000fd5b505050506040513d601f19601f820116820180604052508101906139e69190615932565b6139ef57600080fd5b600260285410613b255760005b602554811015613b2357600054602580546001600160a01b039092169163a9059cbb919084908110613a3e57634e487b7160e01b600052603260045260246000fd5b9060005260206000200160009054906101000a90046001600160a01b0316613aa1606461136b60278781548110613a8557634e487b7160e01b600052603260045260246000fd5b9060005260206000200154602654614b5690919063ffffffff16565b6040518363ffffffff1660e01b8152600401613abe929190615a97565b602060405180830381600087803b158015613ad857600080fd5b505af1158015613aec573d6000803e3d6000fd5b505050506040513d601f19601f82011682018060405250810190613b109190615932565b5080613b1b81615d01565b9150506139fc565b505b612007338383612114565b601b5481565b602981815481106120fa57600080fd5b602581815481106120fa57600080fd5b60076020526000908152604090205481565b613b70614b31565b601e55565b6001600160a01b0381166000908152600460208181526040808420815161018081018352815460ff161515815260018201548185015260028201548184015260038201546060820152938101546080850152600581015460a0850152600681015460c0850152600781015460e0850152600881018054835181860281018601909452808452869594929361010086019390929190830182828015613c4257602002820191906000526020600020905b81546001600160a01b03168152600190910190602001808311613c24575b5050505050815260200160098201805480602002602001604051908101604052809291908181526020018280548015613ca457602002820191906000526020600020905b81546001600160a01b03168152600190910190602001808311613c86575b50505050508152602001600a8201805480602002602001604051908101604052809291908181526020016000905b82821015613d2b576000848152602090819020604080516080810182526004860290920180548352600180820154848601526002820154928401929092526003015460ff16151560608301529083529092019101613cd2565b505050908252506040805160c081018252600b8401548152600c840154602082810191909152600d8501546001600160a01b0390811693830193909352600e8501546060830152600f850154608083015260109094015490911660a082015291015290506000613d9a84612d51565b925050506000613da985611a4c565b509450505050508260400151836020015183613dc59190615c93565b613dcf9190615c93565b613dd99082615c93565b90508260c0015181111561290557505060c0015192915050565b601c5481565b613e01614b31565b8251613e149060239060208601906152fa565b508151613e289060249060208501906151f9565b506028555050565b602b5460ff1615613e4057600080fd5b602b8054600160ff1991821681179092553360009081526020838152604080832080548516861790556002825280832080548516861790556004825280832080549094169094178355600890529190912060118054613ea0929190615244565b507f54cdd369e4e8a8515e52ca72ec816c2101831ad1f18bf44102ed171459c9b4f880546001600160a01b03191633908117909155600090815260076020908152604080832092909255678ac7230489e80000600a55683ba1910bf341b00000600b5568015af1d78b58c40000600d556001600e819055825191820190925261012c8152613f3191600f919061534f565b506040805160a081018252601481526005602082018190529181018290526060810182905260808101829052613f6a9160109190615390565b506040805161018081018252600080825260208201819052918101829052606081018290526080810182905260a0810182905260c0810182905260e08101829052610100810182905261012081018290526101408101829052610160810191909152613fda90601190600c6153d0565b50604080516101a081018252670de0b6b3a76400008152671bc16d674ec800006020820152673782dace9d90000091810191909152678ac7230489e8000060608201526801158e460913d00000608082015268022b1c8c1227a0000060a082015268056bc75e2d6310000060c0820152680ad78ebc5ac620000060e08201526815af1d78b58c400000610100820152681b1ae4d6e2ef500000610120820152683635c9adc5dea00000610140820152686c6b935b8bbd40000061016082015269010f0cf064dd592000006101808201526140b890601290600d615470565b50604080516101a0810182526806c6b935b8bbd400008152680d8d726b7177a800006020820152681b1ae4d6e2ef500000918101919091526843c33c193756480000606082015268878678326eac900000608082015269010f0cf064dd5920000060a08201526902a5a058fc295ed0000060c082015269054b40b1f852bda0000060e0820152690a968163f0a57b400000610100820152691a784379d99db42000006101208201526934f086f3b33b684000006101408201526969e10de76676d08000006101608201526a0108b2a2c28029094000006101808201526141a290601390600d6154b9565b506014805460ff191660019081179091556103e860155562015180601681905560175561012c6018556019819055601a819055600a601b556002601c556046601d556022819055678ac7230489e80000602655604080516020810190915273361db60d275b4328fd35733b93ceb1a3d22bbf6a815261422491602591906152fa565b50604080516020810190915260648152614242906027906001615390565b5060408051606081018252736b78c6d2031600dcfad295359823889b2dbafd1b815273642974e00445f31c50e7cec34b24bc8b6aefd3de6020820152732198b0d4f54925dcca173a84708ba284ac85cc37918101919091526142a89060299060036152fa565b50604080516060810182526001815260056020820152601a918101919091526142d590602a906003615390565b5060408051808201909152734593739d3a5849562e7e647b44b9a7ee3ba1e8d5815230602082015261430b9060239060026152fa565b5060408051808201909152601a81526004602082015261432f906024906002615390565b50506002602855565b60145460ff1681565b600061434b615292565b826146175760005b8451811015614605576004600086838151811061438057634e487b7160e01b600052603260045260246000fd5b6020908102919091018101516001600160a01b03168252818101929092526040908101600020815161018081018352815460ff16151581526001820154818501526002820154818401526003820154606082015260048201546080820152600582015460a0820152600682015460c0820152600782015460e08201526008820180548451818702810187019095528085529194929361010086019390929083018282801561445757602002820191906000526020600020905b81546001600160a01b03168152600190910190602001808311614439575b50505050508152602001600982018054806020026020016040519081016040528092919081815260200182805480156144b957602002820191906000526020600020905b81546001600160a01b0316815260019091019060200180831161449b575b50505050508152602001600a8201805480602002602001604051908101604052809291908181526020016000905b82821015614540576000848152602090819020604080516080810182526004860290920180548352600180820154848601526002820154928401929092526003015460ff161515606083015290835290920191016144e7565b505050908252506040805160c081018252600b8401548152600c840154602082810191909152600d8501546001600160a01b0390811683850152600e8601546060840152600f8601546080840152601090950154851660a083015290920191909152610160830151015191935081166145e5578582815181106145d357634e487b7160e01b600052603260045260246000fd5b60200260200101519350505050611968565b6145ef8682614a08565b95505080806145fd90615d01565b915050614353565b50614611846000614341565b50610fec565b60005b84518110156148c4576004600086838151811061464757634e487b7160e01b600052603260045260246000fd5b6020908102919091018101516001600160a01b03168252818101929092526040908101600020815161018081018352815460ff16151581526001820154818501526002820154818401526003820154606082015260048201546080820152600582015460a0820152600682015460c0820152600782015460e08201526008820180548451818702810187019095528085529194929361010086019390929083018282801561471e57602002820191906000526020600020905b81546001600160a01b03168152600190910190602001808311614700575b505050505081526020016009820180548060200260200160405190810160405280929190818152602001828054801561478057602002820191906000526020600020905b81546001600160a01b03168152600190910190602001808311614762575b50505050508152602001600a8201805480602002602001604051908101604052809291908181526020016000905b82821015614807576000848152602090819020604080516080810182526004860290920180548352600180820154848601526002820154928401929092526003015460ff161515606083015290835290920191016147ae565b505050908252506040805160c081018252600b8401548152600c840154602082810191909152600d8501546001600160a01b0390811693830193909352600e8501546060830152600f8501546080830152601090940154821660a08083019190915293909201919091526101608301519091015191935081166148a4578582815181106145d357634e487b7160e01b600052603260045260246000fd5b6148ae8682614a08565b95505080806148bc90615d01565b91505061461a565b506148d0846001614341565b505092915050565b602a81815481106110be57600080fd5b60195481565b6148f6614b31565b6148fe61282f565b6001600160a01b03166108fc479081150290604051600060405180830381858888f19350505050158015612a37573d6000803e3d6000fd5b6009546001600160a01b0316331461494d57600080fd5b565b6001600160a01b038216600090815260046020526040812090805b600a830154811015610f7a578361498057610f7a565b82600a0181815481106149a357634e487b7160e01b600052603260045260246000fd5b9060005260206000209060040201915081600101548411156149dc5760018201546149ce9085615cea565b6000600184015593506149f6565b8382600101546149ec9190615cea565b6001830155600093505b80614a0081615d01565b91505061496a565b606082516001614a189190615c93565b67ffffffffffffffff811115614a3e57634e487b7160e01b600052604160045260246000fd5b604051908082528060200260200182016040528015614a67578160200160208202803683370190505b50905060005b8351811015614ae857838181518110614a9657634e487b7160e01b600052603260045260246000fd5b6020026020010151828281518110614abe57634e487b7160e01b600052603260045260246000fd5b6001600160a01b039092166020928302919091019091015280614ae081615d01565b915050614a6d565b508181845181518110614b0b57634e487b7160e01b600052603260045260246000fd5b60200260200101906001600160a01b031690816001600160a01b03168152505092915050565b614b3961282f565b6001600160a01b0316336001600160a01b03161461494d57600080fd5b600082614b6557506000611968565b6000614b718385615ccb565b905082614b7e8583615cab565b14614b8857600080fd5b9392505050565b6000808211614b9d57600080fd5b6000614ba98385615cab565b949350505050565b600082821115614bc057600080fd5b6000614ba98385615cea565b6060614bd9858451610f87565b905060008060005b8551811015614e8757858181518110614c0a57634e487b7160e01b600052603260045260246000fd5b6020026020010151600014614e705760046000858381518110614c3d57634e487b7160e01b600052603260045260246000fd5b6020908102919091018101516001600160a01b03168252810191909152604001600020805490925060ff168015614c78575060008260060154115b15614e755760006001600160a01b0316848281518110614ca857634e487b7160e01b600052603260045260246000fd5b60200260200101516001600160a01b031614614e7057614cfe6103e861136b888481518110614ce757634e487b7160e01b600052603260045260246000fd5b60200260200101518a614b5690919063ffffffff16565b92508282600601541115614db457614d3d848281518110614d2f57634e487b7160e01b600052603260045260246000fd5b60200260200101518461494f565b8415614d625782826002016000828254614d579190615c93565b90915550614d979050565b82826001016000828254614d769190615c93565b9250508190555082826003016000828254614d919190615c93565b90915550505b8260206000828254614da99190615c93565b90915550614e6b9050565b8415614ddd578160060154826002016000828254614dd29190615c93565b90915550614e199050565b8160060154826001016000828254614df59190615c93565b90915550506006820154600383018054600090614e13908490615c93565b90915550505b816006015460206000828254614e2f9190615c93565b92505081905550614e6b848281518110614e5957634e487b7160e01b600052603260045260246000fd5b6020026020010151836006015461494f565b614e75565b614e87565b80614e7f81615d01565b915050614be1565b5050505050505050565b3360009081526002602052604090205460ff1661494d57600080fd5b606082516001614ebd9190615c93565b67ffffffffffffffff811115614ee357634e487b7160e01b600052604160045260246000fd5b604051908082528060200260200182016040528015614f0c578160200160208202803683370190505b50905060005b8351811015614f8057838181518110614f3b57634e487b7160e01b600052603260045260246000fd5b6020026020010151828281518110614f6357634e487b7160e01b600052603260045260246000fd5b602090810291909101015280614f7881615d01565b915050614f12565b508181845181518110614fa357634e487b7160e01b600052603260045260246000fd5b60200260200101818152505092915050565b606082516001614fc59190615c93565b67ffffffffffffffff811115614feb57634e487b7160e01b600052604160045260246000fd5b604051908082528060200260200182016040528015615014578160200160208202803683370190505b50905060005b835181101561508d5783818151811061504357634e487b7160e01b600052603260045260246000fd5b602002602001015182828151811061506b57634e487b7160e01b600052603260045260246000fd5b911515602092830291909101909101528061508581615d01565b91505061501a565b5081818451815181106150b057634e487b7160e01b600052603260045260246000fd5b9115156020928302919091019091015292915050565b3360009081526001602052604090205460ff1661494d57600080fd5b6001600160a01b0383166000908152600460205260409020805460ff1661510857600080fd5b80600a01604051806080016040528042815260200161513d6151366064601854614b8f90919063ffffffff16565b8790614b56565b8152602080820187905285151560409283015283546001808201865560009586528286208551600493840290910190815592850151908301559183015160028201556060909201516003909201805460ff191692151592909217909155820180548592906151ac908490615c93565b90915550506018546151ca906151c3906064614b8f565b8490614b56565b816006016000828254611a019190615c93565b6000806151ea8385615c93565b905083811015614b8857600080fd5b828054828255906000526020600020908101928215615234579160200282015b82811115615234578251825591602001919060010190615219565b50615240929150615503565b5090565b82805482825590600052602060002090601f0160209004810192821561523457600052602060002091601f016020900482015b82811115615234578254825591600101919060010190615277565b604051806101800160405280600015158152602001600081526020016000815260200160008152602001600081526020016000815260200160008152602001600081526020016060815260200160608152602001606081526020016152f5615518565b905290565b828054828255906000526020600020908101928215615234579160200282015b8281111561523457825182546001600160a01b0319166001600160a01b0390911617825560209092019160019091019061531a565b828054828255906000526020600020908101928215615234579160200282015b82811115615234578251829061ffff1690559160200191906001019061536f565b828054828255906000526020600020908101928215615234579160200282015b82811115615234578251829060ff169055916020019190600101906153b0565b82805482825590600052602060002090601f016020900481019282156152345791602002820160005b8382111561543657835183826101000a81548160ff02191690831515021790555092602001926001016020816000010492830192600103026153f9565b80156154635782816101000a81549060ff0219169055600101602081600001049283019260010302615436565b5050615240929150615503565b828054828255906000526020600020908101928215615234579160200282015b82811115615234578251829069ffffffffffffffffffff16905591602001919060010190615490565b828054828255906000526020600020908101928215615234579160200282015b8281111561523457825182906affffffffffffffffffffff169055916020019190600101906154d9565b5b808211156152405760008155600101615504565b6040518060c00160405280600081526020016000815260200160006001600160a01b03168152602001600081526020016000815260200160006001600160a01b031681525090565b600082601f830112615570578081fd5b8135602061558561558083615c6f565b615c45565b82815281810190858301838502870184018810156155a1578586fd5b855b858110156155c85781356155b681615d48565b845292840192908401906001016155a3565b5090979650505050505050565b600082601f8301126155e5578081fd5b813560206155f561558083615c6f565b8281528181019085830183850287018401881015615611578586fd5b855b858110156155c857813584529284019290840190600101615613565b803560ff8116811461279957600080fd5b600060208284031215615651578081fd5b8135614b8881615d48565b60006020828403121561566d578081fd5b8151614b8881615d48565b60008060006060848603121561568c578182fd5b833561569781615d48565b925060208401356156a781615d48565b91506156b56040850161562f565b90509250925092565b600080604083850312156156d0578182fd5b82356156db81615d48565b946020939093013593505050565b6000806000606084860312156156fd578283fd5b833561570881615d48565b925060208401359150604084013561571f81615d5d565b809150509250925092565b60008060006060848603121561573e578283fd5b833561574981615d48565b95602085013595506040909401359392505050565b600080600080600060a08688031215615775578081fd5b853561578081615d48565b97602087013597506040870135966060810135965060800135945092505050565b600080604083850312156157b3578182fd5b82356157be81615d48565b91506157cc6020840161562f565b90509250929050565b6000602082840312156157e6578081fd5b813567ffffffffffffffff8111156157fc578182fd5b614ba984828501615560565b6000806040838503121561581a578081fd5b823567ffffffffffffffff80821115615831578283fd5b61583d86838701615560565b93506020850135915080821115615852578283fd5b5061585f858286016155d5565b9150509250929050565b60008060006060848603121561587d578081fd5b833567ffffffffffffffff80821115615894578283fd5b6158a087838801615560565b945060208601359150808211156158b5578283fd5b506158c2868287016155d5565b925050604084013590509250925092565b600080604083850312156158e5578182fd5b823567ffffffffffffffff8111156158fb578283fd5b61590785828601615560565b95602094909401359450505050565b600060208284031215615927578081fd5b8135614b8881615d5d565b600060208284031215615943578081fd5b8151614b8881615d5d565b60006020828403121561595f578081fd5b5035919050565b600060208284031215615977578081fd5b5051919050565b60008060408385031215615990578182fd5b82359150602083013567ffffffffffffffff8111156159ad578182fd5b61585f858286016155d5565b600080604083850312156159cb578182fd5b50508035926020909101359150565b6000815180845260208085019450808401835b83811015615a0b5781511515875295820195908201906001016159ed565b509495945050505050565b6000815180845260208085019450808401835b83811015615a0b57815187529582019590820190600101615a29565b6001600160a01b0391909116815260200190565b6001600160a01b0392831681529116602082015260400190565b6001600160a01b039384168152919092166020820152604081019190915260600190565b6001600160a01b03929092168252602082015260400190565b6020808252825182820181905260009190848201906040850190845b81811015615af15783516001600160a01b031683529284019291840191600101615acc565b50909695505050505050565b600060c08252615b1060c0830189615a16565b8281036020840152615b228189615a16565b90508281036040840152615b3681886159da565b90508281036060840152615b4a81876159da565b6080840195909552505060a00152949350505050565b901515815260200190565b98151589526020808a01989098526040808a01979097526060808a01969096526080808a019590955260a0808a019490945260c089019290925260e0880152805161010088015294850151610120870152928401516001600160a01b0390811661014087015291840151610160860152830151610180850152910151166101a08201526101c00190565b90815260200190565b9283526020830191909152604082015260600190565b95865260208601949094526040850192909252606084015260808301526001600160a01b031660a082015260c00190565b60405181810167ffffffffffffffff81118282101715615c6757615c67615d32565b604052919050565b600067ffffffffffffffff821115615c8957615c89615d32565b5060209081020190565b60008219821115615ca657615ca6615d1c565b500190565b600082615cc657634e487b7160e01b81526012600452602481fd5b500490565b6000816000190483118215151615615ce557615ce5615d1c565b500290565b600082821015615cfc57615cfc615d1c565b500390565b6000600019821415615d1557615d15615d1c565b5060010190565b634e487b7160e01b600052601160045260246000fd5b634e487b7160e01b600052604160045260246000fd5b6001600160a01b0381168114612a3757600080fd5b8015158114612a3757600080fdfea26469706673582212209268b984295d3236f1b833ab5fbfdbd5b66e369c83b1e95482aaa6ea437d5b5164736f6c63430008000033",
    "sourcePath": "c:/Users/STC/Documents/GitHub/4trust/contracts/BinariSystemV2.0-proxyed.sol",
    "compiler": {
        "name": "solc",
        "version": "0.8.0+commit.c7dfd78e"
    },
    "functionHashes": {
        "API()": "7d7b0099",
        "GanaMax()": "0a33879e",
        "MAX_RETIRO()": "313e70ee",
        "MIN_RETIRO()": "6c529279",
        "_registro(address,address,uint8)": "76d1158d",
        "activerFee()": "bd9bee19",
        "addressToId(address)": "cb0e0d7d",
        "admin(address)": "63a846f8",
        "allnetwork(address[])": "7faee047",
        "asignFreeMembership(address,address,uint8)": "8321a1b2",
        "asignarPlan(address,uint256,bool)": "877f9b91",
        "asignarPuntosBinarios(address,uint256,uint256)": "5a090c2d",
        "buyPlan(uint256)": "a80b223b",
        "column(address,uint256)": "15e8392b",
        "controlWitdrawl(bool)": "b17b6e44",
        "corteBinarioDo(address,uint256,uint256,uint256,uint256)": "07cb263f",
        "depositos(address)": "664e62b9",
        "descuento()": "7b0412ed",
        "dias()": "ab6db199",
        "directosBinario()": "d8771869",
        "espaciosRango(uint256)": "833a2a45",
        "factorPuntos()": "17b11e78",
        "gananciasRango(uint256)": "81032892",
        "idToAddress(uint256)": "2a2d0c47",
        "iniciado()": "83bd8528",
        "inicializar()": "dcbe327e",
        "insertion(address[],uint256)": "e760e99c",
        "inversiones()": "a77d2119",
        "investors(address)": "6f7bc9be",
        "lastUserId()": "348d4487",
        "leader(address)": "01288c71",
        "makeNewAdmin(address)": "69ed1e0a",
        "makeNewApi(address)": "1800df1b",
        "makeNewLeader(address)": "ac713a0b",
        "makeRemoveAdmin(address)": "70a0966b",
        "makeRemoveLeader(address)": "160e8d60",
        "miHands(address,uint256)": "45be691e",
        "misDirectos(address,uint256)": "555452c1",
        "multiPuntos()": "ee1934bc",
        "newRecompensa()": "69f4a84b",
        "onOffWitdrawl()": "e7348e8c",
        "owner()": "8da5cb5b",
        "padre(address)": "b35f0a8f",
        "personasBinary(address,uint256)": "aaf88052",
        "plan()": "53e06571",
        "porcent()": "4728f718",
        "porcentPuntosBinario()": "c2307ee6",
        "porcientoFee(uint256)": "9d1604b4",
        "porcientoRegistro(uint256)": "46e512a7",
        "porcientos(uint256)": "28cca719",
        "porcientosSalida(uint256)": "22c0a574",
        "precioRegistro()": "7db9e9c6",
        "puntosRango(uint256)": "21309f21",
        "rangoReclamado(address,uint256)": "2acc8210",
        "redimBNB()": "fd14d598",
        "redimToken()": "9e414b7c",
        "registro(address,uint8)": "c14b8361",
        "retirableA(address)": "ab4cc147",
        "setDescuento(uint256)": "b3d9fa09",
        "setMIN_RETIRO(uint256)": "4de1be62",
        "setPlan(uint256)": "a2add0aa",
        "setPorcientos(uint256,uint256)": "1e403c35",
        "setPorcientosSalida(uint256,uint256)": "5d216c60",
        "setPrecioRegistro(uint256,uint256[])": "586e04e1",
        "setWalletFee(address[],uint256[],uint256)": "db3be1a2",
        "setWalletstransfers(address[],uint256[])": "a8beb717",
        "setstate()": "85338e20",
        "tiempo()": "50188c08",
        "timerOut()": "aec68894",
        "totalInvested()": "5216aeec",
        "totalInvestors()": "29b8caff",
        "totalRefRewards()": "bfe0e020",
        "totalRefWitdrawl()": "9b8ff503",
        "unidades()": "4b9b8203",
        "updateTotalInvestors(uint256)": "ce4336c3",
        "valorBuy(uint256)": "ebd5d449",
        "walletBuy(uint256)": "c70b1ab3",
        "walletFee(uint256)": "7251b9ac",
        "walletRegistro(uint256)": "c7c1dd81",
        "withdraw()": "3ccfd60b",
        "withdrawable(address)": "ce513b6f",
        "withdrawableBinary(address)": "a95b4df9",
        "withdrawableRange(address)": "98c07d0a"
    },
    "gasEstimates": {
        "creation": {
            "codeDepositCost": "4793800",
            "executionCost": "47309",
            "totalCost": "4841109"
        },
        "external": {
            "": "265",
            "API()": "1225",
            "GanaMax()": "1142",
            "MAX_RETIRO()": "1185",
            "MIN_RETIRO()": "1162",
            "_registro(address,address,uint8)": "infinite",
            "activerFee()": "1184",
            "addressToId(address)": "1313",
            "admin(address)": "1414",
            "allnetwork(address[])": "infinite",
            "asignFreeMembership(address,address,uint8)": "infinite",
            "asignarPlan(address,uint256,bool)": "infinite",
            "asignarPuntosBinarios(address,uint256,uint256)": "infinite",
            "buyPlan(uint256)": "infinite",
            "column(address,uint256)": "infinite",
            "controlWitdrawl(bool)": "infinite",
            "corteBinarioDo(address,uint256,uint256,uint256,uint256)": "infinite",
            "depositos(address)": "infinite",
            "descuento()": "1161",
            "dias()": "1183",
            "directosBinario()": "1161",
            "espaciosRango(uint256)": "3792",
            "factorPuntos()": "1097",
            "gananciasRango(uint256)": "2087",
            "idToAddress(uint256)": "1326",
            "iniciado()": "1197",
            "inicializar()": "infinite",
            "insertion(address[],uint256)": "infinite",
            "inversiones()": "1162",
            "investors(address)": "12520",
            "lastUserId()": "1096",
            "leader(address)": "1328",
            "makeNewAdmin(address)": "infinite",
            "makeNewApi(address)": "infinite",
            "makeNewLeader(address)": "infinite",
            "makeRemoveAdmin(address)": "infinite",
            "makeRemoveLeader(address)": "infinite",
            "miHands(address,uint256)": "infinite",
            "misDirectos(address,uint256)": "infinite",
            "multiPuntos()": "1182",
            "newRecompensa()": "infinite",
            "onOffWitdrawl()": "1128",
            "owner()": "infinite",
            "padre(address)": "1400",
            "personasBinary(address,uint256)": "infinite",
            "plan()": "1185",
            "porcent()": "1184",
            "porcentPuntosBinario()": "1139",
            "porcientoFee(uint256)": "2064",
            "porcientoRegistro(uint256)": "2130",
            "porcientos(uint256)": "2065",
            "porcientosSalida(uint256)": "2153",
            "precioRegistro()": "1205",
            "puntosRango(uint256)": "2131",
            "rangoReclamado(address,uint256)": "3959",
            "redimBNB()": "infinite",
            "redimToken()": "infinite",
            "registro(address,uint8)": "infinite",
            "retirableA(address)": "1379",
            "setDescuento(uint256)": "infinite",
            "setMIN_RETIRO(uint256)": "infinite",
            "setPlan(uint256)": "infinite",
            "setPorcientos(uint256,uint256)": "infinite",
            "setPorcientosSalida(uint256,uint256)": "infinite",
            "setPrecioRegistro(uint256,uint256[])": "infinite",
            "setWalletFee(address[],uint256[],uint256)": "infinite",
            "setWalletstransfers(address[],uint256[])": "infinite",
            "setstate()": "2753",
            "tiempo()": "infinite",
            "timerOut()": "1096",
            "totalInvested()": "1163",
            "totalInvestors()": "1119",
            "totalRefRewards()": "1095",
            "totalRefWitdrawl()": "1184",
            "unidades()": "1097",
            "updateTotalInvestors(uint256)": "infinite",
            "valorBuy(uint256)": "2128",
            "walletBuy(uint256)": "2171",
            "walletFee(uint256)": "2127",
            "walletRegistro(uint256)": "2193",
            "withdraw()": "infinite",
            "withdrawable(address)": "infinite",
            "withdrawableBinary(address)": "infinite",
            "withdrawableRange(address)": "infinite"
        },
        "internal": {
            "_buyPlan(address,uint256,bool)": "infinite",
            "discountDeposits(address,uint256)": "infinite",
            "onlyAdmin()": "906",
            "onlyApi()": "849",
            "onlyLeader()": "906",
            "onlyOwner()": "infinite",
            "rewardReferers(address,uint256,uint256[] memory,bool)": "infinite"
        }
    }
}