{
    "contractName": "BinarySystemProxy",
    "abi": [
        {
            "inputs": [],
            "stateMutability": "nonpayable",
            "type": "constructor"
        },
        {
            "stateMutability": "payable",
            "type": "fallback"
        },
        {
            "inputs": [],
            "name": "API",
            "outputs": [
                {
                    "internalType": "address",
                    "name": "",
                    "type": "address"
                }
            ],
            "stateMutability": "view",
            "type": "function"
        },
        {
            "inputs": [],
            "name": "GanaMax",
            "outputs": [
                {
                    "internalType": "uint256",
                    "name": "",
                    "type": "uint256"
                }
            ],
            "stateMutability": "view",
            "type": "function"
        },
        {
            "inputs": [],
            "name": "MAX_RETIRO",
            "outputs": [
                {
                    "internalType": "uint256",
                    "name": "",
                    "type": "uint256"
                }
            ],
            "stateMutability": "view",
            "type": "function"
        },
        {
            "inputs": [],
            "name": "MIN_RETIRO",
            "outputs": [
                {
                    "internalType": "uint256",
                    "name": "",
                    "type": "uint256"
                }
            ],
            "stateMutability": "view",
            "type": "function"
        },
        {
            "inputs": [
                {
                    "internalType": "address",
                    "name": "_user",
                    "type": "address"
                },
                {
                    "internalType": "address",
                    "name": "_sponsor",
                    "type": "address"
                },
                {
                    "internalType": "uint8",
                    "name": "_hand",
                    "type": "uint8"
                }
            ],
            "name": "_registro",
            "outputs": [],
            "stateMutability": "nonpayable",
            "type": "function"
        },
        {
            "inputs": [],
            "name": "activerFee",
            "outputs": [
                {
                    "internalType": "uint256",
                    "name": "",
                    "type": "uint256"
                }
            ],
            "stateMutability": "view",
            "type": "function"
        },
        {
            "inputs": [
                {
                    "internalType": "address",
                    "name": "",
                    "type": "address"
                }
            ],
            "name": "addressToId",
            "outputs": [
                {
                    "internalType": "uint256",
                    "name": "",
                    "type": "uint256"
                }
            ],
            "stateMutability": "view",
            "type": "function"
        },
        {
            "inputs": [
                {
                    "internalType": "address",
                    "name": "",
                    "type": "address"
                }
            ],
            "name": "admin",
            "outputs": [
                {
                    "internalType": "bool",
                    "name": "",
                    "type": "bool"
                }
            ],
            "stateMutability": "view",
            "type": "function"
        },
        {
            "inputs": [
                {
                    "internalType": "address[]",
                    "name": "network",
                    "type": "address[]"
                }
            ],
            "name": "allnetwork",
            "outputs": [
                {
                    "internalType": "address[]",
                    "name": "",
                    "type": "address[]"
                }
            ],
            "stateMutability": "view",
            "type": "function"
        },
        {
            "inputs": [
                {
                    "internalType": "address",
                    "name": "_user",
                    "type": "address"
                },
                {
                    "internalType": "address",
                    "name": "_sponsor",
                    "type": "address"
                },
                {
                    "internalType": "uint8",
                    "name": "_hand",
                    "type": "uint8"
                }
            ],
            "name": "asignFreeMembership",
            "outputs": [],
            "stateMutability": "nonpayable",
            "type": "function"
        },
        {
            "inputs": [
                {
                    "internalType": "address",
                    "name": "_user",
                    "type": "address"
                },
                {
                    "internalType": "uint256",
                    "name": "_plan",
                    "type": "uint256"
                },
                {
                    "internalType": "bool",
                    "name": "_depago",
                    "type": "bool"
                }
            ],
            "name": "asignarPlan",
            "outputs": [],
            "stateMutability": "nonpayable",
            "type": "function"
        },
        {
            "inputs": [
                {
                    "internalType": "address",
                    "name": "_user",
                    "type": "address"
                },
                {
                    "internalType": "uint256",
                    "name": "_puntosLeft",
                    "type": "uint256"
                },
                {
                    "internalType": "uint256",
                    "name": "_puntosRigth",
                    "type": "uint256"
                }
            ],
            "name": "asignarPuntosBinarios",
            "outputs": [],
            "stateMutability": "nonpayable",
            "type": "function"
        },
        {
            "inputs": [
                {
                    "internalType": "uint256",
                    "name": "_value",
                    "type": "uint256"
                }
            ],
            "name": "buyPlan",
            "outputs": [],
            "stateMutability": "nonpayable",
            "type": "function"
        },
        {
            "inputs": [
                {
                    "internalType": "address",
                    "name": "yo",
                    "type": "address"
                },
                {
                    "internalType": "uint256",
                    "name": "_largo",
                    "type": "uint256"
                }
            ],
            "name": "column",
            "outputs": [
                {
                    "internalType": "address[]",
                    "name": "res",
                    "type": "address[]"
                }
            ],
            "stateMutability": "view",
            "type": "function"
        },
        {
            "inputs": [
                {
                    "internalType": "bool",
                    "name": "_true_false",
                    "type": "bool"
                }
            ],
            "name": "controlWitdrawl",
            "outputs": [],
            "stateMutability": "nonpayable",
            "type": "function"
        },
        {
            "inputs": [
                {
                    "internalType": "address",
                    "name": "any_user",
                    "type": "address"
                },
                {
                    "internalType": "uint256",
                    "name": "left",
                    "type": "uint256"
                },
                {
                    "internalType": "uint256",
                    "name": "rigth",
                    "type": "uint256"
                },
                {
                    "internalType": "uint256",
                    "name": "_retirableA",
                    "type": "uint256"
                },
                {
                    "internalType": "uint256",
                    "name": "_retirableB",
                    "type": "uint256"
                }
            ],
            "name": "corteBinarioDo",
            "outputs": [],
            "stateMutability": "nonpayable",
            "type": "function"
        },
        {
            "inputs": [
                {
                    "internalType": "address",
                    "name": "_user",
                    "type": "address"
                }
            ],
            "name": "depositos",
            "outputs": [
                {
                    "internalType": "uint256[]",
                    "name": "amount",
                    "type": "uint256[]"
                },
                {
                    "internalType": "uint256[]",
                    "name": "time",
                    "type": "uint256[]"
                },
                {
                    "internalType": "bool[]",
                    "name": "pasive",
                    "type": "bool[]"
                },
                {
                    "internalType": "bool[]",
                    "name": "activo",
                    "type": "bool[]"
                },
                {
                    "internalType": "uint256",
                    "name": "total",
                    "type": "uint256"
                },
                {
                    "internalType": "uint256",
                    "name": "totalValue",
                    "type": "uint256"
                }
            ],
            "stateMutability": "view",
            "type": "function"
        },
        {
            "inputs": [],
            "name": "descuento",
            "outputs": [
                {
                    "internalType": "uint256",
                    "name": "",
                    "type": "uint256"
                }
            ],
            "stateMutability": "view",
            "type": "function"
        },
        {
            "inputs": [],
            "name": "dias",
            "outputs": [
                {
                    "internalType": "uint256",
                    "name": "",
                    "type": "uint256"
                }
            ],
            "stateMutability": "view",
            "type": "function"
        },
        {
            "inputs": [],
            "name": "directosBinario",
            "outputs": [
                {
                    "internalType": "uint256",
                    "name": "",
                    "type": "uint256"
                }
            ],
            "stateMutability": "view",
            "type": "function"
        },
        {
            "inputs": [
                {
                    "internalType": "uint256",
                    "name": "",
                    "type": "uint256"
                }
            ],
            "name": "espaciosRango",
            "outputs": [
                {
                    "internalType": "bool",
                    "name": "",
                    "type": "bool"
                }
            ],
            "stateMutability": "view",
            "type": "function"
        },
        {
            "inputs": [],
            "name": "factorPuntos",
            "outputs": [
                {
                    "internalType": "uint256",
                    "name": "",
                    "type": "uint256"
                }
            ],
            "stateMutability": "view",
            "type": "function"
        },
        {
            "inputs": [
                {
                    "internalType": "uint256",
                    "name": "",
                    "type": "uint256"
                }
            ],
            "name": "gananciasRango",
            "outputs": [
                {
                    "internalType": "uint256",
                    "name": "",
                    "type": "uint256"
                }
            ],
            "stateMutability": "view",
            "type": "function"
        },
        {
            "inputs": [
                {
                    "internalType": "uint256",
                    "name": "",
                    "type": "uint256"
                }
            ],
            "name": "idToAddress",
            "outputs": [
                {
                    "internalType": "address",
                    "name": "",
                    "type": "address"
                }
            ],
            "stateMutability": "view",
            "type": "function"
        },
        {
            "inputs": [],
            "name": "iniciado",
            "outputs": [
                {
                    "internalType": "bool",
                    "name": "",
                    "type": "bool"
                }
            ],
            "stateMutability": "view",
            "type": "function"
        },
        {
            "inputs": [],
            "name": "inicializar",
            "outputs": [],
            "stateMutability": "nonpayable",
            "type": "function"
        },
        {
            "inputs": [
                {
                    "internalType": "address[]",
                    "name": "network",
                    "type": "address[]"
                },
                {
                    "internalType": "uint256",
                    "name": "_hand",
                    "type": "uint256"
                }
            ],
            "name": "insertion",
            "outputs": [
                {
                    "internalType": "address",
                    "name": "wallett",
                    "type": "address"
                }
            ],
            "stateMutability": "view",
            "type": "function"
        },
        {
            "inputs": [],
            "name": "inversiones",
            "outputs": [
                {
                    "internalType": "uint256",
                    "name": "",
                    "type": "uint256"
                }
            ],
            "stateMutability": "view",
            "type": "function"
        },
        {
            "inputs": [
                {
                    "internalType": "address",
                    "name": "",
                    "type": "address"
                }
            ],
            "name": "investors",
            "outputs": [
                {
                    "internalType": "bool",
                    "name": "registered",
                    "type": "bool"
                },
                {
                    "internalType": "uint256",
                    "name": "balanceRef",
                    "type": "uint256"
                },
                {
                    "internalType": "uint256",
                    "name": "balanceSal",
                    "type": "uint256"
                },
                {
                    "internalType": "uint256",
                    "name": "totalRef",
                    "type": "uint256"
                },
                {
                    "internalType": "uint256",
                    "name": "invested",
                    "type": "uint256"
                },
                {
                    "internalType": "uint256",
                    "name": "paidAt",
                    "type": "uint256"
                },
                {
                    "internalType": "uint256",
                    "name": "amount",
                    "type": "uint256"
                },
                {
                    "internalType": "uint256",
                    "name": "withdrawn",
                    "type": "uint256"
                },
                {
                    "components": [
                        {
                            "internalType": "uint256",
                            "name": "lReclamados",
                            "type": "uint256"
                        },
                        {
                            "internalType": "uint256",
                            "name": "lExtra",
                            "type": "uint256"
                        },
                        {
                            "internalType": "address",
                            "name": "lReferer",
                            "type": "address"
                        },
                        {
                            "internalType": "uint256",
                            "name": "rReclamados",
                            "type": "uint256"
                        },
                        {
                            "internalType": "uint256",
                            "name": "rExtra",
                            "type": "uint256"
                        },
                        {
                            "internalType": "address",
                            "name": "rReferer",
                            "type": "address"
                        }
                    ],
                    "internalType": "struct BinarySystemProxy.Hand",
                    "name": "hands",
                    "type": "tuple"
                }
            ],
            "stateMutability": "view",
            "type": "function"
        },
        {
            "inputs": [],
            "name": "lastUserId",
            "outputs": [
                {
                    "internalType": "uint256",
                    "name": "",
                    "type": "uint256"
                }
            ],
            "stateMutability": "view",
            "type": "function"
        },
        {
            "inputs": [
                {
                    "internalType": "address",
                    "name": "",
                    "type": "address"
                }
            ],
            "name": "leader",
            "outputs": [
                {
                    "internalType": "bool",
                    "name": "",
                    "type": "bool"
                }
            ],
            "stateMutability": "view",
            "type": "function"
        },
        {
            "inputs": [
                {
                    "internalType": "address payable",
                    "name": "_newadmin",
                    "type": "address"
                }
            ],
            "name": "makeNewAdmin",
            "outputs": [],
            "stateMutability": "nonpayable",
            "type": "function"
        },
        {
            "inputs": [
                {
                    "internalType": "address payable",
                    "name": "_newapi",
                    "type": "address"
                }
            ],
            "name": "makeNewApi",
            "outputs": [],
            "stateMutability": "nonpayable",
            "type": "function"
        },
        {
            "inputs": [
                {
                    "internalType": "address payable",
                    "name": "_newadmin",
                    "type": "address"
                }
            ],
            "name": "makeNewLeader",
            "outputs": [],
            "stateMutability": "nonpayable",
            "type": "function"
        },
        {
            "inputs": [
                {
                    "internalType": "address payable",
                    "name": "_oldadmin",
                    "type": "address"
                }
            ],
            "name": "makeRemoveAdmin",
            "outputs": [],
            "stateMutability": "nonpayable",
            "type": "function"
        },
        {
            "inputs": [
                {
                    "internalType": "address payable",
                    "name": "_oldadmin",
                    "type": "address"
                }
            ],
            "name": "makeRemoveLeader",
            "outputs": [],
            "stateMutability": "nonpayable",
            "type": "function"
        },
        {
            "inputs": [
                {
                    "internalType": "address",
                    "name": "_user",
                    "type": "address"
                },
                {
                    "internalType": "uint256",
                    "name": "_hand",
                    "type": "uint256"
                }
            ],
            "name": "miHands",
            "outputs": [
                {
                    "internalType": "uint256",
                    "name": "equipo",
                    "type": "uint256"
                },
                {
                    "internalType": "uint256",
                    "name": "extra",
                    "type": "uint256"
                },
                {
                    "internalType": "uint256",
                    "name": "reclamados",
                    "type": "uint256"
                },
                {
                    "internalType": "uint256",
                    "name": "capital",
                    "type": "uint256"
                },
                {
                    "internalType": "uint256",
                    "name": "directos",
                    "type": "uint256"
                },
                {
                    "internalType": "address",
                    "name": "referer",
                    "type": "address"
                }
            ],
            "stateMutability": "view",
            "type": "function"
        },
        {
            "inputs": [
                {
                    "internalType": "address",
                    "name": "_user",
                    "type": "address"
                },
                {
                    "internalType": "uint256",
                    "name": "_hand",
                    "type": "uint256"
                }
            ],
            "name": "misDirectos",
            "outputs": [
                {
                    "internalType": "address[]",
                    "name": "",
                    "type": "address[]"
                }
            ],
            "stateMutability": "view",
            "type": "function"
        },
        {
            "inputs": [],
            "name": "multiPuntos",
            "outputs": [
                {
                    "internalType": "uint256",
                    "name": "",
                    "type": "uint256"
                }
            ],
            "stateMutability": "view",
            "type": "function"
        },
        {
            "inputs": [],
            "name": "newRecompensa",
            "outputs": [],
            "stateMutability": "nonpayable",
            "type": "function"
        },
        {
            "inputs": [],
            "name": "onOffWitdrawl",
            "outputs": [
                {
                    "internalType": "bool",
                    "name": "",
                    "type": "bool"
                }
            ],
            "stateMutability": "view",
            "type": "function"
        },
        {
            "inputs": [],
            "name": "owner",
            "outputs": [
                {
                    "internalType": "address",
                    "name": "",
                    "type": "address"
                }
            ],
            "stateMutability": "view",
            "type": "function"
        },
        {
            "inputs": [
                {
                    "internalType": "address",
                    "name": "",
                    "type": "address"
                }
            ],
            "name": "padre",
            "outputs": [
                {
                    "internalType": "address",
                    "name": "",
                    "type": "address"
                }
            ],
            "stateMutability": "view",
            "type": "function"
        },
        {
            "inputs": [
                {
                    "internalType": "address",
                    "name": "_user",
                    "type": "address"
                },
                {
                    "internalType": "uint256",
                    "name": "_hand",
                    "type": "uint256"
                }
            ],
            "name": "personasBinary",
            "outputs": [
                {
                    "internalType": "uint256",
                    "name": "miTeam",
                    "type": "uint256"
                }
            ],
            "stateMutability": "view",
            "type": "function"
        },
        {
            "inputs": [],
            "name": "plan",
            "outputs": [
                {
                    "internalType": "uint256",
                    "name": "",
                    "type": "uint256"
                }
            ],
            "stateMutability": "view",
            "type": "function"
        },
        {
            "inputs": [],
            "name": "porcent",
            "outputs": [
                {
                    "internalType": "uint256",
                    "name": "",
                    "type": "uint256"
                }
            ],
            "stateMutability": "view",
            "type": "function"
        },
        {
            "inputs": [],
            "name": "porcentPuntosBinario",
            "outputs": [
                {
                    "internalType": "uint256",
                    "name": "",
                    "type": "uint256"
                }
            ],
            "stateMutability": "view",
            "type": "function"
        },
        {
            "inputs": [
                {
                    "internalType": "uint256",
                    "name": "",
                    "type": "uint256"
                }
            ],
            "name": "porcientoFee",
            "outputs": [
                {
                    "internalType": "uint256",
                    "name": "",
                    "type": "uint256"
                }
            ],
            "stateMutability": "view",
            "type": "function"
        },
        {
            "inputs": [
                {
                    "internalType": "uint256",
                    "name": "",
                    "type": "uint256"
                }
            ],
            "name": "porcientoRegistro",
            "outputs": [
                {
                    "internalType": "uint256",
                    "name": "",
                    "type": "uint256"
                }
            ],
            "stateMutability": "view",
            "type": "function"
        },
        {
            "inputs": [
                {
                    "internalType": "uint256",
                    "name": "",
                    "type": "uint256"
                }
            ],
            "name": "porcientos",
            "outputs": [
                {
                    "internalType": "uint256",
                    "name": "",
                    "type": "uint256"
                }
            ],
            "stateMutability": "view",
            "type": "function"
        },
        {
            "inputs": [
                {
                    "internalType": "uint256",
                    "name": "",
                    "type": "uint256"
                }
            ],
            "name": "porcientosSalida",
            "outputs": [
                {
                    "internalType": "uint256",
                    "name": "",
                    "type": "uint256"
                }
            ],
            "stateMutability": "view",
            "type": "function"
        },
        {
            "inputs": [],
            "name": "precioRegistro",
            "outputs": [
                {
                    "internalType": "uint256",
                    "name": "",
                    "type": "uint256"
                }
            ],
            "stateMutability": "view",
            "type": "function"
        },
        {
            "inputs": [
                {
                    "internalType": "uint256",
                    "name": "",
                    "type": "uint256"
                }
            ],
            "name": "puntosRango",
            "outputs": [
                {
                    "internalType": "uint256",
                    "name": "",
                    "type": "uint256"
                }
            ],
            "stateMutability": "view",
            "type": "function"
        },
        {
            "inputs": [
                {
                    "internalType": "address",
                    "name": "",
                    "type": "address"
                },
                {
                    "internalType": "uint256",
                    "name": "",
                    "type": "uint256"
                }
            ],
            "name": "rangoReclamado",
            "outputs": [
                {
                    "internalType": "bool",
                    "name": "",
                    "type": "bool"
                }
            ],
            "stateMutability": "view",
            "type": "function"
        },
        {
            "inputs": [],
            "name": "redimBNB",
            "outputs": [],
            "stateMutability": "nonpayable",
            "type": "function"
        },
        {
            "inputs": [],
            "name": "redimToken",
            "outputs": [],
            "stateMutability": "nonpayable",
            "type": "function"
        },
        {
            "inputs": [
                {
                    "internalType": "address",
                    "name": "_sponsor",
                    "type": "address"
                },
                {
                    "internalType": "uint8",
                    "name": "_hand",
                    "type": "uint8"
                }
            ],
            "name": "registro",
            "outputs": [],
            "stateMutability": "nonpayable",
            "type": "function"
        },
        {
            "inputs": [
                {
                    "internalType": "address",
                    "name": "",
                    "type": "address"
                }
            ],
            "name": "retirableA",
            "outputs": [
                {
                    "internalType": "uint256",
                    "name": "",
                    "type": "uint256"
                }
            ],
            "stateMutability": "view",
            "type": "function"
        },
        {
            "inputs": [
                {
                    "internalType": "uint256",
                    "name": "_descuento",
                    "type": "uint256"
                }
            ],
            "name": "setDescuento",
            "outputs": [],
            "stateMutability": "nonpayable",
            "type": "function"
        },
        {
            "inputs": [
                {
                    "internalType": "uint256",
                    "name": "_nivel",
                    "type": "uint256"
                },
                {
                    "internalType": "uint256",
                    "name": "_value",
                    "type": "uint256"
                }
            ],
            "name": "setPorcientos",
            "outputs": [],
            "stateMutability": "nonpayable",
            "type": "function"
        },
        {
            "inputs": [
                {
                    "internalType": "uint256",
                    "name": "_nivel",
                    "type": "uint256"
                },
                {
                    "internalType": "uint256",
                    "name": "_value",
                    "type": "uint256"
                }
            ],
            "name": "setPorcientosSalida",
            "outputs": [],
            "stateMutability": "nonpayable",
            "type": "function"
        },
        {
            "inputs": [
                {
                    "internalType": "uint256",
                    "name": "_precio",
                    "type": "uint256"
                },
                {
                    "internalType": "uint256[]",
                    "name": "_porcentaje",
                    "type": "uint256[]"
                }
            ],
            "name": "setPrecioRegistro",
            "outputs": [],
            "stateMutability": "nonpayable",
            "type": "function"
        },
        {
            "inputs": [
                {
                    "internalType": "uint256",
                    "name": "_min",
                    "type": "uint256"
                },
                {
                    "internalType": "uint256",
                    "name": "_max",
                    "type": "uint256"
                },
                {
                    "internalType": "uint256",
                    "name": "_plan",
                    "type": "uint256"
                }
            ],
            "name": "setVaribles",
            "outputs": [],
            "stateMutability": "nonpayable",
            "type": "function"
        },
        {
            "inputs": [
                {
                    "internalType": "address[]",
                    "name": "_wallet",
                    "type": "address[]"
                },
                {
                    "internalType": "uint256[]",
                    "name": "_fee",
                    "type": "uint256[]"
                },
                {
                    "internalType": "uint256",
                    "name": "_activerFee",
                    "type": "uint256"
                }
            ],
            "name": "setWalletFee",
            "outputs": [],
            "stateMutability": "nonpayable",
            "type": "function"
        },
        {
            "inputs": [
                {
                    "internalType": "address[]",
                    "name": "_wallets",
                    "type": "address[]"
                },
                {
                    "internalType": "uint256[]",
                    "name": "_valores",
                    "type": "uint256[]"
                }
            ],
            "name": "setWalletstransfers",
            "outputs": [],
            "stateMutability": "nonpayable",
            "type": "function"
        },
        {
            "inputs": [],
            "name": "setstate",
            "outputs": [
                {
                    "internalType": "uint256",
                    "name": "Investors",
                    "type": "uint256"
                },
                {
                    "internalType": "uint256",
                    "name": "Invested",
                    "type": "uint256"
                },
                {
                    "internalType": "uint256",
                    "name": "RefRewards",
                    "type": "uint256"
                }
            ],
            "stateMutability": "view",
            "type": "function"
        },
        {
            "inputs": [],
            "name": "tiempo",
            "outputs": [
                {
                    "internalType": "uint256",
                    "name": "",
                    "type": "uint256"
                }
            ],
            "stateMutability": "view",
            "type": "function"
        },
        {
            "inputs": [],
            "name": "timerOut",
            "outputs": [
                {
                    "internalType": "uint256",
                    "name": "",
                    "type": "uint256"
                }
            ],
            "stateMutability": "view",
            "type": "function"
        },
        {
            "inputs": [],
            "name": "totalInvested",
            "outputs": [
                {
                    "internalType": "uint256",
                    "name": "",
                    "type": "uint256"
                }
            ],
            "stateMutability": "view",
            "type": "function"
        },
        {
            "inputs": [],
            "name": "totalInvestors",
            "outputs": [
                {
                    "internalType": "uint256",
                    "name": "",
                    "type": "uint256"
                }
            ],
            "stateMutability": "view",
            "type": "function"
        },
        {
            "inputs": [],
            "name": "totalRefRewards",
            "outputs": [
                {
                    "internalType": "uint256",
                    "name": "",
                    "type": "uint256"
                }
            ],
            "stateMutability": "view",
            "type": "function"
        },
        {
            "inputs": [],
            "name": "totalRefWitdrawl",
            "outputs": [
                {
                    "internalType": "uint256",
                    "name": "",
                    "type": "uint256"
                }
            ],
            "stateMutability": "view",
            "type": "function"
        },
        {
            "inputs": [],
            "name": "unidades",
            "outputs": [
                {
                    "internalType": "uint256",
                    "name": "",
                    "type": "uint256"
                }
            ],
            "stateMutability": "view",
            "type": "function"
        },
        {
            "inputs": [
                {
                    "internalType": "address",
                    "name": "_token",
                    "type": "address"
                }
            ],
            "name": "updateToken",
            "outputs": [],
            "stateMutability": "nonpayable",
            "type": "function"
        },
        {
            "inputs": [
                {
                    "internalType": "uint256",
                    "name": "",
                    "type": "uint256"
                }
            ],
            "name": "valorBuy",
            "outputs": [
                {
                    "internalType": "uint256",
                    "name": "",
                    "type": "uint256"
                }
            ],
            "stateMutability": "view",
            "type": "function"
        },
        {
            "inputs": [
                {
                    "internalType": "uint256",
                    "name": "",
                    "type": "uint256"
                }
            ],
            "name": "walletBuy",
            "outputs": [
                {
                    "internalType": "address",
                    "name": "",
                    "type": "address"
                }
            ],
            "stateMutability": "view",
            "type": "function"
        },
        {
            "inputs": [
                {
                    "internalType": "uint256",
                    "name": "",
                    "type": "uint256"
                }
            ],
            "name": "walletFee",
            "outputs": [
                {
                    "internalType": "address",
                    "name": "",
                    "type": "address"
                }
            ],
            "stateMutability": "view",
            "type": "function"
        },
        {
            "inputs": [
                {
                    "internalType": "uint256",
                    "name": "",
                    "type": "uint256"
                }
            ],
            "name": "walletRegistro",
            "outputs": [
                {
                    "internalType": "address",
                    "name": "",
                    "type": "address"
                }
            ],
            "stateMutability": "view",
            "type": "function"
        },
        {
            "inputs": [],
            "name": "withdraw",
            "outputs": [],
            "stateMutability": "nonpayable",
            "type": "function"
        },
        {
            "inputs": [
                {
                    "internalType": "address",
                    "name": "any_user",
                    "type": "address"
                }
            ],
            "name": "withdrawable",
            "outputs": [
                {
                    "internalType": "uint256",
                    "name": "",
                    "type": "uint256"
                }
            ],
            "stateMutability": "view",
            "type": "function"
        },
        {
            "inputs": [
                {
                    "internalType": "address",
                    "name": "any_user",
                    "type": "address"
                }
            ],
            "name": "withdrawableBinary",
            "outputs": [
                {
                    "internalType": "uint256",
                    "name": "left",
                    "type": "uint256"
                },
                {
                    "internalType": "uint256",
                    "name": "rigth",
                    "type": "uint256"
                },
                {
                    "internalType": "uint256",
                    "name": "amount",
                    "type": "uint256"
                }
            ],
            "stateMutability": "view",
            "type": "function"
        },
        {
            "inputs": [
                {
                    "internalType": "address",
                    "name": "any_user",
                    "type": "address"
                }
            ],
            "name": "withdrawableRange",
            "outputs": [
                {
                    "internalType": "uint256",
                    "name": "amount",
                    "type": "uint256"
                }
            ],
            "stateMutability": "view",
            "type": "function"
        },
        {
            "stateMutability": "payable",
            "type": "receive"
        }
    ],
    "bytecode": "6080604052602b805460ff1916600117905534801561001d57600080fd5b50615ddc806200002e6000396000f3fe60806040526004361061048d5760003560e01c80637faee04711610255578063aec6889411610144578063c7c1dd81116100c1578063dcbe327e11610085578063dcbe327e14610d67578063e7348e8c14610d7c578063e760e99c14610d91578063ebd5d44914610db1578063ee1934bc14610dd1578063fd14d59814610de657610494565b8063c7c1dd8114610cd2578063cb0e0d7d14610cf2578063ce513b6f14610d12578063d877186914610d32578063db3be1a214610d4757610494565b8063bd9bee1911610108578063bd9bee1914610c53578063bfe0e02014610c68578063c14b836114610c7d578063c2307ee614610c9d578063c70b1ab314610cb257610494565b8063aec6889414610bbe578063b17b6e4414610bd3578063b35f0a8f14610bf3578063b3d9fa0914610c13578063b9af6cba14610c3357610494565b80639d1604b4116101d2578063a95b4df911610196578063a95b4df914610b29578063aaf8805214610b49578063ab4cc14714610b69578063ab6db19914610b89578063ac713a0b14610b9e57610494565b80639d1604b414610a9f5780639e414b7c14610abf578063a77d211914610ad4578063a80b223b14610ae9578063a8beb71714610b0957610494565b806385338e201161021957806385338e2014610a11578063877f9b9114610a355780638da5cb5b14610a5557806398c07d0a14610a6a5780639b8ff50314610a8a57610494565b80637faee0471461097c578063810328921461099c5780638321a1b2146109bc578063833a2a45146109dc57806383bd8528146109fc57610494565b80634b9b82031161037c57806369ed1e0a116102f95780637251b9ac116102bd5780637251b9ac146108dd57806376d1158d146108fd5780637ad3def21461091d5780637b0412ed1461093d5780637d7b0099146109525780637db9e9c61461096757610494565b806369ed1e0a1461083e57806369f4a84b1461085e5780636c529279146108735780636f7bc9be1461088857806370a0966b146108bd57610494565b8063586e04e111610340578063586e04e11461078c5780635a090c2d146107ac5780635d216c60146107cc57806363a846f8146107ec578063664e62b91461080c57610494565b80634b9b82031461071857806350188c081461072d5780635216aeec1461074257806353e0657114610757578063555452c11461076c57610494565b806328cca7191161040a578063348d4487116103ce578063348d4487146106875780633ccfd60b1461069c57806345be691e146106b157806346e512a7146106e35780634728f7181461070357610494565b806328cca719146105f057806329b8caff146106105780632a2d0c47146106255780632acc821014610652578063313e70ee1461067257610494565b806317b11e781161045157806317b11e781461055b5780631800df1b146105705780631e403c351461059057806321309f21146105b057806322c0a574146105d057610494565b806301288c711461049657806307cb263f146104cc5780630a33879e146104ec57806315e8392b1461050e578063160e8d601461053b57610494565b3661049457005b005b3480156104a257600080fd5b506104b66104b1366004615650565b610dfb565b6040516104c39190615b9b565b60405180910390f35b3480156104d857600080fd5b506104946104e736600461576e565b610e10565b3480156104f857600080fd5b50610501610f56565b6040516104c39190615c30565b34801561051a57600080fd5b5061052e6105293660046156ce565b610f5c565b6040516104c39190615aeb565b34801561054757600080fd5b50610494610556366004615650565b610fc8565b34801561056757600080fd5b50610501611019565b34801561057c57600080fd5b5061049461058b366004615650565b61101f565b34801561059c57600080fd5b506104946105ab3660046159c9565b611049565b3480156105bc57600080fd5b506105016105cb36600461595e565b611083565b3480156105dc57600080fd5b506105016105eb36600461595e565b6110a4565b3480156105fc57600080fd5b5061050161060b36600461595e565b6110b4565b34801561061c57600080fd5b506105016110c4565b34801561063157600080fd5b5061064561064036600461595e565b6110ca565b6040516104c39190615a80565b34801561065e57600080fd5b506104b661066d3660046156ce565b6110e5565b34801561067e57600080fd5b50610501611128565b34801561069357600080fd5b5061050161112e565b3480156106a857600080fd5b50610494611134565b3480156106bd57600080fd5b506106d16106cc3660046156ce565b611553565b6040516104c396959493929190615c4f565b3480156106ef57600080fd5b506105016106fe36600461595e565b6117fb565b34801561070f57600080fd5b5061050161180b565b34801561072457600080fd5b50610501611811565b34801561073957600080fd5b50610501611817565b34801561074e57600080fd5b50610501611835565b34801561076357600080fd5b5061050161183b565b34801561077857600080fd5b5061052e6107873660046156ce565b611841565b34801561079857600080fd5b506104946107a736600461598e565b611936565b3480156107b857600080fd5b506104946107c736600461573a565b61195b565b3480156107d857600080fd5b506104946107e73660046159c9565b6119d5565b3480156107f857600080fd5b506104b6610807366004615650565b6119ff565b34801561081857600080fd5b5061082c610827366004615650565b611a14565b6040516104c396959493929190615b38565b34801561084a57600080fd5b50610494610859366004615650565b611db5565b34801561086a57600080fd5b50610494611df7565b34801561087f57600080fd5b50610501611fd3565b34801561089457600080fd5b506108a86108a3366004615650565b611fd9565b6040516104c399989796959493929190615ba6565b3480156108c957600080fd5b506104946108d8366004615650565b612076565b3480156108e957600080fd5b506106456108f836600461595e565b6120b2565b34801561090957600080fd5b50610494610918366004615688565b6120dc565b34801561092957600080fd5b50610494610938366004615650565b6123d5565b34801561094957600080fd5b506105016123ff565b34801561095e57600080fd5b50610645612405565b34801561097357600080fd5b50610501612414565b34801561098857600080fd5b5061052e6109973660046157e5565b61241a565b3480156109a857600080fd5b506105016109b736600461595e565b612790565b3480156109c857600080fd5b506104946109d7366004615688565b6127a0565b3480156109e857600080fd5b506104b66109f736600461595e565b6127b3565b348015610a0857600080fd5b506104b66127e7565b348015610a1d57600080fd5b50610a266127f0565b6040516104c393929190615c39565b348015610a4157600080fd5b50610494610a503660046156f9565b6127fe565b348015610a6157600080fd5b50610645612821565b348015610a7657600080fd5b50610501610a85366004615650565b61289e565b348015610a9657600080fd5b50610501612903565b348015610aab57600080fd5b50610501610aba36600461595e565b612909565b348015610acb57600080fd5b50610494612919565b348015610ae057600080fd5b50610501612a2c565b348015610af557600080fd5b50610494610b0436600461595e565b612a32565b348015610b1557600080fd5b50610494610b24366004615818565b612d07565b348015610b3557600080fd5b50610a26610b44366004615650565b612d36565b348015610b5557600080fd5b50610501610b643660046156ce565b6130c5565b348015610b7557600080fd5b50610501610b84366004615650565b613879565b348015610b9557600080fd5b5061050161388b565b348015610baa57600080fd5b50610494610bb9366004615650565b613891565b348015610bca57600080fd5b506105016138e7565b348015610bdf57600080fd5b50610494610bee366004615926565b6138ed565b348015610bff57600080fd5b50610645610c0e366004615650565b613908565b348015610c1f57600080fd5b50610494610c2e36600461595e565b613923565b348015610c3f57600080fd5b50610494610c4e3660046159ea565b613930565b348015610c5f57600080fd5b50610501613946565b348015610c7457600080fd5b5061050161394c565b348015610c8957600080fd5b50610494610c983660046157b1565b613952565b348015610ca957600080fd5b50610501613b2b565b348015610cbe57600080fd5b50610645610ccd36600461595e565b613b31565b348015610cde57600080fd5b50610645610ced36600461595e565b613b41565b348015610cfe57600080fd5b50610501610d0d366004615650565b613b51565b348015610d1e57600080fd5b50610501610d2d366004615650565b613b63565b348015610d3e57600080fd5b50610501613de1565b348015610d5357600080fd5b50610494610d62366004615879565b613de7565b348015610d7357600080fd5b50610494613e1e565b348015610d8857600080fd5b506104b6614348565b348015610d9d57600080fd5b50610645610dac3660046158e3565b614351565b348015610dbd57600080fd5b50610501610dcc36600461595e565b6148e8565b348015610ddd57600080fd5b506105016148f8565b348015610df257600080fd5b506104946148fe565b60026020526000908152604090205460ff1681565b610e18614946565b6017546001600160a01b0386166000908152600460205260409020600501544291610e4291615cce565b11610f4f578315801590610e5557508215155b15610ef3576001600160a01b038516600090815260046020526040902083851015610eb8578481600b016000016000828254610e919190615cce565b9091555050600e81018054869190600090610ead908490615cce565b90915550610ef19050565b8381600b016000016000828254610ecf9190615cce565b9091555050600e81018054859190600090610eeb908490615cce565b90915550505b505b8115610f15576001600160a01b03851660009081526003602052604090208290555b8015610f2557610f25858261495f565b6001600160a01b038516600090815260046020526040812042600582015560018101829055600201555b5050505050565b600c5481565b606060005b82811015610fc1576001600160a01b03808516600090815260056020526040902054610f8f91849116614a18565b6001600160a01b0394851660009081526005602052604090205490941693915080610fb981615d3c565b915050610f61565b5092915050565b610fd0614b41565b6001600160a01b038116610fe357600080fd5b6001600160a01b03166000908152600260209081526040808320805460ff19908116909155600190925290912080549091169055565b601a5481565b611027614b41565b600980546001600160a01b0319166001600160a01b0392909216919091179055565b611051614b41565b80600f838154811061107357634e487b7160e01b600052603260045260246000fd5b6000918252602090912001555050565b6013818154811061109357600080fd5b600091825260209091200154905081565b6010818154811061109357600080fd5b600f818154811061109357600080fd5b601e5481565b6006602052600090815260409020546001600160a01b031681565b6008602052816000526040600020818154811061110157600080fd5b9060005260206000209060209182820401919006915091509054906101000a900460ff1681565b600b5481565b60225481565b60145460ff1661114357600080fd5b3360009081526003602052604080822054915490516370a0823160e01b815282916001600160a01b0316906370a0823190611182903090600401615a80565b60206040518083038186803b15801561119a57600080fd5b505afa1580156111ae573d6000803e3d6000fd5b505050506040513d601f19601f820116820180604052508101906111d29190615976565b10156111dd57600080fd5b600a548110156111ec57600080fd5b33600090815260046020526040812060078101805491928492611210908490615cce565b9091555050600b5482111561124857600b5461122c9083615d25565b600c600082825461123d9190615cce565b9091555050600b5491505b60285460649060011161140b5760005b60235481101561140957306001600160a01b03166023828154811061128d57634e487b7160e01b600052603260045260246000fd5b6000918252602090912001546001600160a01b0316146113b757600054602380546001600160a01b039092169163a9059cbb9190849081106112df57634e487b7160e01b600052603260045260246000fd5b9060005260206000200160009054906101000a90046001600160a01b031661134660646113406024878154811061132657634e487b7160e01b600052603260045260246000fd5b90600052602060002001548a614b6690919063ffffffff16565b90614b9f565b6040518363ffffffff1660e01b8152600401611363929190615ad2565b602060405180830381600087803b15801561137d57600080fd5b505af1158015611391573d6000803e3d6000fd5b505050506040513d601f19601f820116820180604052508101906113b59190615942565b505b6113f5602482815481106113db57634e487b7160e01b600052603260045260246000fd5b906000526020600020015483614bc190919063ffffffff16565b91508061140181615d3c565b915050611258565b505b6000546001600160a01b031663a9059cbb3361142c60646113408887614b66565b6040518363ffffffff1660e01b8152600401611449929190615ad2565b602060405180830381600087803b15801561146357600080fd5b505af1158015611477573d6000803e3d6000fd5b505050506040513d601f19601f8201168201806040525081019061149b9190615942565b506114f9338460108054806020026020016040519081016040528092919081815260200182805480156114ed57602002820191906000526020600020905b8154815260200190600101908083116114d9575b50505050506001614bdc565b816006015483106115105760006006830155611525565b600682015461151f9084614bc1565b60068301555b33600090815260036020526040812081905560218054859290611549908490615cce565b9091555050505050565b6001600160a01b0382166000908152600460208181526040808420815161018081018352815460ff161515815260018201548185015260028201548184015260038201546060820152938101546080850152600581015460a0850152600681015460c0850152600781015460e08501526008810180548351818602810186019094528084528695869586958695869586959193610100860193929083018282801561162757602002820191906000526020600020905b81546001600160a01b03168152600190910190602001808311611609575b505050505081526020016009820180548060200260200160405190810160405280929190818152602001828054801561168957602002820191906000526020600020905b81546001600160a01b0316815260019091019060200180831161166b575b50505050508152602001600a8201805480602002602001604051908101604052809291908181526020016000905b82821015611710576000848152602090819020604080516080810182526004860290920180548352600180820154848601526002820154928401929092526003015460ff161515606083015290835290920191016116b7565b505050908252506040805160c081018252600b8401548152600c840154602082810191909152600d8501546001600160a01b0390811693830193909352600e8501546060830152600f850154608083015260109094015490911660a0820152910152610160810151909150886117b95761178a8a8a6130c5565b6020820151825160808501516117a08e8e611841565b51856040015197509750975097509750975050506117f1565b6117c38a8a6130c5565b8160800151826060015184608001516117dc8e8e611841565b518560a0015197509750975097509750975050505b9295509295509295565b6027818154811061109357600080fd5b60185481565b60165481565b6000611830601654601554614b6690919063ffffffff16565b905090565b601f5481565b600d5481565b6060816118bf576001600160a01b038316600090815260046020908152604091829020600801805483518184028101840190945280845290918301828280156118b357602002820191906000526020600020905b81546001600160a01b03168152600190910190602001808311611895575b50505050509050611930565b6001600160a01b038316600090815260046020908152604091829020600901805483518184028101840190945280845290918301828280156118b3576020028201919060005260206000209081546001600160a01b0316815260019091019060200180831161189557505050505090505b92915050565b61193e614b41565b60268290558051611956906027906020840190615209565b505050565b611963614ea1565b6001600160a01b0383166000908152600460205260409020805460ff1661198957600080fd5b82156119ac578281600b0160010160008282546119a69190615cce565b90915550505b81156119cf578181600b0160040160008282546119c99190615cce565b90915550505b50505050565b6119dd614b41565b806010838154811061107357634e487b7160e01b600052603260045260246000fd5b60016020526000908152604090205460ff1681565b6001600160a01b0381166000908152600460208181526040808420815161018081018352815460ff16151581526001820154818501526002820154818401526003820154606082810191909152948201546080820152600582015460a0820152600682015460c0820152600782015460e0820152600882018054845181870281018701909552808552959687968796879692958695869590949193610100860193830182828015611aee57602002820191906000526020600020905b81546001600160a01b03168152600190910190602001808311611ad0575b5050505050815260200160098201805480602002602001604051908101604052809291908181526020018280548015611b5057602002820191906000526020600020905b81546001600160a01b03168152600190910190602001808311611b32575b50505050508152602001600a8201805480602002602001604051908101604052809291908181526020016000905b82821015611bd7576000848152602090819020604080516080810182526004860290920180548352600180820154848601526002820154928401929092526003015460ff16151560608301529083529092019101611b7e565b505050908252506040805160c081018252600b8401548152600c840154602082810191909152600d8501546001600160a01b0390811693830193909352600e8501546060830152600f850154608083015260109094015490911660a0820152910152905060005b81610140015151811015611daa5760008261014001518281518110611c7357634e487b7160e01b600052603260045260246000fd5b60200260200101519050611c94816000015189614ebd90919063ffffffff16565b97506000611ca0611817565b8251611cac9190615cce565b9050600082600001518560a0015111611cc6578251611ccc565b8460a001515b90506000824211611cdd5742611cdf565b825b90508115801590611cef57508082105b15611d4857836060015115611d3657611d06611817565b611d108383615d25565b8560200151611d1f9190615d06565b611d299190615ce6565b611d339089615cce565b97505b611d41896001614fc5565b9850611d56565b611d53896000614fc5565b98505b6020840151611d66908d90614ebd565b9b50611d7f84606001518b614fc590919063ffffffff16565b9950836040015187611d919190615cce565b9650505050508080611da290615d3c565b915050611c3e565b505091939550919395565b611dbd614b41565b6001600160a01b038116611dd057600080fd5b6001600160a01b03166000908152600160208190526040909120805460ff19169091179055565b60145460ff16611e0657600080fd5b6000611e113361289e565b905060005b601254811015611fcf5760138181548110611e4157634e487b7160e01b600052603260045260246000fd5b90600052602060002001548210158015611ea75750336000908152600860205260409020805482908110611e8557634e487b7160e01b600052603260045260246000fd5b90600052602060002090602091828204019190069054906101000a900460ff16155b15611fbd57600054601280546001600160a01b039092169163a9059cbb91339185908110611ee557634e487b7160e01b600052603260045260246000fd5b90600052602060002001546040518363ffffffff1660e01b8152600401611f0d929190615ad2565b602060405180830381600087803b158015611f2757600080fd5b505af1158015611f3b573d6000803e3d6000fd5b505050506040513d601f19601f82011682018060405250810190611f5f9190615942565b5033600090815260086020526040902080546001919083908110611f9357634e487b7160e01b600052603260045260246000fd5b90600052602060002090602091828204019190066101000a81548160ff0219169083151502179055505b80611fc781615d3c565b915050611e16565b5050565b600a5481565b6004602081815260009283526040928390208054600182015460028301546003840154958401546005850154600686015460078701548a5160c081018c52600b8901548152600c89015499810199909952600d8801546001600160a01b039081169b8a019b909b52600e88015460608a0152600f88015460808a015260109097015490991660a088015260ff909416979296919591949093929189565b61207e614b41565b6001600160a01b03811661209157600080fd5b6001600160a01b03166000908152600160205260409020805460ff19169055565b602381815481106120c257600080fd5b6000918252602090912001546001600160a01b0316905081565b60018160ff1611156120ed57600080fd5b6001600160a01b038316600090815260046020526040902060078101541561211457600080fd5b805460ff191660011781556001600160a01b03808516600090815260056020526040902080549185166001600160a01b03199092168217905515612302576001600160a01b038316600090815260046020526040902060ff831661224057600881018054600181018255600091825260209091200180546001600160a01b0319166001600160a01b0387811691909117909155600d820154166121d357600d810180546001600160a01b0319166001600160a01b03871617905561223b565b600d810154606090600490600090612202906121f99085906001600160a01b0316614a18565b8760ff16614351565b6001600160a01b0390811682526020820192909252604001600020600d810180546001600160a01b031916928916929092179091559150505b612300565b600981018054600181018255600091825260209091200180546001600160a01b0319166001600160a01b03878116919091179091556010820154166122a1576010810180546001600160a01b0319166001600160a01b038716179055612300565b60108101546060906004906000906122c7906121f99085906001600160a01b0316614a18565b6001600160a01b03908116825260208201929092526040016000206010810180546001600160a01b031916928916929092179091559150505b505b61230a612821565b6001600160a01b0316846001600160a01b03161461233857601e805490600061233283615d3c565b91905055505b6022546000908152600660205260409020546001600160a01b03166119cf576001600160a01b03841660009081526008602052604090206011805461237e929190615254565b5060228054600090815260066020908152604080832080546001600160a01b0319166001600160a01b038a1690811790915584549084526007909252822081905591906123ca83615d3c565b919050555050505050565b6123dd614b41565b600080546001600160a01b0319166001600160a01b0392909216919091179055565b601d5481565b6009546001600160a01b031681565b60265481565b60606124246152a2565b60005b8351811015612785576004600085838151811061245457634e487b7160e01b600052603260045260246000fd5b6020908102919091018101516001600160a01b03168252818101929092526040908101600020815161018081018352815460ff16151581526001820154818501526002820154818401526003820154606082015260048201546080820152600582015460a0820152600682015460c0820152600782015460e08201526008820180548451818702810187019095528085529194929361010086019390929083018282801561252b57602002820191906000526020600020905b81546001600160a01b0316815260019091019060200180831161250d575b505050505081526020016009820180548060200260200160405190810160405280929190818152602001828054801561258d57602002820191906000526020600020905b81546001600160a01b0316815260019091019060200180831161256f575b50505050508152602001600a8201805480602002602001604051908101604052809291908181526020016000905b82821015612614576000848152602090819020604080516080810182526004860290920180548352600180820154848601526002820154928401929092526003015460ff161515606083015290835290920191016125bb565b505050908252506040805160c081018252600b8401548152600c840154602082810191909152600d8501546001600160a01b0390811683850152600e8601546060840152600f860154608084015260109095015490941660a0808301919091529390920191909152610160830151908101519101519193509060005b8651811015612737578681815181106126b957634e487b7160e01b600052603260045260246000fd5b60200260200101516001600160a01b0316836001600160a01b031614156126df57600092505b8681815181106126ff57634e487b7160e01b600052603260045260246000fd5b60200260200101516001600160a01b0316826001600160a01b0316141561272557600091505b8061272f81615d3c565b915050612690565b506001600160a01b03821615612754576127518683614a18565b95505b6001600160a01b038116156127705761276d8682614a18565b95505b5050808061277d90615d3c565b915050612427565b50829150505b919050565b6012818154811061109357600080fd5b6127a86150d6565b6119568383836120dc565b601181815481106127c357600080fd5b9060005260206000209060209182820401919006915054906101000a900460ff1681565b602b5460ff1681565b601e54601f54602054909192565b6128066150d6565b81600d546128149190615d06565b91506119568383836150f2565b600080309050806001600160a01b031663f851a4406040518163ffffffff1660e01b815260040160206040518083038186803b15801561286057600080fd5b505afa158015612874573d6000803e3d6000fd5b505050506040513d601f19601f82011682018060405250810190612898919061566c565b91505090565b6001600160a01b0381166000908152600460205260408120600c810154600b82015483916128cc91906151ed565b600f830154600e8401549192506000916128e5916151ed565b9050808210156128f7578193506128fb565b8093505b505050919050565b60215481565b6024818154811061109357600080fd5b612921614b41565b6000546001600160a01b031663a9059cbb61293a612821565b6000546040516370a0823160e01b81526001600160a01b03909116906370a082319061296a903090600401615a80565b60206040518083038186803b15801561298257600080fd5b505afa158015612996573d6000803e3d6000fd5b505050506040513d601f19601f820116820180604052508101906129ba9190615976565b6040518363ffffffff1660e01b81526004016129d7929190615ad2565b602060405180830381600087803b1580156129f157600080fd5b505af1158015612a05573d6000803e3d6000fd5b505050506040513d601f19601f82011682018060405250810190612a299190615942565b50565b600e5481565b80600d54612a409190615d06565b905080601f6000828254612a549190615cce565b9091555050600054604051636eb1769f60e11b815282916001600160a01b03169063dd62ed3e90612a8b9033903090600401615a94565b60206040518083038186803b158015612aa357600080fd5b505afa158015612ab7573d6000803e3d6000fd5b505050506040513d601f19601f82011682018060405250810190612adb9190615976565b1015612ae657600080fd5b6000546040516323b872dd60e01b81526001600160a01b03909116906323b872dd90612b1a90339030908690600401615aae565b602060405180830381600087803b158015612b3457600080fd5b505af1158015612b48573d6000803e3d6000fd5b505050506040513d601f19601f82011682018060405250810190612b6c9190615942565b612b7557600080fd5b60005b602954811015612c9d57600054602980546001600160a01b039092169163a9059cbb919084908110612bba57634e487b7160e01b600052603260045260246000fd5b9060005260206000200160009054906101000a90046001600160a01b0316612c1b6064611340602a8781548110612c0157634e487b7160e01b600052603260045260246000fd5b906000526020600020015488614b6690919063ffffffff16565b6040518363ffffffff1660e01b8152600401612c38929190615ad2565b602060405180830381600087803b158015612c5257600080fd5b505af1158015612c66573d6000803e3d6000fd5b505050506040513d601f19601f82011682018060405250810190612c8a9190615942565b5080612c9581615d3c565b915050612b78565b50612caa338260006150f2565b612a293382600f805480602002602001604051908101604052809291908181526020018280548015612cfb57602002820191906000526020600020905b815481526020019060010190808311612ce7575b50505050506000614bdc565b612d0f614b41565b8151612d2290602990602085019061530a565b50805161195690602a906020840190615209565b6001600160a01b038082166000908152600460205260408120600d810154919283928392916060911615801590612d895750600d8201546001600160a01b031660009081526004602052604090205460ff165b15612e9557600d820154612dab906109979083906001600160a01b0316614a18565b905060005b8151811015612e3e5760046000838381518110612ddd57634e487b7160e01b600052603260045260246000fd5b60200260200101516001600160a01b03166001600160a01b031681526020019081526020016000209250612e20601a548460040154614b9f90919063ffffffff16565b612e2a9087615cce565b955080612e3681615d3c565b915050612db0565b506001600160a01b0386166000908152600460205260409020600c810154909250612e699086615cce565b94508482600b01600001541115612e835760009450612e95565b600b820154612e929086615d25565b94505b60108201546001600160a01b031615801590612ecd575060108201546001600160a01b031660009081526004602052604090205460ff165b15612fdf576010820154612eef906109979083906001600160a01b0316614a18565b905060005b8151811015612f885760046000838381518110612f2157634e487b7160e01b600052603260045260246000fd5b60200260200101516001600160a01b03166001600160a01b031681526020019081526020016000209250612f6a601a546113406019548660040154614b6690919063ffffffff16565b612f749086615cce565b945080612f8081615d3c565b915050612ef4565b506001600160a01b0386166000908152600460205260409020600f810154909250612fb39085615cce565b93508482600b01600301541115612fcd5760009450612fdf565b600e820154612fdc9085615d25565b93505b601c54612fed876001611841565b51612ff9886000611841565b516130049190615cce565b106130bc578385101561306f5781600601546130306064611340601b5489614b6690919063ffffffff16565b116130625761305b6064611340601954613055601b548a614b6690919063ffffffff16565b90614b66565b925061306a565b816006015492505b6130bc565b816006015461308e6064611340601b5488614b6690919063ffffffff16565b116130b4576130ad6064611340601b5487614b6690919063ffffffff16565b92506130bc565b816006015492505b50509193909250565b6001600160a01b0382166000908152600460208181526040808420815161018081018352815460ff161515815260018201548185015260028201548184015260038201546060820152938101546080850152600581015460a0850152600681015460c0850152600781015460e085015260088101805483518186028101860190945280845286959492936101008601939092919083018282801561319257602002820191906000526020600020905b81546001600160a01b03168152600190910190602001808311613174575b50505050508152602001600982018054806020026020016040519081016040528092919081815260200182805480156131f457602002820191906000526020600020905b81546001600160a01b031681526001909101906020018083116131d6575b50505050508152602001600a8201805480602002602001604051908101604052809291908181526020016000905b8282101561327b576000848152602090819020604080516080810182526004860290920180548352600180820154848601526002820154928401929092526003015460ff16151560608301529083529092019101613222565b505050908252506040805160c081018252600b8401548152600c840154602082810191909152600d8501546001600160a01b0390811693830193909352600e8501546060830152600f850154608083015260109094015490911660a08201529101529050826135ae57610160810151604001516001600160a01b031615801590613303575080515b156135a95760606133296109978361016001516040015183614a1890919063ffffffff16565b905060005b81518110156135a65782511561334c578361334881615d3c565b9450505b6004600083838151811061337057634e487b7160e01b600052603260045260246000fd5b6020908102919091018101516001600160a01b03168252818101929092526040908101600020815161018081018352815460ff16151581526001820154818501526002820154818401526003820154606082015260048201546080820152600582015460a0820152600682015460c0820152600782015460e08201526008820180548451818702810187019095528085529194929361010086019390929083018282801561344757602002820191906000526020600020905b81546001600160a01b03168152600190910190602001808311613429575b50505050508152602001600982018054806020026020016040519081016040528092919081815260200182805480156134a957602002820191906000526020600020905b81546001600160a01b0316815260019091019060200180831161348b575b50505050508152602001600a8201805480602002602001604051908101604052809291908181526020016000905b82821015613530576000848152602090819020604080516080810182526004860290920180548352600180820154848601526002820154928401929092526003015460ff161515606083015290835290920191016134d7565b505050908252506040805160c081018252600b8401548152600c840154602082810191909152600d8501546001600160a01b0390811693830193909352600e8501546060830152600f850154608083015260109094015490911660a082015291015292508061359e81615d3c565b91505061332e565b50505b610fc1565b61016081015160a001516001600160a01b0316158015906135cd575080515b15610fc15760606135f361099783610160015160a0015183614a1890919063ffffffff16565b905060005b815181101561387057825115613616578361361281615d3c565b9450505b6004600083838151811061363a57634e487b7160e01b600052603260045260246000fd5b6020908102919091018101516001600160a01b03168252818101929092526040908101600020815161018081018352815460ff16151581526001820154818501526002820154818401526003820154606082015260048201546080820152600582015460a0820152600682015460c0820152600782015460e08201526008820180548451818702810187019095528085529194929361010086019390929083018282801561371157602002820191906000526020600020905b81546001600160a01b031681526001909101906020018083116136f3575b505050505081526020016009820180548060200260200160405190810160405280929190818152602001828054801561377357602002820191906000526020600020905b81546001600160a01b03168152600190910190602001808311613755575b50505050508152602001600a8201805480602002602001604051908101604052809291908181526020016000905b828210156137fa576000848152602090819020604080516080810182526004860290920180548352600180820154848601526002820154928401929092526003015460ff161515606083015290835290920191016137a1565b505050908252506040805160c081018252600b8401548152600c840154602082810191909152600d8501546001600160a01b0390811693830193909352600e8501546060830152600f850154608083015260109094015490911660a082015291015292508061386881615d3c565b9150506135f8565b50505092915050565b60036020526000908152604090205481565b60155481565b613899614b41565b6001600160a01b0381166138ac57600080fd5b6001600160a01b031660009081526002602090815260408083208054600160ff19918216811790925592819052922080549091169091179055565b60175481565b6138f5614b41565b6014805460ff1916911515919091179055565b6005602052600090815260409020546001600160a01b031681565b61392b614b41565b601d55565b613938614b41565b600a92909255600b55600d55565b60285481565b60205481565b60265415613b20576000546026546040516323b872dd60e01b81526001600160a01b03909216916323b872dd9161398f9133913091600401615aae565b602060405180830381600087803b1580156139a957600080fd5b505af11580156139bd573d6000803e3d6000fd5b505050506040513d601f19601f820116820180604052508101906139e19190615942565b6139ea57600080fd5b600260285410613b205760005b602554811015613b1e57600054602580546001600160a01b039092169163a9059cbb919084908110613a3957634e487b7160e01b600052603260045260246000fd5b9060005260206000200160009054906101000a90046001600160a01b0316613a9c606461134060278781548110613a8057634e487b7160e01b600052603260045260246000fd5b9060005260206000200154602654614b6690919063ffffffff16565b6040518363ffffffff1660e01b8152600401613ab9929190615ad2565b602060405180830381600087803b158015613ad357600080fd5b505af1158015613ae7573d6000803e3d6000fd5b505050506040513d601f19601f82011682018060405250810190613b0b9190615942565b5080613b1681615d3c565b9150506139f7565b505b611fcf3383836120dc565b601b5481565b602981815481106120c257600080fd5b602581815481106120c257600080fd5b60076020526000908152604090205481565b6001600160a01b0381166000908152600460208181526040808420815161018081018352815460ff161515815260018201548185015260028201548184015260038201546060820152938101546080850152600581015460a0850152600681015460c0850152600781015460e0850152600881018054835181860281018601909452808452869594929361010086019390929190830182828015613c3057602002820191906000526020600020905b81546001600160a01b03168152600190910190602001808311613c12575b5050505050815260200160098201805480602002602001604051908101604052809291908181526020018280548015613c9257602002820191906000526020600020905b81546001600160a01b03168152600190910190602001808311613c74575b50505050508152602001600a8201805480602002602001604051908101604052809291908181526020016000905b82821015613d19576000848152602090819020604080516080810182526004860290920180548352600180820154848601526002820154928401929092526003015460ff16151560608301529083529092019101613cc0565b505050908252506040805160c081018252600b8401548152600c840154602082810191909152600d8501546001600160a01b0390811693830193909352600e8501546060830152600f850154608083015260109094015490911660a082015291015290506000613d8884612d36565b925050506000613d9785611a14565b509450505050508260400151836020015183613db39190615cce565b613dbd9190615cce565b613dc79082615cce565b90508260c001518111156128f757505060c0015192915050565b601c5481565b613def614b41565b8251613e0290602390602086019061530a565b508151613e16906024906020850190615209565b506028555050565b602b5460ff1615613e2e57600080fd5b600080546001600160a01b0319167355d398326f99059ff775485246999027b3197955178155602b805460ff199081166001908117909255338352602082815260408085208054841685179055600282528085208054841685179055600482528085208054909316909317825560089052912060118054613eb0929190615254565b507f54cdd369e4e8a8515e52ca72ec816c2101831ad1f18bf44102ed171459c9b4f880546001600160a01b03191633908117909155600090815260076020908152604080832092909255678ac7230489e80000600a55683ba1910bf341b00000600b5568015af1d78b58c40000600d556001600e819055825191820190925261012c8152613f4191600f919061535f565b506040805160a081018252601481526005602082018190529181018290526060810182905260808101829052613f7a91601091906153a0565b506040805161018081018252600080825260208201819052918101829052606081018290526080810182905260a0810182905260c0810182905260e08101829052610100810182905261012081018290526101408101829052610160810191909152613fea90601190600c6153e0565b50604080516101a081018252670de0b6b3a76400008152671bc16d674ec800006020820152673782dace9d90000091810191909152678ac7230489e8000060608201526801158e460913d00000608082015268022b1c8c1227a0000060a082015268056bc75e2d6310000060c0820152680ad78ebc5ac620000060e08201526815af1d78b58c400000610100820152681b1ae4d6e2ef500000610120820152683635c9adc5dea00000610140820152686c6b935b8bbd40000061016082015269010f0cf064dd592000006101808201526140c890601290600d615480565b50604080516101a0810182526806c6b935b8bbd400008152680d8d726b7177a800006020820152681b1ae4d6e2ef500000918101919091526843c33c193756480000606082015268878678326eac900000608082015269010f0cf064dd5920000060a08201526902a5a058fc295ed0000060c082015269054b40b1f852bda0000060e0820152690a968163f0a57b400000610100820152691a784379d99db42000006101208201526934f086f3b33b684000006101408201526969e10de76676d08000006101608201526a0108b2a2c28029094000006101808201526141b290601390600d6154c9565b506014805460ff191660019081179091556103e860155562015180601681905560175561012c6018556019819055601a819055600a601b556002601c556046601d556022819055678ac7230489e80000602655604080516020810190915273361db60d275b4328fd35733b93ceb1a3d22bbf6a8152614234916025919061530a565b506040805160208101909152606481526142529060279060016153a0565b5060408051606081018252736b78c6d2031600dcfad295359823889b2dbafd1b815273642974e00445f31c50e7cec34b24bc8b6aefd3de6020820152732198b0d4f54925dcca173a84708ba284ac85cc37918101919091526142b890602990600361530a565b50604080516060810182526001815260056020820152601a918101919091526142e590602a9060036153a0565b5060408051808201909152734593739d3a5849562e7e647b44b9a7ee3ba1e8d5815230602082015261431b90602390600261530a565b5060408051808201909152601a81526004602082015261433f9060249060026153a0565b50506002602855565b60145460ff1681565b600061435b6152a2565b826146275760005b8451811015614615576004600086838151811061439057634e487b7160e01b600052603260045260246000fd5b6020908102919091018101516001600160a01b03168252818101929092526040908101600020815161018081018352815460ff16151581526001820154818501526002820154818401526003820154606082015260048201546080820152600582015460a0820152600682015460c0820152600782015460e08201526008820180548451818702810187019095528085529194929361010086019390929083018282801561446757602002820191906000526020600020905b81546001600160a01b03168152600190910190602001808311614449575b50505050508152602001600982018054806020026020016040519081016040528092919081815260200182805480156144c957602002820191906000526020600020905b81546001600160a01b031681526001909101906020018083116144ab575b50505050508152602001600a8201805480602002602001604051908101604052809291908181526020016000905b82821015614550576000848152602090819020604080516080810182526004860290920180548352600180820154848601526002820154928401929092526003015460ff161515606083015290835290920191016144f7565b505050908252506040805160c081018252600b8401548152600c840154602082810191909152600d8501546001600160a01b0390811683850152600e8601546060840152600f8601546080840152601090950154851660a083015290920191909152610160830151015191935081166145f5578582815181106145e357634e487b7160e01b600052603260045260246000fd5b60200260200101519350505050611930565b6145ff8682614a18565b955050808061460d90615d3c565b915050614363565b50614621846000614351565b50610fc1565b60005b84518110156148d4576004600086838151811061465757634e487b7160e01b600052603260045260246000fd5b6020908102919091018101516001600160a01b03168252818101929092526040908101600020815161018081018352815460ff16151581526001820154818501526002820154818401526003820154606082015260048201546080820152600582015460a0820152600682015460c0820152600782015460e08201526008820180548451818702810187019095528085529194929361010086019390929083018282801561472e57602002820191906000526020600020905b81546001600160a01b03168152600190910190602001808311614710575b505050505081526020016009820180548060200260200160405190810160405280929190818152602001828054801561479057602002820191906000526020600020905b81546001600160a01b03168152600190910190602001808311614772575b50505050508152602001600a8201805480602002602001604051908101604052809291908181526020016000905b82821015614817576000848152602090819020604080516080810182526004860290920180548352600180820154848601526002820154928401929092526003015460ff161515606083015290835290920191016147be565b505050908252506040805160c081018252600b8401548152600c840154602082810191909152600d8501546001600160a01b0390811693830193909352600e8501546060830152600f8501546080830152601090940154821660a08083019190915293909201919091526101608301519091015191935081166148b4578582815181106145e357634e487b7160e01b600052603260045260246000fd5b6148be8682614a18565b95505080806148cc90615d3c565b91505061462a565b506148e0846001614351565b505092915050565b602a818154811061109357600080fd5b60195481565b614906614b41565b61490e612821565b6001600160a01b03166108fc479081150290604051600060405180830381858888f19350505050158015612a29573d6000803e3d6000fd5b6009546001600160a01b0316331461495d57600080fd5b565b6001600160a01b038216600090815260046020526040812090805b600a830154811015610f4f578361499057610f4f565b82600a0181815481106149b357634e487b7160e01b600052603260045260246000fd5b9060005260206000209060040201915081600101548411156149ec5760018201546149de9085615d25565b600060018401559350614a06565b8382600101546149fc9190615d25565b6001830155600093505b80614a1081615d3c565b91505061497a565b606082516001614a289190615cce565b67ffffffffffffffff811115614a4e57634e487b7160e01b600052604160045260246000fd5b604051908082528060200260200182016040528015614a77578160200160208202803683370190505b50905060005b8351811015614af857838181518110614aa657634e487b7160e01b600052603260045260246000fd5b6020026020010151828281518110614ace57634e487b7160e01b600052603260045260246000fd5b6001600160a01b039092166020928302919091019091015280614af081615d3c565b915050614a7d565b508181845181518110614b1b57634e487b7160e01b600052603260045260246000fd5b60200260200101906001600160a01b031690816001600160a01b03168152505092915050565b614b49612821565b6001600160a01b0316336001600160a01b03161461495d57600080fd5b600082614b7557506000611930565b6000614b818385615d06565b905082614b8e8583615ce6565b14614b9857600080fd5b9392505050565b6000808211614bad57600080fd5b6000614bb98385615ce6565b949350505050565b600082821115614bd057600080fd5b6000614bb98385615d25565b6060614be9858451610f5c565b905060008060005b8551811015614e9757858181518110614c1a57634e487b7160e01b600052603260045260246000fd5b6020026020010151600014614e805760046000858381518110614c4d57634e487b7160e01b600052603260045260246000fd5b6020908102919091018101516001600160a01b03168252810191909152604001600020805490925060ff168015614c88575060008260060154115b15614e855760006001600160a01b0316848281518110614cb857634e487b7160e01b600052603260045260246000fd5b60200260200101516001600160a01b031614614e8057614d0e6103e8611340888481518110614cf757634e487b7160e01b600052603260045260246000fd5b60200260200101518a614b6690919063ffffffff16565b92508282600601541115614dc457614d4d848281518110614d3f57634e487b7160e01b600052603260045260246000fd5b60200260200101518461495f565b8415614d725782826002016000828254614d679190615cce565b90915550614da79050565b82826001016000828254614d869190615cce565b9250508190555082826003016000828254614da19190615cce565b90915550505b8260206000828254614db99190615cce565b90915550614e7b9050565b8415614ded578160060154826002016000828254614de29190615cce565b90915550614e299050565b8160060154826001016000828254614e059190615cce565b90915550506006820154600383018054600090614e23908490615cce565b90915550505b816006015460206000828254614e3f9190615cce565b92505081905550614e7b848281518110614e6957634e487b7160e01b600052603260045260246000fd5b6020026020010151836006015461495f565b614e85565b614e97565b80614e8f81615d3c565b915050614bf1565b5050505050505050565b3360009081526002602052604090205460ff1661495d57600080fd5b606082516001614ecd9190615cce565b67ffffffffffffffff811115614ef357634e487b7160e01b600052604160045260246000fd5b604051908082528060200260200182016040528015614f1c578160200160208202803683370190505b50905060005b8351811015614f9057838181518110614f4b57634e487b7160e01b600052603260045260246000fd5b6020026020010151828281518110614f7357634e487b7160e01b600052603260045260246000fd5b602090810291909101015280614f8881615d3c565b915050614f22565b508181845181518110614fb357634e487b7160e01b600052603260045260246000fd5b60200260200101818152505092915050565b606082516001614fd59190615cce565b67ffffffffffffffff811115614ffb57634e487b7160e01b600052604160045260246000fd5b604051908082528060200260200182016040528015615024578160200160208202803683370190505b50905060005b835181101561509d5783818151811061505357634e487b7160e01b600052603260045260246000fd5b602002602001015182828151811061507b57634e487b7160e01b600052603260045260246000fd5b911515602092830291909101909101528061509581615d3c565b91505061502a565b5081818451815181106150c057634e487b7160e01b600052603260045260246000fd5b9115156020928302919091019091015292915050565b3360009081526001602052604090205460ff1661495d57600080fd5b6001600160a01b0383166000908152600460205260409020805460ff1661511857600080fd5b80600a01604051806080016040528042815260200161514d6151466064601854614b9f90919063ffffffff16565b8790614b66565b8152602080820187905285151560409283015283546001808201865560009586528286208551600493840290910190815592850151908301559183015160028201556060909201516003909201805460ff191692151592909217909155820180548592906151bc908490615cce565b90915550506018546151da906151d3906064614b9f565b8490614b66565b8160060160008282546119c99190615cce565b6000806151fa8385615cce565b905083811015614b9857600080fd5b828054828255906000526020600020908101928215615244579160200282015b82811115615244578251825591602001919060010190615229565b50615250929150615513565b5090565b82805482825590600052602060002090601f0160209004810192821561524457600052602060002091601f016020900482015b82811115615244578254825591600101919060010190615287565b60405180610180016040528060001515815260200160008152602001600081526020016000815260200160008152602001600081526020016000815260200160008152602001606081526020016060815260200160608152602001615305615528565b905290565b828054828255906000526020600020908101928215615244579160200282015b8281111561524457825182546001600160a01b0319166001600160a01b0390911617825560209092019160019091019061532a565b828054828255906000526020600020908101928215615244579160200282015b82811115615244578251829061ffff1690559160200191906001019061537f565b828054828255906000526020600020908101928215615244579160200282015b82811115615244578251829060ff169055916020019190600101906153c0565b82805482825590600052602060002090601f016020900481019282156152445791602002820160005b8382111561544657835183826101000a81548160ff0219169083151502179055509260200192600101602081600001049283019260010302615409565b80156154735782816101000a81549060ff0219169055600101602081600001049283019260010302615446565b5050615250929150615513565b828054828255906000526020600020908101928215615244579160200282015b82811115615244578251829069ffffffffffffffffffff169055916020019190600101906154a0565b828054828255906000526020600020908101928215615244579160200282015b8281111561524457825182906affffffffffffffffffffff169055916020019190600101906154e9565b5b808211156152505760008155600101615514565b6040518060c00160405280600081526020016000815260200160006001600160a01b03168152602001600081526020016000815260200160006001600160a01b031681525090565b600082601f830112615580578081fd5b8135602061559561559083615caa565b615c80565b82815281810190858301838502870184018810156155b1578586fd5b855b858110156155d85781356155c681615d83565b845292840192908401906001016155b3565b5090979650505050505050565b600082601f8301126155f5578081fd5b8135602061560561559083615caa565b8281528181019085830183850287018401881015615621578586fd5b855b858110156155d857813584529284019290840190600101615623565b803560ff8116811461278b57600080fd5b600060208284031215615661578081fd5b8135614b9881615d83565b60006020828403121561567d578081fd5b8151614b9881615d83565b60008060006060848603121561569c578182fd5b83356156a781615d83565b925060208401356156b781615d83565b91506156c56040850161563f565b90509250925092565b600080604083850312156156e0578182fd5b82356156eb81615d83565b946020939093013593505050565b60008060006060848603121561570d578283fd5b833561571881615d83565b925060208401359150604084013561572f81615d98565b809150509250925092565b60008060006060848603121561574e578283fd5b833561575981615d83565b95602085013595506040909401359392505050565b600080600080600060a08688031215615785578081fd5b853561579081615d83565b97602087013597506040870135966060810135965060800135945092505050565b600080604083850312156157c3578182fd5b82356157ce81615d83565b91506157dc6020840161563f565b90509250929050565b6000602082840312156157f6578081fd5b813567ffffffffffffffff81111561580c578182fd5b614bb984828501615570565b6000806040838503121561582a578081fd5b823567ffffffffffffffff80821115615841578283fd5b61584d86838701615570565b93506020850135915080821115615862578283fd5b5061586f858286016155e5565b9150509250929050565b60008060006060848603121561588d578081fd5b833567ffffffffffffffff808211156158a4578283fd5b6158b087838801615570565b945060208601359150808211156158c5578283fd5b506158d2868287016155e5565b925050604084013590509250925092565b600080604083850312156158f5578182fd5b823567ffffffffffffffff81111561590b578283fd5b61591785828601615570565b95602094909401359450505050565b600060208284031215615937578081fd5b8135614b9881615d98565b600060208284031215615953578081fd5b8151614b9881615d98565b60006020828403121561596f578081fd5b5035919050565b600060208284031215615987578081fd5b5051919050565b600080604083850312156159a0578182fd5b82359150602083013567ffffffffffffffff8111156159bd578182fd5b61586f858286016155e5565b600080604083850312156159db578182fd5b50508035926020909101359150565b6000806000606084860312156159fe578081fd5b505081359360208301359350604090920135919050565b6000815180845260208085019450808401835b83811015615a46578151151587529582019590820190600101615a28565b509495945050505050565b6000815180845260208085019450808401835b83811015615a4657815187529582019590820190600101615a64565b6001600160a01b0391909116815260200190565b6001600160a01b0392831681529116602082015260400190565b6001600160a01b039384168152919092166020820152604081019190915260600190565b6001600160a01b03929092168252602082015260400190565b6020808252825182820181905260009190848201906040850190845b81811015615b2c5783516001600160a01b031683529284019291840191600101615b07565b50909695505050505050565b600060c08252615b4b60c0830189615a51565b8281036020840152615b5d8189615a51565b90508281036040840152615b718188615a15565b90508281036060840152615b858187615a15565b6080840195909552505060a00152949350505050565b901515815260200190565b98151589526020808a01989098526040808a01979097526060808a01969096526080808a019590955260a0808a019490945260c089019290925260e0880152805161010088015294850151610120870152928401516001600160a01b0390811661014087015291840151610160860152830151610180850152910151166101a08201526101c00190565b90815260200190565b9283526020830191909152604082015260600190565b95865260208601949094526040850192909252606084015260808301526001600160a01b031660a082015260c00190565b60405181810167ffffffffffffffff81118282101715615ca257615ca2615d6d565b604052919050565b600067ffffffffffffffff821115615cc457615cc4615d6d565b5060209081020190565b60008219821115615ce157615ce1615d57565b500190565b600082615d0157634e487b7160e01b81526012600452602481fd5b500490565b6000816000190483118215151615615d2057615d20615d57565b500290565b600082821015615d3757615d37615d57565b500390565b6000600019821415615d5057615d50615d57565b5060010190565b634e487b7160e01b600052601160045260246000fd5b634e487b7160e01b600052604160045260246000fd5b6001600160a01b0381168114612a2957600080fd5b8015158114612a2957600080fdfea2646970667358221220cb6f33fcee047a693d6da6f70a1f03392440d958d4b8111e8e6c5269358ac62a64736f6c63430008000033",
    "sourcePath": "c:/Users/STC/Documents/GitHub/4trust/contracts/BinariSystemV2.0-proxyed.sol",
    "compiler": {
        "name": "solc",
        "version": "0.8.0+commit.c7dfd78e"
    },
    "functionHashes": {
        "API()": "7d7b0099",
        "GanaMax()": "0a33879e",
        "MAX_RETIRO()": "313e70ee",
        "MIN_RETIRO()": "6c529279",
        "_registro(address,address,uint8)": "76d1158d",
        "activerFee()": "bd9bee19",
        "addressToId(address)": "cb0e0d7d",
        "admin(address)": "63a846f8",
        "allnetwork(address[])": "7faee047",
        "asignFreeMembership(address,address,uint8)": "8321a1b2",
        "asignarPlan(address,uint256,bool)": "877f9b91",
        "asignarPuntosBinarios(address,uint256,uint256)": "5a090c2d",
        "buyPlan(uint256)": "a80b223b",
        "column(address,uint256)": "15e8392b",
        "controlWitdrawl(bool)": "b17b6e44",
        "corteBinarioDo(address,uint256,uint256,uint256,uint256)": "07cb263f",
        "depositos(address)": "664e62b9",
        "descuento()": "7b0412ed",
        "dias()": "ab6db199",
        "directosBinario()": "d8771869",
        "espaciosRango(uint256)": "833a2a45",
        "factorPuntos()": "17b11e78",
        "gananciasRango(uint256)": "81032892",
        "idToAddress(uint256)": "2a2d0c47",
        "iniciado()": "83bd8528",
        "inicializar()": "dcbe327e",
        "insertion(address[],uint256)": "e760e99c",
        "inversiones()": "a77d2119",
        "investors(address)": "6f7bc9be",
        "lastUserId()": "348d4487",
        "leader(address)": "01288c71",
        "makeNewAdmin(address)": "69ed1e0a",
        "makeNewApi(address)": "1800df1b",
        "makeNewLeader(address)": "ac713a0b",
        "makeRemoveAdmin(address)": "70a0966b",
        "makeRemoveLeader(address)": "160e8d60",
        "miHands(address,uint256)": "45be691e",
        "misDirectos(address,uint256)": "555452c1",
        "multiPuntos()": "ee1934bc",
        "newRecompensa()": "69f4a84b",
        "onOffWitdrawl()": "e7348e8c",
        "owner()": "8da5cb5b",
        "padre(address)": "b35f0a8f",
        "personasBinary(address,uint256)": "aaf88052",
        "plan()": "53e06571",
        "porcent()": "4728f718",
        "porcentPuntosBinario()": "c2307ee6",
        "porcientoFee(uint256)": "9d1604b4",
        "porcientoRegistro(uint256)": "46e512a7",
        "porcientos(uint256)": "28cca719",
        "porcientosSalida(uint256)": "22c0a574",
        "precioRegistro()": "7db9e9c6",
        "puntosRango(uint256)": "21309f21",
        "rangoReclamado(address,uint256)": "2acc8210",
        "redimBNB()": "fd14d598",
        "redimToken()": "9e414b7c",
        "registro(address,uint8)": "c14b8361",
        "retirableA(address)": "ab4cc147",
        "setDescuento(uint256)": "b3d9fa09",
        "setPorcientos(uint256,uint256)": "1e403c35",
        "setPorcientosSalida(uint256,uint256)": "5d216c60",
        "setPrecioRegistro(uint256,uint256[])": "586e04e1",
        "setVaribles(uint256,uint256,uint256)": "b9af6cba",
        "setWalletFee(address[],uint256[],uint256)": "db3be1a2",
        "setWalletstransfers(address[],uint256[])": "a8beb717",
        "setstate()": "85338e20",
        "tiempo()": "50188c08",
        "timerOut()": "aec68894",
        "totalInvested()": "5216aeec",
        "totalInvestors()": "29b8caff",
        "totalRefRewards()": "bfe0e020",
        "totalRefWitdrawl()": "9b8ff503",
        "unidades()": "4b9b8203",
        "updateToken(address)": "7ad3def2",
        "valorBuy(uint256)": "ebd5d449",
        "walletBuy(uint256)": "c70b1ab3",
        "walletFee(uint256)": "7251b9ac",
        "walletRegistro(uint256)": "c7c1dd81",
        "withdraw()": "3ccfd60b",
        "withdrawable(address)": "ce513b6f",
        "withdrawableBinary(address)": "a95b4df9",
        "withdrawableRange(address)": "98c07d0a"
    },
    "gasEstimates": {
        "creation": {
            "codeDepositCost": "4805600",
            "executionCost": "26482",
            "totalCost": "4832082"
        },
        "external": {
            "": "265",
            "API()": "1225",
            "GanaMax()": "1142",
            "MAX_RETIRO()": "1185",
            "MIN_RETIRO()": "1140",
            "_registro(address,address,uint8)": "infinite",
            "activerFee()": "1095",
            "addressToId(address)": "1335",
            "admin(address)": "1392",
            "allnetwork(address[])": "infinite",
            "asignFreeMembership(address,address,uint8)": "infinite",
            "asignarPlan(address,uint256,bool)": "infinite",
            "asignarPuntosBinarios(address,uint256,uint256)": "infinite",
            "buyPlan(uint256)": "infinite",
            "column(address,uint256)": "infinite",
            "controlWitdrawl(bool)": "infinite",
            "corteBinarioDo(address,uint256,uint256,uint256,uint256)": "infinite",
            "depositos(address)": "infinite",
            "descuento()": "1161",
            "dias()": "1161",
            "directosBinario()": "1161",
            "espaciosRango(uint256)": "3792",
            "factorPuntos()": "1097",
            "gananciasRango(uint256)": "2087",
            "idToAddress(uint256)": "1326",
            "iniciado()": "1197",
            "inicializar()": "infinite",
            "insertion(address[],uint256)": "infinite",
            "inversiones()": "1140",
            "investors(address)": "12498",
            "lastUserId()": "1096",
            "leader(address)": "1328",
            "makeNewAdmin(address)": "infinite",
            "makeNewApi(address)": "infinite",
            "makeNewLeader(address)": "infinite",
            "makeRemoveAdmin(address)": "infinite",
            "makeRemoveLeader(address)": "infinite",
            "miHands(address,uint256)": "infinite",
            "misDirectos(address,uint256)": "infinite",
            "multiPuntos()": "1182",
            "newRecompensa()": "infinite",
            "onOffWitdrawl()": "1128",
            "owner()": "infinite",
            "padre(address)": "1400",
            "personasBinary(address,uint256)": "infinite",
            "plan()": "1163",
            "porcent()": "1184",
            "porcentPuntosBinario()": "1161",
            "porcientoFee(uint256)": "2064",
            "porcientoRegistro(uint256)": "2130",
            "porcientos(uint256)": "2065",
            "porcientosSalida(uint256)": "2153",
            "precioRegistro()": "1205",
            "puntosRango(uint256)": "2131",
            "rangoReclamado(address,uint256)": "3959",
            "redimBNB()": "infinite",
            "redimToken()": "infinite",
            "registro(address,uint8)": "infinite",
            "retirableA(address)": "1357",
            "setDescuento(uint256)": "infinite",
            "setPorcientos(uint256,uint256)": "infinite",
            "setPorcientosSalida(uint256,uint256)": "infinite",
            "setPrecioRegistro(uint256,uint256[])": "infinite",
            "setVaribles(uint256,uint256,uint256)": "infinite",
            "setWalletFee(address[],uint256[],uint256)": "infinite",
            "setWalletstransfers(address[],uint256[])": "infinite",
            "setstate()": "2753",
            "tiempo()": "infinite",
            "timerOut()": "1096",
            "totalInvested()": "1141",
            "totalInvestors()": "1119",
            "totalRefRewards()": "1117",
            "totalRefWitdrawl()": "1184",
            "unidades()": "1097",
            "updateToken(address)": "infinite",
            "valorBuy(uint256)": "2128",
            "walletBuy(uint256)": "2193",
            "walletFee(uint256)": "2105",
            "walletRegistro(uint256)": "2105",
            "withdraw()": "infinite",
            "withdrawable(address)": "infinite",
            "withdrawableBinary(address)": "infinite",
            "withdrawableRange(address)": "infinite"
        },
        "internal": {
            "_buyPlan(address,uint256,bool)": "infinite",
            "discountDeposits(address,uint256)": "infinite",
            "onlyAdmin()": "906",
            "onlyApi()": "849",
            "onlyLeader()": "906",
            "onlyOwner()": "infinite",
            "rewardReferers(address,uint256,uint256[] memory,bool)": "infinite"
        }
    }
}